{
  "_format": "hh-sol-artifact-1",
  "contractName": "NftMembership",
  "sourceName": "contracts/NftMembership.sol",
  "abi": [
    {
      "inputs": [
        {
          "internalType": "string",
          "name": "name",
          "type": "string"
        },
        {
          "internalType": "string",
          "name": "symbol",
          "type": "string"
        },
        {
          "internalType": "uint256",
          "name": "_maxSupply",
          "type": "uint256"
        },
        {
          "internalType": "uint256",
          "name": "_mintPrice",
          "type": "uint256"
        },
        {
          "internalType": "uint256",
          "name": "_whitelistMintPrice",
          "type": "uint256"
        },
        {
          "internalType": "string",
          "name": "baseURI",
          "type": "string"
        },
        {
          "internalType": "bytes32",
          "name": "_merkleRoot",
          "type": "bytes32"
        }
      ],
      "stateMutability": "nonpayable",
      "type": "constructor"
    },
    {
      "anonymous": false,
      "inputs": [
        {
          "indexed": true,
          "internalType": "address",
          "name": "owner",
          "type": "address"
        },
        {
          "indexed": true,
          "internalType": "address",
          "name": "approved",
          "type": "address"
        },
        {
          "indexed": true,
          "internalType": "uint256",
          "name": "tokenId",
          "type": "uint256"
        }
      ],
      "name": "Approval",
      "type": "event"
    },
    {
      "anonymous": false,
      "inputs": [
        {
          "indexed": true,
          "internalType": "address",
          "name": "owner",
          "type": "address"
        },
        {
          "indexed": true,
          "internalType": "address",
          "name": "operator",
          "type": "address"
        },
        {
          "indexed": false,
          "internalType": "bool",
          "name": "approved",
          "type": "bool"
        }
      ],
      "name": "ApprovalForAll",
      "type": "event"
    },
    {
      "anonymous": false,
      "inputs": [
        {
          "indexed": false,
          "internalType": "string",
          "name": "newURI",
          "type": "string"
        }
      ],
      "name": "BaseURIUpdated",
      "type": "event"
    },
    {
      "anonymous": false,
      "inputs": [
        {
          "indexed": true,
          "internalType": "address",
          "name": "token",
          "type": "address"
        },
        {
          "indexed": true,
          "internalType": "address",
          "name": "to",
          "type": "address"
        },
        {
          "indexed": false,
          "internalType": "uint256",
          "name": "amount",
          "type": "uint256"
        }
      ],
      "name": "ERC20Recovered",
      "type": "event"
    },
    {
      "anonymous": false,
      "inputs": [
        {
          "indexed": false,
          "internalType": "bytes32",
          "name": "newRoot",
          "type": "bytes32"
        }
      ],
      "name": "MerkleRootUpdated",
      "type": "event"
    },
    {
      "anonymous": false,
      "inputs": [
        {
          "indexed": false,
          "internalType": "uint256",
          "name": "newPrice",
          "type": "uint256"
        }
      ],
      "name": "MintPriceUpdated",
      "type": "event"
    },
    {
      "anonymous": false,
      "inputs": [
        {
          "indexed": true,
          "internalType": "address",
          "name": "from",
          "type": "address"
        },
        {
          "indexed": false,
          "internalType": "uint256",
          "name": "tokenId",
          "type": "uint256"
        }
      ],
      "name": "PassBurned",
      "type": "event"
    },
    {
      "anonymous": false,
      "inputs": [
        {
          "indexed": true,
          "internalType": "address",
          "name": "to",
          "type": "address"
        },
        {
          "indexed": false,
          "internalType": "uint256",
          "name": "tokenId",
          "type": "uint256"
        }
      ],
      "name": "PassMinted",
      "type": "event"
    },
    {
      "anonymous": false,
      "inputs": [
        {
          "indexed": false,
          "internalType": "address",
          "name": "account",
          "type": "address"
        }
      ],
      "name": "Paused",
      "type": "event"
    },
    {
      "anonymous": false,
      "inputs": [
        {
          "indexed": false,
          "internalType": "enum NftMembership.Phase",
          "name": "newPhase",
          "type": "uint8"
        }
      ],
      "name": "PhaseAdvanced",
      "type": "event"
    },
    {
      "anonymous": false,
      "inputs": [
        {
          "indexed": true,
          "internalType": "bytes32",
          "name": "role",
          "type": "bytes32"
        },
        {
          "indexed": true,
          "internalType": "bytes32",
          "name": "previousAdminRole",
          "type": "bytes32"
        },
        {
          "indexed": true,
          "internalType": "bytes32",
          "name": "newAdminRole",
          "type": "bytes32"
        }
      ],
      "name": "RoleAdminChanged",
      "type": "event"
    },
    {
      "anonymous": false,
      "inputs": [
        {
          "indexed": true,
          "internalType": "bytes32",
          "name": "role",
          "type": "bytes32"
        },
        {
          "indexed": true,
          "internalType": "address",
          "name": "account",
          "type": "address"
        },
        {
          "indexed": true,
          "internalType": "address",
          "name": "sender",
          "type": "address"
        }
      ],
      "name": "RoleGranted",
      "type": "event"
    },
    {
      "anonymous": false,
      "inputs": [
        {
          "indexed": true,
          "internalType": "bytes32",
          "name": "role",
          "type": "bytes32"
        },
        {
          "indexed": true,
          "internalType": "address",
          "name": "account",
          "type": "address"
        },
        {
          "indexed": true,
          "internalType": "address",
          "name": "sender",
          "type": "address"
        }
      ],
      "name": "RoleRevoked",
      "type": "event"
    },
    {
      "anonymous": false,
      "inputs": [
        {
          "indexed": true,
          "internalType": "address",
          "name": "from",
          "type": "address"
        },
        {
          "indexed": true,
          "internalType": "address",
          "name": "to",
          "type": "address"
        },
        {
          "indexed": true,
          "internalType": "uint256",
          "name": "tokenId",
          "type": "uint256"
        }
      ],
      "name": "Transfer",
      "type": "event"
    },
    {
      "anonymous": false,
      "inputs": [
        {
          "indexed": false,
          "internalType": "address",
          "name": "account",
          "type": "address"
        }
      ],
      "name": "Unpaused",
      "type": "event"
    },
    {
      "anonymous": false,
      "inputs": [
        {
          "indexed": false,
          "internalType": "uint256",
          "name": "newPrice",
          "type": "uint256"
        }
      ],
      "name": "WhitelistMintPriceUpdated",
      "type": "event"
    },
    {
      "anonymous": false,
      "inputs": [
        {
          "indexed": true,
          "internalType": "address",
          "name": "to",
          "type": "address"
        },
        {
          "indexed": false,
          "internalType": "uint256",
          "name": "amount",
          "type": "uint256"
        }
      ],
      "name": "Withdrawn",
      "type": "event"
    },
    {
      "inputs": [],
      "name": "ADMIN_ROLE",
      "outputs": [
        {
          "internalType": "bytes32",
          "name": "",
          "type": "bytes32"
        }
      ],
      "stateMutability": "view",
      "type": "function"
    },
    {
      "inputs": [],
      "name": "DEFAULT_ADMIN_ROLE",
      "outputs": [
        {
          "internalType": "bytes32",
          "name": "",
          "type": "bytes32"
        }
      ],
      "stateMutability": "view",
      "type": "function"
    },
    {
      "inputs": [],
      "name": "advancePhase",
      "outputs": [],
      "stateMutability": "nonpayable",
      "type": "function"
    },
    {
      "inputs": [
        {
          "internalType": "address",
          "name": "to",
          "type": "address"
        },
        {
          "internalType": "uint256",
          "name": "tokenId",
          "type": "uint256"
        }
      ],
      "name": "approve",
      "outputs": [],
      "stateMutability": "nonpayable",
      "type": "function"
    },
    {
      "inputs": [
        {
          "internalType": "address",
          "name": "owner",
          "type": "address"
        }
      ],
      "name": "balanceOf",
      "outputs": [
        {
          "internalType": "uint256",
          "name": "",
          "type": "uint256"
        }
      ],
      "stateMutability": "view",
      "type": "function"
    },
    {
      "inputs": [
        {
          "internalType": "uint256",
          "name": "tokenId",
          "type": "uint256"
        }
      ],
      "name": "burn",
      "outputs": [],
      "stateMutability": "nonpayable",
      "type": "function"
    },
    {
      "inputs": [],
      "name": "currentPhase",
      "outputs": [
        {
          "internalType": "enum NftMembership.Phase",
          "name": "",
          "type": "uint8"
        }
      ],
      "stateMutability": "view",
      "type": "function"
    },
    {
      "inputs": [
        {
          "internalType": "uint256",
          "name": "tokenId",
          "type": "uint256"
        }
      ],
      "name": "getApproved",
      "outputs": [
        {
          "internalType": "address",
          "name": "",
          "type": "address"
        }
      ],
      "stateMutability": "view",
      "type": "function"
    },
    {
      "inputs": [
        {
          "internalType": "bytes32",
          "name": "role",
          "type": "bytes32"
        }
      ],
      "name": "getRoleAdmin",
      "outputs": [
        {
          "internalType": "bytes32",
          "name": "",
          "type": "bytes32"
        }
      ],
      "stateMutability": "view",
      "type": "function"
    },
    {
      "inputs": [
        {
          "internalType": "bytes32",
          "name": "role",
          "type": "bytes32"
        },
        {
          "internalType": "address",
          "name": "account",
          "type": "address"
        }
      ],
      "name": "grantRole",
      "outputs": [],
      "stateMutability": "nonpayable",
      "type": "function"
    },
    {
      "inputs": [
        {
          "internalType": "bytes32",
          "name": "role",
          "type": "bytes32"
        },
        {
          "internalType": "address",
          "name": "account",
          "type": "address"
        }
      ],
      "name": "hasRole",
      "outputs": [
        {
          "internalType": "bool",
          "name": "",
          "type": "bool"
        }
      ],
      "stateMutability": "view",
      "type": "function"
    },
    {
      "inputs": [
        {
          "internalType": "address",
          "name": "owner",
          "type": "address"
        },
        {
          "internalType": "address",
          "name": "operator",
          "type": "address"
        }
      ],
      "name": "isApprovedForAll",
      "outputs": [
        {
          "internalType": "bool",
          "name": "",
          "type": "bool"
        }
      ],
      "stateMutability": "view",
      "type": "function"
    },
    {
      "inputs": [],
      "name": "maxSupply",
      "outputs": [
        {
          "internalType": "uint256",
          "name": "",
          "type": "uint256"
        }
      ],
      "stateMutability": "view",
      "type": "function"
    },
    {
      "inputs": [],
      "name": "merkleRoot",
      "outputs": [
        {
          "internalType": "bytes32",
          "name": "",
          "type": "bytes32"
        }
      ],
      "stateMutability": "view",
      "type": "function"
    },
    {
      "inputs": [],
      "name": "mintPrice",
      "outputs": [
        {
          "internalType": "uint256",
          "name": "",
          "type": "uint256"
        }
      ],
      "stateMutability": "view",
      "type": "function"
    },
    {
      "inputs": [],
      "name": "name",
      "outputs": [
        {
          "internalType": "string",
          "name": "",
          "type": "string"
        }
      ],
      "stateMutability": "view",
      "type": "function"
    },
    {
      "inputs": [
        {
          "internalType": "uint256",
          "name": "tokenId",
          "type": "uint256"
        }
      ],
      "name": "ownerOf",
      "outputs": [
        {
          "internalType": "address",
          "name": "",
          "type": "address"
        }
      ],
      "stateMutability": "view",
      "type": "function"
    },
    {
      "inputs": [],
      "name": "pause",
      "outputs": [],
      "stateMutability": "nonpayable",
      "type": "function"
    },
    {
      "inputs": [],
      "name": "paused",
      "outputs": [
        {
          "internalType": "bool",
          "name": "",
          "type": "bool"
        }
      ],
      "stateMutability": "view",
      "type": "function"
    },
    {
      "inputs": [],
      "name": "publicMint",
      "outputs": [],
      "stateMutability": "payable",
      "type": "function"
    },
    {
      "inputs": [
        {
          "internalType": "address",
          "name": "token",
          "type": "address"
        },
        {
          "internalType": "address",
          "name": "to",
          "type": "address"
        },
        {
          "internalType": "uint256",
          "name": "amount",
          "type": "uint256"
        }
      ],
      "name": "recoverERC20",
      "outputs": [],
      "stateMutability": "nonpayable",
      "type": "function"
    },
    {
      "inputs": [
        {
          "internalType": "bytes32",
          "name": "role",
          "type": "bytes32"
        },
        {
          "internalType": "address",
          "name": "account",
          "type": "address"
        }
      ],
      "name": "renounceRole",
      "outputs": [],
      "stateMutability": "nonpayable",
      "type": "function"
    },
    {
      "inputs": [
        {
          "internalType": "bytes32",
          "name": "role",
          "type": "bytes32"
        },
        {
          "internalType": "address",
          "name": "account",
          "type": "address"
        }
      ],
      "name": "revokeRole",
      "outputs": [],
      "stateMutability": "nonpayable",
      "type": "function"
    },
    {
      "inputs": [
        {
          "internalType": "address",
          "name": "from",
          "type": "address"
        },
        {
          "internalType": "address",
          "name": "to",
          "type": "address"
        },
        {
          "internalType": "uint256",
          "name": "tokenId",
          "type": "uint256"
        }
      ],
      "name": "safeTransferFrom",
      "outputs": [],
      "stateMutability": "nonpayable",
      "type": "function"
    },
    {
      "inputs": [
        {
          "internalType": "address",
          "name": "from",
          "type": "address"
        },
        {
          "internalType": "address",
          "name": "to",
          "type": "address"
        },
        {
          "internalType": "uint256",
          "name": "tokenId",
          "type": "uint256"
        },
        {
          "internalType": "bytes",
          "name": "data",
          "type": "bytes"
        }
      ],
      "name": "safeTransferFrom",
      "outputs": [],
      "stateMutability": "nonpayable",
      "type": "function"
    },
    {
      "inputs": [
        {
          "internalType": "address",
          "name": "operator",
          "type": "address"
        },
        {
          "internalType": "bool",
          "name": "approved",
          "type": "bool"
        }
      ],
      "name": "setApprovalForAll",
      "outputs": [],
      "stateMutability": "nonpayable",
      "type": "function"
    },
    {
      "inputs": [
        {
          "internalType": "string",
          "name": "baseURI",
          "type": "string"
        }
      ],
      "name": "setBaseURI",
      "outputs": [],
      "stateMutability": "nonpayable",
      "type": "function"
    },
    {
      "inputs": [
        {
          "internalType": "bytes32",
          "name": "_merkleRoot",
          "type": "bytes32"
        }
      ],
      "name": "setMerkleRoot",
      "outputs": [],
      "stateMutability": "nonpayable",
      "type": "function"
    },
    {
      "inputs": [
        {
          "internalType": "uint256",
          "name": "_mintPrice",
          "type": "uint256"
        }
      ],
      "name": "setMintPrice",
      "outputs": [],
      "stateMutability": "nonpayable",
      "type": "function"
    },
    {
      "inputs": [
        {
          "internalType": "uint256",
          "name": "_price",
          "type": "uint256"
        }
      ],
      "name": "setWhitelistMintPrice",
      "outputs": [],
      "stateMutability": "nonpayable",
      "type": "function"
    },
    {
      "inputs": [
        {
          "internalType": "bytes4",
          "name": "interfaceId",
          "type": "bytes4"
        }
      ],
      "name": "supportsInterface",
      "outputs": [
        {
          "internalType": "bool",
          "name": "",
          "type": "bool"
        }
      ],
      "stateMutability": "view",
      "type": "function"
    },
    {
      "inputs": [],
      "name": "symbol",
      "outputs": [
        {
          "internalType": "string",
          "name": "",
          "type": "string"
        }
      ],
      "stateMutability": "view",
      "type": "function"
    },
    {
      "inputs": [
        {
          "internalType": "uint256",
          "name": "tokenId",
          "type": "uint256"
        }
      ],
      "name": "tokenURI",
      "outputs": [
        {
          "internalType": "string",
          "name": "",
          "type": "string"
        }
      ],
      "stateMutability": "view",
      "type": "function"
    },
    {
      "inputs": [],
      "name": "totalMinted",
      "outputs": [
        {
          "internalType": "uint256",
          "name": "",
          "type": "uint256"
        }
      ],
      "stateMutability": "view",
      "type": "function"
    },
    {
      "inputs": [
        {
          "internalType": "address",
          "name": "from",
          "type": "address"
        },
        {
          "internalType": "address",
          "name": "to",
          "type": "address"
        },
        {
          "internalType": "uint256",
          "name": "tokenId",
          "type": "uint256"
        }
      ],
      "name": "transferFrom",
      "outputs": [],
      "stateMutability": "nonpayable",
      "type": "function"
    },
    {
      "inputs": [],
      "name": "unpause",
      "outputs": [],
      "stateMutability": "nonpayable",
      "type": "function"
    },
    {
      "inputs": [
        {
          "internalType": "address",
          "name": "",
          "type": "address"
        }
      ],
      "name": "whitelistClaimed",
      "outputs": [
        {
          "internalType": "bool",
          "name": "",
          "type": "bool"
        }
      ],
      "stateMutability": "view",
      "type": "function"
    },
    {
      "inputs": [
        {
          "internalType": "bytes32[]",
          "name": "proof",
          "type": "bytes32[]"
        }
      ],
      "name": "whitelistMint",
      "outputs": [],
      "stateMutability": "payable",
      "type": "function"
    },
    {
      "inputs": [],
      "name": "whitelistMintPrice",
      "outputs": [
        {
          "internalType": "uint256",
          "name": "",
          "type": "uint256"
        }
      ],
      "stateMutability": "view",
      "type": "function"
    },
    {
      "inputs": [
        {
          "internalType": "address payable",
          "name": "to",
          "type": "address"
        }
      ],
      "name": "withdraw",
      "outputs": [],
      "stateMutability": "nonpayable",
      "type": "function"
    }
  ],
  "bytecode": "0x60806040523480156200001157600080fd5b5060405162005cfa38038062005cfa833981810160405281019062000037919062000498565b868681600090816200004a9190620007e9565b5080600190816200005c9190620007e9565b5050506000600660006101000a81548160ff0219169083151502179055506200008f6000801b336200012a60201b60201c565b620000c17fa49807205ce4d355092ef5a8a18f56e8913cf4a201fbe287825b095693c21775336200012a60201b60201c565b8460098190555083600a8190555082600b8190555081600c9081620000e79190620007e9565b5080600d819055506000600860006101000a81548160ff02191690836002811115620001185762000117620008d0565b5b021790555050505050505050620008ff565b6200013c82826200021c60201b60201c565b620002185760016007600084815260200190815260200160002060000160008373ffffffffffffffffffffffffffffffffffffffff1673ffffffffffffffffffffffffffffffffffffffff16815260200190815260200160002060006101000a81548160ff021916908315150217905550620001bd6200028760201b60201c565b73ffffffffffffffffffffffffffffffffffffffff168173ffffffffffffffffffffffffffffffffffffffff16837f2f8788117e7eff1d82e926ec794901d17c78024a50270940304540a733656f0d60405160405180910390a45b5050565b60006007600084815260200190815260200160002060000160008373ffffffffffffffffffffffffffffffffffffffff1673ffffffffffffffffffffffffffffffffffffffff16815260200190815260200160002060009054906101000a900460ff16905092915050565b600033905090565b6000604051905090565b600080fd5b600080fd5b600080fd5b600080fd5b6000601f19601f8301169050919050565b7f4e487b7100000000000000000000000000000000000000000000000000000000600052604160045260246000fd5b620002f882620002ad565b810181811067ffffffffffffffff821117156200031a5762000319620002be565b5b80604052505050565b60006200032f6200028f565b90506200033d8282620002ed565b919050565b600067ffffffffffffffff82111562000360576200035f620002be565b5b6200036b82620002ad565b9050602081019050919050565b60005b83811015620003985780820151818401526020810190506200037b565b60008484015250505050565b6000620003bb620003b58462000342565b62000323565b905082815260208101848484011115620003da57620003d9620002a8565b5b620003e784828562000378565b509392505050565b600082601f830112620004075762000406620002a3565b5b815162000419848260208601620003a4565b91505092915050565b6000819050919050565b620004378162000422565b81146200044357600080fd5b50565b60008151905062000457816200042c565b92915050565b6000819050919050565b62000472816200045d565b81146200047e57600080fd5b50565b600081519050620004928162000467565b92915050565b600080600080600080600060e0888a031215620004ba57620004b962000299565b5b600088015167ffffffffffffffff811115620004db57620004da6200029e565b5b620004e98a828b01620003ef565b975050602088015167ffffffffffffffff8111156200050d576200050c6200029e565b5b6200051b8a828b01620003ef565b96505060406200052e8a828b0162000446565b9550506060620005418a828b0162000446565b9450506080620005548a828b0162000446565b93505060a088015167ffffffffffffffff8111156200057857620005776200029e565b5b620005868a828b01620003ef565b92505060c0620005998a828b0162000481565b91505092959891949750929550565b600081519050919050565b7f4e487b7100000000000000000000000000000000000000000000000000000000600052602260045260246000fd5b60006002820490506001821680620005fb57607f821691505b602082108103620006115762000610620005b3565b5b50919050565b60008190508160005260206000209050919050565b60006020601f8301049050919050565b600082821b905092915050565b6000600883026200067b7fffffffffffffffffffffffffffffffffffffffffffffffffffffffffffffffff826200063c565b6200068786836200063c565b95508019841693508086168417925050509392505050565b6000819050919050565b6000620006ca620006c4620006be8462000422565b6200069f565b62000422565b9050919050565b6000819050919050565b620006e683620006a9565b620006fe620006f582620006d1565b84845462000649565b825550505050565b600090565b6200071562000706565b62000722818484620006db565b505050565b5b818110156200074a576200073e6000826200070b565b60018101905062000728565b5050565b601f8211156200079957620007638162000617565b6200076e846200062c565b810160208510156200077e578190505b620007966200078d856200062c565b83018262000727565b50505b505050565b600082821c905092915050565b6000620007be600019846008026200079e565b1980831691505092915050565b6000620007d98383620007ab565b9150826002028217905092915050565b620007f482620005a8565b67ffffffffffffffff81111562000810576200080f620002be565b5b6200081c8254620005e2565b620008298282856200074e565b600060209050601f8311600181146200086157600084156200084c578287015190505b620008588582620007cb565b865550620008c8565b601f198416620008718662000617565b60005b828110156200089b5784890151825560018201915060208501945060208101905062000874565b86831015620008bb5784890151620008b7601f891682620007ab565b8355505b6001600288020188555050505b505050505050565b7f4e487b7100000000000000000000000000000000000000000000000000000000600052602160045260246000fd5b6153eb806200090f6000396000f3fe60806040526004361061023b5760003560e01c80636352211e1161012e578063a2309ff8116100ab578063d547741f1161006f578063d547741f14610819578063d5abeb0114610842578063db4bec441461086d578063e985e9c5146108aa578063f4a0a528146108e75761023b565b8063a2309ff814610748578063a611708e14610773578063b88d4fde1461079c578063be25a718146107c5578063c87b56dd146107dc5761023b565b80638456cb59116100f25780638456cb591461067557806391d148541461068c57806395d89b41146106c9578063a217fddf146106f4578063a22cb4651461071f5761023b565b80636352211e1461057c5780636817c76c146105b957806370a08231146105e457806375b238fc146106215780637cb647591461064c5761023b565b80632f2ff15d116101bc57806342842e0e1161018057806342842e0e146104ad57806342966c68146104d657806351cff8d9146104ff57806355f804b3146105285780635c975abb146105515761023b565b80632f2ff15d146103fd57806335c6aaf81461042657806336568abe14610451578063372f657c1461047a5780633f4ba83a146104965761023b565b80631171bda9116102035780631171bda91461033957806323b872dd14610362578063248a9ca31461038b57806326092b83146103c85780632eb4a7ab146103d25761023b565b806301ffc9a714610240578063055ad42e1461027d57806306fdde03146102a8578063081812fc146102d3578063095ea7b314610310575b600080fd5b34801561024c57600080fd5b50610267600480360381019061026291906135b7565b610910565b60405161027491906135ff565b60405180910390f35b34801561028957600080fd5b50610292610922565b60405161029f9190613691565b60405180910390f35b3480156102b457600080fd5b506102bd610935565b6040516102ca919061373c565b60405180910390f35b3480156102df57600080fd5b506102fa60048036038101906102f59190613794565b6109c7565b6040516103079190613802565b60405180910390f35b34801561031c57600080fd5b5061033760048036038101906103329190613849565b610a0d565b005b34801561034557600080fd5b50610360600480360381019061035b9190613889565b610b24565b005b34801561036e57600080fd5b5061038960048036038101906103849190613889565b610ceb565b005b34801561039757600080fd5b506103b260048036038101906103ad9190613912565b610d4b565b6040516103bf919061394e565b60405180910390f35b6103d0610d6b565b005b3480156103de57600080fd5b506103e7610e7e565b6040516103f4919061394e565b60405180910390f35b34801561040957600080fd5b50610424600480360381019061041f9190613969565b610e84565b005b34801561043257600080fd5b5061043b610ea5565b60405161044891906139b8565b60405180910390f35b34801561045d57600080fd5b5061047860048036038101906104739190613969565b610eab565b005b610494600480360381019061048f9190613a38565b610efe565b005b3480156104a257600080fd5b506104ab6111b2565b005b3480156104b957600080fd5b506104d460048036038101906104cf9190613889565b6111e7565b005b3480156104e257600080fd5b506104fd60048036038101906104f89190613794565b611207565b005b34801561050b57600080fd5b5061052660048036038101906105219190613ac3565b611261565b005b34801561053457600080fd5b5061054f600480360381019061054a9190613c20565b611442565b005b34801561055d57600080fd5b506105666114b7565b60405161057391906135ff565b60405180910390f35b34801561058857600080fd5b506105a3600480360381019061059e9190613794565b6114ce565b6040516105b09190613802565b60405180910390f35b3480156105c557600080fd5b506105ce611554565b6040516105db91906139b8565b60405180910390f35b3480156105f057600080fd5b5061060b60048036038101906106069190613c69565b61155a565b60405161061891906139b8565b60405180910390f35b34801561062d57600080fd5b50610636611611565b604051610643919061394e565b60405180910390f35b34801561065857600080fd5b50610673600480360381019061066e9190613912565b611635565b005b34801561068157600080fd5b5061068a6116a1565b005b34801561069857600080fd5b506106b360048036038101906106ae9190613969565b6116d6565b6040516106c091906135ff565b60405180910390f35b3480156106d557600080fd5b506106de611741565b6040516106eb919061373c565b60405180910390f35b34801561070057600080fd5b506107096117d3565b604051610716919061394e565b60405180910390f35b34801561072b57600080fd5b5061074660048036038101906107419190613cc2565b6117da565b005b34801561075457600080fd5b5061075d6117f0565b60405161076a91906139b8565b60405180910390f35b34801561077f57600080fd5b5061079a60048036038101906107959190613794565b6117f6565b005b3480156107a857600080fd5b506107c360048036038101906107be9190613da3565b611862565b005b3480156107d157600080fd5b506107da6118c4565b005b3480156107e857600080fd5b5061080360048036038101906107fe9190613794565b611a0a565b604051610810919061373c565b60405180910390f35b34801561082557600080fd5b50610840600480360381019061083b9190613969565b611a72565b005b34801561084e57600080fd5b50610857611a93565b60405161086491906139b8565b60405180910390f35b34801561087957600080fd5b50610894600480360381019061088f9190613c69565b611a99565b6040516108a191906135ff565b60405180910390f35b3480156108b657600080fd5b506108d160048036038101906108cc9190613e26565b611ab9565b6040516108de91906135ff565b60405180910390f35b3480156108f357600080fd5b5061090e60048036038101906109099190613794565b611b4d565b005b600061091b82611bb9565b9050919050565b600860009054906101000a900460ff1681565b60606000805461094490613e95565b80601f016020809104026020016040519081016040528092919081815260200182805461097090613e95565b80156109bd5780601f10610992576101008083540402835291602001916109bd565b820191906000526020600020905b8154815290600101906020018083116109a057829003601f168201915b5050505050905090565b60006109d282611c33565b6004600083815260200190815260200160002060009054906101000a900473ffffffffffffffffffffffffffffffffffffffff169050919050565b6000610a18826114ce565b90508073ffffffffffffffffffffffffffffffffffffffff168373ffffffffffffffffffffffffffffffffffffffff1603610a88576040517f08c379a0000000000000000000000000000000000000000000000000000000008152600401610a7f90613f38565b60405180910390fd5b8073ffffffffffffffffffffffffffffffffffffffff16610aa7611c7e565b73ffffffffffffffffffffffffffffffffffffffff161480610ad65750610ad581610ad0611c7e565b611ab9565b5b610b15576040517f08c379a0000000000000000000000000000000000000000000000000000000008152600401610b0c90613fca565b60405180910390fd5b610b1f8383611c86565b505050565b7fa49807205ce4d355092ef5a8a18f56e8913cf4a201fbe287825b095693c21775610b4e81611d3f565b600073ffffffffffffffffffffffffffffffffffffffff168373ffffffffffffffffffffffffffffffffffffffff1603610bbd576040517f08c379a0000000000000000000000000000000000000000000000000000000008152600401610bb490614036565b60405180910390fd5b60008473ffffffffffffffffffffffffffffffffffffffff1663a9059cbb85856040518363ffffffff1660e01b8152600401610bfa929190614056565b6020604051808303816000875af1158015610c19573d6000803e3d6000fd5b505050506040513d601f19601f82011682018060405250810190610c3d9190614094565b905080610c7f576040517f08c379a0000000000000000000000000000000000000000000000000000000008152600401610c769061410d565b60405180910390fd5b8373ffffffffffffffffffffffffffffffffffffffff168573ffffffffffffffffffffffffffffffffffffffff167faca8fb252cde442184e5f10e0f2e6e4029e8cd7717cae63559079610702436aa85604051610cdc91906139b8565b60405180910390a35050505050565b610cfc610cf6611c7e565b82611d53565b610d3b576040517f08c379a0000000000000000000000000000000000000000000000000000000008152600401610d329061419f565b60405180910390fd5b610d46838383611de8565b505050565b600060076000838152602001908152602001600020600101549050919050565b610d736120e1565b600280811115610d8657610d8561361a565b5b600860009054906101000a900460ff166002811115610da857610da761361a565b5b14610de8576040517f08c379a0000000000000000000000000000000000000000000000000000000008152600401610ddf9061420b565b60405180910390fd5b600a54341015610e2d576040517f08c379a0000000000000000000000000000000000000000000000000000000008152600401610e2490614277565b60405180910390fd5b600954600e5410610e73576040517f08c379a0000000000000000000000000000000000000000000000000000000008152600401610e6a906142e3565b60405180910390fd5b610e7c3361212b565b565b600d5481565b610e8d82610d4b565b610e9681611d3f565b610ea083836121b2565b505050565b600b5481565b6000801b8203610ef0576040517f08c379a0000000000000000000000000000000000000000000000000000000008152600401610ee79061434f565b60405180910390fd5b610efa8282612293565b5050565b610f066120e1565b60016002811115610f1a57610f1961361a565b5b600860009054906101000a900460ff166002811115610f3c57610f3b61361a565b5b14610f7c576040517f08c379a0000000000000000000000000000000000000000000000000000000008152600401610f73906143bb565b60405180910390fd5b600f60003373ffffffffffffffffffffffffffffffffffffffff1673ffffffffffffffffffffffffffffffffffffffff16815260200190815260200160002060009054906101000a900460ff1615611009576040517f08c379a000000000000000000000000000000000000000000000000000000000815260040161100090614427565b60405180910390fd5b600b5434101561104e576040517f08c379a000000000000000000000000000000000000000000000000000000000815260040161104590614277565b60405180910390fd5b600954600e5410611094576040517f08c379a000000000000000000000000000000000000000000000000000000000815260040161108b906142e3565b60405180910390fd5b6000336040516020016110a7919061448f565b60405160208183030381529060405280519060200120905061110d838380806020026020016040519081016040528093929190818152602001838360200280828437600081840152601f19601f82011690508083019250505050505050600d5483612316565b61114c576040517f08c379a0000000000000000000000000000000000000000000000000000000008152600401611143906144f6565b60405180910390fd5b6001600f60003373ffffffffffffffffffffffffffffffffffffffff1673ffffffffffffffffffffffffffffffffffffffff16815260200190815260200160002060006101000a81548160ff0219169083151502179055506111ad3361212b565b505050565b7fa49807205ce4d355092ef5a8a18f56e8913cf4a201fbe287825b095693c217756111dc81611d3f565b6111e461232d565b50565b61120283838360405180602001604052806000815250611862565b505050565b61121081612390565b3373ffffffffffffffffffffffffffffffffffffffff167febf58b3208042e45d5e059eaa32ca2cde0bb4d975dc4a3744c96122254ea79558260405161125691906139b8565b60405180910390a250565b7fa49807205ce4d355092ef5a8a18f56e8913cf4a201fbe287825b095693c2177561128b81611d3f565b600073ffffffffffffffffffffffffffffffffffffffff168273ffffffffffffffffffffffffffffffffffffffff16036112fa576040517f08c379a00000000000000000000000000000000000000000000000000000000081526004016112f190614562565b60405180910390fd5b600047905060008111611342576040517f08c379a0000000000000000000000000000000000000000000000000000000008152600401611339906145ce565b60405180910390fd5b60008373ffffffffffffffffffffffffffffffffffffffff16826040516113689061461f565b60006040518083038185875af1925050503d80600081146113a5576040519150601f19603f3d011682016040523d82523d6000602084013e6113aa565b606091505b50509050806113ee576040517f08c379a00000000000000000000000000000000000000000000000000000000081526004016113e590614680565b60405180910390fd5b8373ffffffffffffffffffffffffffffffffffffffff167f7084f5476618d8e60b11ef0d7d3f06914655adb8793e28ff7f018d4c76d505d58360405161143491906139b8565b60405180910390a250505050565b7fa49807205ce4d355092ef5a8a18f56e8913cf4a201fbe287825b095693c2177561146c81611d3f565b81600c908161147b919061484c565b507f6741b2fc379fad678116fe3d4d4b9a1a184ab53ba36b86ad0fa66340b1ab41ad826040516114ab919061373c565b60405180910390a15050565b6000600660009054906101000a900460ff16905090565b6000806114da836123ec565b9050600073ffffffffffffffffffffffffffffffffffffffff168173ffffffffffffffffffffffffffffffffffffffff160361154b576040517f08c379a00000000000000000000000000000000000000000000000000000000081526004016115429061496a565b60405180910390fd5b80915050919050565b600a5481565b60008073ffffffffffffffffffffffffffffffffffffffff168273ffffffffffffffffffffffffffffffffffffffff16036115ca576040517f08c379a00000000000000000000000000000000000000000000000000000000081526004016115c1906149fc565b60405180910390fd5b600360008373ffffffffffffffffffffffffffffffffffffffff1673ffffffffffffffffffffffffffffffffffffffff168152602001908152602001600020549050919050565b7fa49807205ce4d355092ef5a8a18f56e8913cf4a201fbe287825b095693c2177581565b7fa49807205ce4d355092ef5a8a18f56e8913cf4a201fbe287825b095693c2177561165f81611d3f565b81600d819055507f90004c04698bc3322499a575ed3752dd4abf33e0a7294c06a787a0fe01bea94182604051611695919061394e565b60405180910390a15050565b7fa49807205ce4d355092ef5a8a18f56e8913cf4a201fbe287825b095693c217756116cb81611d3f565b6116d3612429565b50565b60006007600084815260200190815260200160002060000160008373ffffffffffffffffffffffffffffffffffffffff1673ffffffffffffffffffffffffffffffffffffffff16815260200190815260200160002060009054906101000a900460ff16905092915050565b60606001805461175090613e95565b80601f016020809104026020016040519081016040528092919081815260200182805461177c90613e95565b80156117c95780601f1061179e576101008083540402835291602001916117c9565b820191906000526020600020905b8154815290600101906020018083116117ac57829003601f168201915b5050505050905090565b6000801b81565b6117ec6117e5611c7e565b838361248c565b5050565b600e5481565b7fa49807205ce4d355092ef5a8a18f56e8913cf4a201fbe287825b095693c2177561182081611d3f565b81600b819055507fa099db76bfe45aed42fd5d0753ef45c663a92745c5b265059e1fdd56efca4d498260405161185691906139b8565b60405180910390a15050565b61187361186d611c7e565b83611d53565b6118b2576040517f08c379a00000000000000000000000000000000000000000000000000000000081526004016118a99061419f565b60405180910390fd5b6118be848484846125f8565b50505050565b7fa49807205ce4d355092ef5a8a18f56e8913cf4a201fbe287825b095693c217756118ee81611d3f565b6002600860009054906101000a900460ff1660028111156119125761191161361a565b5b60ff1610611955576040517f08c379a000000000000000000000000000000000000000000000000000000000815260040161194c90614a68565b60405180910390fd5b6001600860009054906101000a900460ff1660028111156119795761197861361a565b5b6119839190614ac4565b60ff1660028111156119985761199761361a565b5b600860006101000a81548160ff021916908360028111156119bc576119bb61361a565b5b02179055507fd0e47a271d69b0e6e3f9bd81c7c695bfbcb309e6ee66a23e6ad80a8f90190574600860009054906101000a900460ff166040516119ff9190613691565b60405180910390a150565b6060611a1582611c33565b6000611a1f612654565b90506000815111611a3f5760405180602001604052806000815250611a6a565b80611a49846126e6565b604051602001611a5a929190614b35565b6040516020818303038152906040525b915050919050565b611a7b82610d4b565b611a8481611d3f565b611a8e83836127b4565b505050565b60095481565b600f6020528060005260406000206000915054906101000a900460ff1681565b6000600560008473ffffffffffffffffffffffffffffffffffffffff1673ffffffffffffffffffffffffffffffffffffffff16815260200190815260200160002060008373ffffffffffffffffffffffffffffffffffffffff1673ffffffffffffffffffffffffffffffffffffffff16815260200190815260200160002060009054906101000a900460ff16905092915050565b7fa49807205ce4d355092ef5a8a18f56e8913cf4a201fbe287825b095693c21775611b7781611d3f565b81600a819055507f525b762709cc2a983aec5ccdfd807a061f993c91090b5bcd7da92ca254976aaa82604051611bad91906139b8565b60405180910390a15050565b60007f7965db0b000000000000000000000000000000000000000000000000000000007bffffffffffffffffffffffffffffffffffffffffffffffffffffffff1916827bffffffffffffffffffffffffffffffffffffffffffffffffffffffff19161480611c2c5750611c2b82612896565b5b9050919050565b611c3c81612978565b611c7b576040517f08c379a0000000000000000000000000000000000000000000000000000000008152600401611c729061496a565b60405180910390fd5b50565b600033905090565b816004600083815260200190815260200160002060006101000a81548173ffffffffffffffffffffffffffffffffffffffff021916908373ffffffffffffffffffffffffffffffffffffffff160217905550808273ffffffffffffffffffffffffffffffffffffffff16611cf9836114ce565b73ffffffffffffffffffffffffffffffffffffffff167f8c5be1e5ebec7d5bd14f71427d1e84f3dd0314c0f7b2291e5b200ac8c7c3b92560405160405180910390a45050565b611d5081611d4b611c7e565b6129b9565b50565b600080611d5f836114ce565b90508073ffffffffffffffffffffffffffffffffffffffff168473ffffffffffffffffffffffffffffffffffffffff161480611da15750611da08185611ab9565b5b80611ddf57508373ffffffffffffffffffffffffffffffffffffffff16611dc7846109c7565b73ffffffffffffffffffffffffffffffffffffffff16145b91505092915050565b8273ffffffffffffffffffffffffffffffffffffffff16611e08826114ce565b73ffffffffffffffffffffffffffffffffffffffff1614611e5e576040517f08c379a0000000000000000000000000000000000000000000000000000000008152600401611e5590614bcb565b60405180910390fd5b600073ffffffffffffffffffffffffffffffffffffffff168273ffffffffffffffffffffffffffffffffffffffff1603611ecd576040517f08c379a0000000000000000000000000000000000000000000000000000000008152600401611ec490614c5d565b60405180910390fd5b611eda8383836001612a3e565b8273ffffffffffffffffffffffffffffffffffffffff16611efa826114ce565b73ffffffffffffffffffffffffffffffffffffffff1614611f50576040517f08c379a0000000000000000000000000000000000000000000000000000000008152600401611f4790614bcb565b60405180910390fd5b6004600082815260200190815260200160002060006101000a81549073ffffffffffffffffffffffffffffffffffffffff02191690556001600360008573ffffffffffffffffffffffffffffffffffffffff1673ffffffffffffffffffffffffffffffffffffffff168152602001908152602001600020600082825403925050819055506001600360008473ffffffffffffffffffffffffffffffffffffffff1673ffffffffffffffffffffffffffffffffffffffff16815260200190815260200160002060008282540192505081905550816002600083815260200190815260200160002060006101000a81548173ffffffffffffffffffffffffffffffffffffffff021916908373ffffffffffffffffffffffffffffffffffffffff160217905550808273ffffffffffffffffffffffffffffffffffffffff168473ffffffffffffffffffffffffffffffffffffffff167fddf252ad1be2c89b69c2b068fc378daa952ba7f163c4a11628f55a4df523b3ef60405160405180910390a46120dc8383836001612a50565b505050565b6120e96114b7565b15612129576040517f08c379a000000000000000000000000000000000000000000000000000000000815260040161212090614cc9565b60405180910390fd5b565b60006001600e5461213c9190614ce9565b9050600e600081548092919061215190614d1d565b91905055506121608282612a56565b8173ffffffffffffffffffffffffffffffffffffffff167f35366f116e63e323da291fbd01cfcd53069179726cdc03edbd7f8ae1cf86a7f2826040516121a691906139b8565b60405180910390a25050565b6121bc82826116d6565b61228f5760016007600084815260200190815260200160002060000160008373ffffffffffffffffffffffffffffffffffffffff1673ffffffffffffffffffffffffffffffffffffffff16815260200190815260200160002060006101000a81548160ff021916908315150217905550612234611c7e565b73ffffffffffffffffffffffffffffffffffffffff168173ffffffffffffffffffffffffffffffffffffffff16837f2f8788117e7eff1d82e926ec794901d17c78024a50270940304540a733656f0d60405160405180910390a45b5050565b61229b611c7e565b73ffffffffffffffffffffffffffffffffffffffff168173ffffffffffffffffffffffffffffffffffffffff1614612308576040517f08c379a00000000000000000000000000000000000000000000000000000000081526004016122ff90614dd7565b60405180910390fd5b61231282826127b4565b5050565b6000826123238584612a74565b1490509392505050565b612335612aca565b6000600660006101000a81548160ff0219169083151502179055507f5db9ee0a495bf2e6ff9c91a7834c1ba4fdd244a5e8aa4e537bd38aeae4b073aa612379611c7e565b6040516123869190613802565b60405180910390a1565b6123a161239b611c7e565b82611d53565b6123e0576040517f08c379a00000000000000000000000000000000000000000000000000000000081526004016123d79061419f565b60405180910390fd5b6123e981612b13565b50565b60006002600083815260200190815260200160002060009054906101000a900473ffffffffffffffffffffffffffffffffffffffff169050919050565b6124316120e1565b6001600660006101000a81548160ff0219169083151502179055507f62e78cea01bee320cd4e420270b5ea74000d11b0c9f74754ebdbfc544b05a258612475611c7e565b6040516124829190613802565b60405180910390a1565b8173ffffffffffffffffffffffffffffffffffffffff168373ffffffffffffffffffffffffffffffffffffffff16036124fa576040517f08c379a00000000000000000000000000000000000000000000000000000000081526004016124f190614e43565b60405180910390fd5b80600560008573ffffffffffffffffffffffffffffffffffffffff1673ffffffffffffffffffffffffffffffffffffffff16815260200190815260200160002060008473ffffffffffffffffffffffffffffffffffffffff1673ffffffffffffffffffffffffffffffffffffffff16815260200190815260200160002060006101000a81548160ff0219169083151502179055508173ffffffffffffffffffffffffffffffffffffffff168373ffffffffffffffffffffffffffffffffffffffff167f17307eab39ab6107e8899845ad3d59bd9653f200f220920489ca2b5937696c31836040516125eb91906135ff565b60405180910390a3505050565b612603848484611de8565b61260f84848484612c61565b61264e576040517f08c379a000000000000000000000000000000000000000000000000000000000815260040161264590614ed5565b60405180910390fd5b50505050565b6060600c805461266390613e95565b80601f016020809104026020016040519081016040528092919081815260200182805461268f90613e95565b80156126dc5780601f106126b1576101008083540402835291602001916126dc565b820191906000526020600020905b8154815290600101906020018083116126bf57829003601f168201915b5050505050905090565b6060600060016126f584612de8565b01905060008167ffffffffffffffff81111561271457612713613af5565b5b6040519080825280601f01601f1916602001820160405280156127465781602001600182028036833780820191505090505b509050600082602001820190505b6001156127a9578080600190039150507f3031323334353637383961626364656600000000000000000000000000000000600a86061a8153600a858161279d5761279c614ef5565b5b04945060008503612754575b819350505050919050565b6127be82826116d6565b156128925760006007600084815260200190815260200160002060000160008373ffffffffffffffffffffffffffffffffffffffff1673ffffffffffffffffffffffffffffffffffffffff16815260200190815260200160002060006101000a81548160ff021916908315150217905550612837611c7e565b73ffffffffffffffffffffffffffffffffffffffff168173ffffffffffffffffffffffffffffffffffffffff16837ff6391f5c32d9c69d2a47ea670b442974b53935d1edc7fd64eb21e047a839171b60405160405180910390a45b5050565b60007f80ac58cd000000000000000000000000000000000000000000000000000000007bffffffffffffffffffffffffffffffffffffffffffffffffffffffff1916827bffffffffffffffffffffffffffffffffffffffffffffffffffffffff1916148061296157507f5b5e139f000000000000000000000000000000000000000000000000000000007bffffffffffffffffffffffffffffffffffffffffffffffffffffffff1916827bffffffffffffffffffffffffffffffffffffffffffffffffffffffff1916145b80612971575061297082612f3b565b5b9050919050565b60008073ffffffffffffffffffffffffffffffffffffffff1661299a836123ec565b73ffffffffffffffffffffffffffffffffffffffff1614159050919050565b6129c382826116d6565b612a3a576129d081612fa5565b6129de8360001c6020612fd2565b6040516020016129ef929190614fbc565b6040516020818303038152906040526040517f08c379a0000000000000000000000000000000000000000000000000000000008152600401612a31919061373c565b60405180910390fd5b5050565b612a4a8484848461320e565b50505050565b50505050565b612a70828260405180602001604052806000815250613268565b5050565b60008082905060005b8451811015612abf57612aaa82868381518110612a9d57612a9c614ff6565b5b60200260200101516132c3565b91508080612ab790614d1d565b915050612a7d565b508091505092915050565b612ad26114b7565b612b11576040517f08c379a0000000000000000000000000000000000000000000000000000000008152600401612b0890615071565b60405180910390fd5b565b6000612b1e826114ce565b9050612b2e816000846001612a3e565b612b37826114ce565b90506004600083815260200190815260200160002060006101000a81549073ffffffffffffffffffffffffffffffffffffffff02191690556001600360008373ffffffffffffffffffffffffffffffffffffffff1673ffffffffffffffffffffffffffffffffffffffff168152602001908152602001600020600082825403925050819055506002600083815260200190815260200160002060006101000a81549073ffffffffffffffffffffffffffffffffffffffff021916905581600073ffffffffffffffffffffffffffffffffffffffff168273ffffffffffffffffffffffffffffffffffffffff167fddf252ad1be2c89b69c2b068fc378daa952ba7f163c4a11628f55a4df523b3ef60405160405180910390a4612c5d816000846001612a50565b5050565b6000612c828473ffffffffffffffffffffffffffffffffffffffff166132ee565b15612ddb578373ffffffffffffffffffffffffffffffffffffffff1663150b7a02612cab611c7e565b8786866040518563ffffffff1660e01b8152600401612ccd94939291906150e6565b6020604051808303816000875af1925050508015612d0957506040513d601f19601f82011682018060405250810190612d069190615147565b60015b612d8b573d8060008114612d39576040519150601f19603f3d011682016040523d82523d6000602084013e612d3e565b606091505b506000815103612d83576040517f08c379a0000000000000000000000000000000000000000000000000000000008152600401612d7a90614ed5565b60405180910390fd5b805181602001fd5b63150b7a0260e01b7bffffffffffffffffffffffffffffffffffffffffffffffffffffffff1916817bffffffffffffffffffffffffffffffffffffffffffffffffffffffff191614915050612de0565b600190505b949350505050565b600080600090507a184f03e93ff9f4daa797ed6e38ed64bf6a1f0100000000000000008310612e46577a184f03e93ff9f4daa797ed6e38ed64bf6a1f0100000000000000008381612e3c57612e3b614ef5565b5b0492506040810190505b6d04ee2d6d415b85acef81000000008310612e83576d04ee2d6d415b85acef81000000008381612e7957612e78614ef5565b5b0492506020810190505b662386f26fc100008310612eb257662386f26fc100008381612ea857612ea7614ef5565b5b0492506010810190505b6305f5e1008310612edb576305f5e1008381612ed157612ed0614ef5565b5b0492506008810190505b6127108310612f00576127108381612ef657612ef5614ef5565b5b0492506004810190505b60648310612f235760648381612f1957612f18614ef5565b5b0492506002810190505b600a8310612f32576001810190505b80915050919050565b60007f01ffc9a7000000000000000000000000000000000000000000000000000000007bffffffffffffffffffffffffffffffffffffffffffffffffffffffff1916827bffffffffffffffffffffffffffffffffffffffffffffffffffffffff1916149050919050565b6060612fcb8273ffffffffffffffffffffffffffffffffffffffff16601460ff16612fd2565b9050919050565b606060006002836002612fe59190615174565b612fef9190614ce9565b67ffffffffffffffff81111561300857613007613af5565b5b6040519080825280601f01601f19166020018201604052801561303a5781602001600182028036833780820191505090505b5090507f30000000000000000000000000000000000000000000000000000000000000008160008151811061307257613071614ff6565b5b60200101907effffffffffffffffffffffffffffffffffffffffffffffffffffffffffffff1916908160001a9053507f7800000000000000000000000000000000000000000000000000000000000000816001815181106130d6576130d5614ff6565b5b60200101907effffffffffffffffffffffffffffffffffffffffffffffffffffffffffffff1916908160001a905350600060018460026131169190615174565b6131209190614ce9565b90505b60018111156131c0577f3031323334353637383961626364656600000000000000000000000000000000600f86166010811061316257613161614ff6565b5b1a60f81b82828151811061317957613178614ff6565b5b60200101907effffffffffffffffffffffffffffffffffffffffffffffffffffffffffffff1916908160001a905350600485901c9450806131b9906151b6565b9050613123565b5060008414613204576040517f08c379a00000000000000000000000000000000000000000000000000000000081526004016131fb9061522b565b60405180910390fd5b8091505092915050565b61321a84848484613311565b6132226114b7565b15613262576040517f08c379a0000000000000000000000000000000000000000000000000000000008152600401613259906152bd565b60405180910390fd5b50505050565b6132728383613317565b61327f6000848484612c61565b6132be576040517f08c379a00000000000000000000000000000000000000000000000000000000081526004016132b590614ed5565b60405180910390fd5b505050565b60008183106132db576132d68284613534565b6132e6565b6132e58383613534565b5b905092915050565b6000808273ffffffffffffffffffffffffffffffffffffffff163b119050919050565b50505050565b600073ffffffffffffffffffffffffffffffffffffffff168273ffffffffffffffffffffffffffffffffffffffff1603613386576040517f08c379a000000000000000000000000000000000000000000000000000000000815260040161337d90615329565b60405180910390fd5b61338f81612978565b156133cf576040517f08c379a00000000000000000000000000000000000000000000000000000000081526004016133c690615395565b60405180910390fd5b6133dd600083836001612a3e565b6133e681612978565b15613426576040517f08c379a000000000000000000000000000000000000000000000000000000000815260040161341d90615395565b60405180910390fd5b6001600360008473ffffffffffffffffffffffffffffffffffffffff1673ffffffffffffffffffffffffffffffffffffffff16815260200190815260200160002060008282540192505081905550816002600083815260200190815260200160002060006101000a81548173ffffffffffffffffffffffffffffffffffffffff021916908373ffffffffffffffffffffffffffffffffffffffff160217905550808273ffffffffffffffffffffffffffffffffffffffff16600073ffffffffffffffffffffffffffffffffffffffff167fddf252ad1be2c89b69c2b068fc378daa952ba7f163c4a11628f55a4df523b3ef60405160405180910390a4613530600083836001612a50565b5050565b600082600052816020526040600020905092915050565b6000604051905090565b600080fd5b600080fd5b60007fffffffff0000000000000000000000000000000000000000000000000000000082169050919050565b6135948161355f565b811461359f57600080fd5b50565b6000813590506135b18161358b565b92915050565b6000602082840312156135cd576135cc613555565b5b60006135db848285016135a2565b91505092915050565b60008115159050919050565b6135f9816135e4565b82525050565b600060208201905061361460008301846135f0565b92915050565b7f4e487b7100000000000000000000000000000000000000000000000000000000600052602160045260246000fd5b6003811061365a5761365961361a565b5b50565b600081905061366b82613649565b919050565b600061367b8261365d565b9050919050565b61368b81613670565b82525050565b60006020820190506136a66000830184613682565b92915050565b600081519050919050565b600082825260208201905092915050565b60005b838110156136e65780820151818401526020810190506136cb565b60008484015250505050565b6000601f19601f8301169050919050565b600061370e826136ac565b61371881856136b7565b93506137288185602086016136c8565b613731816136f2565b840191505092915050565b600060208201905081810360008301526137568184613703565b905092915050565b6000819050919050565b6137718161375e565b811461377c57600080fd5b50565b60008135905061378e81613768565b92915050565b6000602082840312156137aa576137a9613555565b5b60006137b88482850161377f565b91505092915050565b600073ffffffffffffffffffffffffffffffffffffffff82169050919050565b60006137ec826137c1565b9050919050565b6137fc816137e1565b82525050565b600060208201905061381760008301846137f3565b92915050565b613826816137e1565b811461383157600080fd5b50565b6000813590506138438161381d565b92915050565b600080604083850312156138605761385f613555565b5b600061386e85828601613834565b925050602061387f8582860161377f565b9150509250929050565b6000806000606084860312156138a2576138a1613555565b5b60006138b086828701613834565b93505060206138c186828701613834565b92505060406138d28682870161377f565b9150509250925092565b6000819050919050565b6138ef816138dc565b81146138fa57600080fd5b50565b60008135905061390c816138e6565b92915050565b60006020828403121561392857613927613555565b5b6000613936848285016138fd565b91505092915050565b613948816138dc565b82525050565b6000602082019050613963600083018461393f565b92915050565b600080604083850312156139805761397f613555565b5b600061398e858286016138fd565b925050602061399f85828601613834565b9150509250929050565b6139b28161375e565b82525050565b60006020820190506139cd60008301846139a9565b92915050565b600080fd5b600080fd5b600080fd5b60008083601f8401126139f8576139f76139d3565b5b8235905067ffffffffffffffff811115613a1557613a146139d8565b5b602083019150836020820283011115613a3157613a306139dd565b5b9250929050565b60008060208385031215613a4f57613a4e613555565b5b600083013567ffffffffffffffff811115613a6d57613a6c61355a565b5b613a79858286016139e2565b92509250509250929050565b6000613a90826137c1565b9050919050565b613aa081613a85565b8114613aab57600080fd5b50565b600081359050613abd81613a97565b92915050565b600060208284031215613ad957613ad8613555565b5b6000613ae784828501613aae565b91505092915050565b600080fd5b7f4e487b7100000000000000000000000000000000000000000000000000000000600052604160045260246000fd5b613b2d826136f2565b810181811067ffffffffffffffff82111715613b4c57613b4b613af5565b5b80604052505050565b6000613b5f61354b565b9050613b6b8282613b24565b919050565b600067ffffffffffffffff821115613b8b57613b8a613af5565b5b613b94826136f2565b9050602081019050919050565b82818337600083830152505050565b6000613bc3613bbe84613b70565b613b55565b905082815260208101848484011115613bdf57613bde613af0565b5b613bea848285613ba1565b509392505050565b600082601f830112613c0757613c066139d3565b5b8135613c17848260208601613bb0565b91505092915050565b600060208284031215613c3657613c35613555565b5b600082013567ffffffffffffffff811115613c5457613c5361355a565b5b613c6084828501613bf2565b91505092915050565b600060208284031215613c7f57613c7e613555565b5b6000613c8d84828501613834565b91505092915050565b613c9f816135e4565b8114613caa57600080fd5b50565b600081359050613cbc81613c96565b92915050565b60008060408385031215613cd957613cd8613555565b5b6000613ce785828601613834565b9250506020613cf885828601613cad565b9150509250929050565b600067ffffffffffffffff821115613d1d57613d1c613af5565b5b613d26826136f2565b9050602081019050919050565b6000613d46613d4184613d02565b613b55565b905082815260208101848484011115613d6257613d61613af0565b5b613d6d848285613ba1565b509392505050565b600082601f830112613d8a57613d896139d3565b5b8135613d9a848260208601613d33565b91505092915050565b60008060008060808587031215613dbd57613dbc613555565b5b6000613dcb87828801613834565b9450506020613ddc87828801613834565b9350506040613ded8782880161377f565b925050606085013567ffffffffffffffff811115613e0e57613e0d61355a565b5b613e1a87828801613d75565b91505092959194509250565b60008060408385031215613e3d57613e3c613555565b5b6000613e4b85828601613834565b9250506020613e5c85828601613834565b9150509250929050565b7f4e487b7100000000000000000000000000000000000000000000000000000000600052602260045260246000fd5b60006002820490506001821680613ead57607f821691505b602082108103613ec057613ebf613e66565b5b50919050565b7f4552433732313a20617070726f76616c20746f2063757272656e74206f776e6560008201527f7200000000000000000000000000000000000000000000000000000000000000602082015250565b6000613f226021836136b7565b9150613f2d82613ec6565b604082019050919050565b60006020820190508181036000830152613f5181613f15565b9050919050565b7f4552433732313a20617070726f76652063616c6c6572206973206e6f7420746f60008201527f6b656e206f776e6572206f7220617070726f76656420666f7220616c6c000000602082015250565b6000613fb4603d836136b7565b9150613fbf82613f58565b604082019050919050565b60006020820190508181036000830152613fe381613fa7565b9050919050565b7f43616e6e6f74207265636f76657220746f207a65726f20616464726573730000600082015250565b6000614020601e836136b7565b915061402b82613fea565b602082019050919050565b6000602082019050818103600083015261404f81614013565b9050919050565b600060408201905061406b60008301856137f3565b61407860208301846139a9565b9392505050565b60008151905061408e81613c96565b92915050565b6000602082840312156140aa576140a9613555565b5b60006140b88482850161407f565b91505092915050565b7f546f6b656e207265636f76657279206661696c65640000000000000000000000600082015250565b60006140f76015836136b7565b9150614102826140c1565b602082019050919050565b60006020820190508181036000830152614126816140ea565b9050919050565b7f4552433732313a2063616c6c6572206973206e6f7420746f6b656e206f776e6560008201527f72206f7220617070726f76656400000000000000000000000000000000000000602082015250565b6000614189602d836136b7565b91506141948261412d565b604082019050919050565b600060208201905081810360008301526141b88161417c565b9050919050565b7f5075626c6963207068617365206e6f7420616374697665000000000000000000600082015250565b60006141f56017836136b7565b9150614200826141bf565b602082019050919050565b60006020820190508181036000830152614224816141e8565b9050919050565b7f496e73756666696369656e74207061796d656e74000000000000000000000000600082015250565b60006142616014836136b7565b915061426c8261422b565b602082019050919050565b6000602082019050818103600083015261429081614254565b9050919050565b7f4d617820737570706c7920726561636865640000000000000000000000000000600082015250565b60006142cd6012836136b7565b91506142d882614297565b602082019050919050565b600060208201905081810360008301526142fc816142c0565b9050919050565b7f43616e6e6f742072656e6f756e63652061646d696e20726f6c65000000000000600082015250565b6000614339601a836136b7565b915061434482614303565b602082019050919050565b600060208201905081810360008301526143688161432c565b9050919050565b7f57686974656c697374207068617365206e6f7420616374697665000000000000600082015250565b60006143a5601a836136b7565b91506143b08261436f565b602082019050919050565b600060208201905081810360008301526143d481614398565b9050919050565b7f416c726561647920636c61696d65642077686974656c697374206d696e740000600082015250565b6000614411601e836136b7565b915061441c826143db565b602082019050919050565b6000602082019050818103600083015261444081614404565b9050919050565b60008160601b9050919050565b600061445f82614447565b9050919050565b600061447182614454565b9050919050565b614489614484826137e1565b614466565b82525050565b600061449b8284614478565b60148201915081905092915050565b7f496e76616c6964204d65726b6c652070726f6f66000000000000000000000000600082015250565b60006144e06014836136b7565b91506144eb826144aa565b602082019050919050565b6000602082019050818103600083015261450f816144d3565b9050919050565b7f43616e6e6f7420776974686472617720746f207a65726f206164647265737300600082015250565b600061454c601f836136b7565b915061455782614516565b602082019050919050565b6000602082019050818103600083015261457b8161453f565b9050919050565b7f4e6f7468696e6720746f20776974686472617700000000000000000000000000600082015250565b60006145b86013836136b7565b91506145c382614582565b602082019050919050565b600060208201905081810360008301526145e7816145ab565b9050919050565b600081905092915050565b50565b60006146096000836145ee565b9150614614826145f9565b600082019050919050565b600061462a826145fc565b9150819050919050565b7f5769746864726177206661696c65640000000000000000000000000000000000600082015250565b600061466a600f836136b7565b915061467582614634565b602082019050919050565b600060208201905081810360008301526146998161465d565b9050919050565b60008190508160005260206000209050919050565b60006020601f8301049050919050565b600082821b905092915050565b6000600883026147027fffffffffffffffffffffffffffffffffffffffffffffffffffffffffffffffff826146c5565b61470c86836146c5565b95508019841693508086168417925050509392505050565b6000819050919050565b600061474961474461473f8461375e565b614724565b61375e565b9050919050565b6000819050919050565b6147638361472e565b61477761476f82614750565b8484546146d2565b825550505050565b600090565b61478c61477f565b61479781848461475a565b505050565b5b818110156147bb576147b0600082614784565b60018101905061479d565b5050565b601f821115614800576147d1816146a0565b6147da846146b5565b810160208510156147e9578190505b6147fd6147f5856146b5565b83018261479c565b50505b505050565b600082821c905092915050565b600061482360001984600802614805565b1980831691505092915050565b600061483c8383614812565b9150826002028217905092915050565b614855826136ac565b67ffffffffffffffff81111561486e5761486d613af5565b5b6148788254613e95565b6148838282856147bf565b600060209050601f8311600181146148b657600084156148a4578287015190505b6148ae8582614830565b865550614916565b601f1984166148c4866146a0565b60005b828110156148ec578489015182556001820191506020850194506020810190506148c7565b868310156149095784890151614905601f891682614812565b8355505b6001600288020188555050505b505050505050565b7f4552433732313a20696e76616c696420746f6b656e2049440000000000000000600082015250565b60006149546018836136b7565b915061495f8261491e565b602082019050919050565b6000602082019050818103600083015261498381614947565b9050919050565b7f4552433732313a2061646472657373207a65726f206973206e6f74206120766160008201527f6c6964206f776e65720000000000000000000000000000000000000000000000602082015250565b60006149e66029836136b7565b91506149f18261498a565b604082019050919050565b60006020820190508181036000830152614a15816149d9565b9050919050565b7f416c72656164792061742066696e616c20706861736500000000000000000000600082015250565b6000614a526016836136b7565b9150614a5d82614a1c565b602082019050919050565b60006020820190508181036000830152614a8181614a45565b9050919050565b600060ff82169050919050565b7f4e487b7100000000000000000000000000000000000000000000000000000000600052601160045260246000fd5b6000614acf82614a88565b9150614ada83614a88565b9250828201905060ff811115614af357614af2614a95565b5b92915050565b600081905092915050565b6000614b0f826136ac565b614b198185614af9565b9350614b298185602086016136c8565b80840191505092915050565b6000614b418285614b04565b9150614b4d8284614b04565b91508190509392505050565b7f4552433732313a207472616e736665722066726f6d20696e636f72726563742060008201527f6f776e6572000000000000000000000000000000000000000000000000000000602082015250565b6000614bb56025836136b7565b9150614bc082614b59565b604082019050919050565b60006020820190508181036000830152614be481614ba8565b9050919050565b7f4552433732313a207472616e7366657220746f20746865207a65726f2061646460008201527f7265737300000000000000000000000000000000000000000000000000000000602082015250565b6000614c476024836136b7565b9150614c5282614beb565b604082019050919050565b60006020820190508181036000830152614c7681614c3a565b9050919050565b7f5061757361626c653a2070617573656400000000000000000000000000000000600082015250565b6000614cb36010836136b7565b9150614cbe82614c7d565b602082019050919050565b60006020820190508181036000830152614ce281614ca6565b9050919050565b6000614cf48261375e565b9150614cff8361375e565b9250828201905080821115614d1757614d16614a95565b5b92915050565b6000614d288261375e565b91507fffffffffffffffffffffffffffffffffffffffffffffffffffffffffffffffff8203614d5a57614d59614a95565b5b600182019050919050565b7f416363657373436f6e74726f6c3a2063616e206f6e6c792072656e6f756e636560008201527f20726f6c657320666f722073656c660000000000000000000000000000000000602082015250565b6000614dc1602f836136b7565b9150614dcc82614d65565b604082019050919050565b60006020820190508181036000830152614df081614db4565b9050919050565b7f4552433732313a20617070726f766520746f2063616c6c657200000000000000600082015250565b6000614e2d6019836136b7565b9150614e3882614df7565b602082019050919050565b60006020820190508181036000830152614e5c81614e20565b9050919050565b7f4552433732313a207472616e7366657220746f206e6f6e20455243373231526560008201527f63656976657220696d706c656d656e7465720000000000000000000000000000602082015250565b6000614ebf6032836136b7565b9150614eca82614e63565b604082019050919050565b60006020820190508181036000830152614eee81614eb2565b9050919050565b7f4e487b7100000000000000000000000000000000000000000000000000000000600052601260045260246000fd5b7f416363657373436f6e74726f6c3a206163636f756e7420000000000000000000600082015250565b6000614f5a601783614af9565b9150614f6582614f24565b601782019050919050565b7f206973206d697373696e6720726f6c6520000000000000000000000000000000600082015250565b6000614fa6601183614af9565b9150614fb182614f70565b601182019050919050565b6000614fc782614f4d565b9150614fd38285614b04565b9150614fde82614f99565b9150614fea8284614b04565b91508190509392505050565b7f4e487b7100000000000000000000000000000000000000000000000000000000600052603260045260246000fd5b7f5061757361626c653a206e6f7420706175736564000000000000000000000000600082015250565b600061505b6014836136b7565b915061506682615025565b602082019050919050565b6000602082019050818103600083015261508a8161504e565b9050919050565b600081519050919050565b600082825260208201905092915050565b60006150b882615091565b6150c2818561509c565b93506150d28185602086016136c8565b6150db816136f2565b840191505092915050565b60006080820190506150fb60008301876137f3565b61510860208301866137f3565b61511560408301856139a9565b818103606083015261512781846150ad565b905095945050505050565b6000815190506151418161358b565b92915050565b60006020828403121561515d5761515c613555565b5b600061516b84828501615132565b91505092915050565b600061517f8261375e565b915061518a8361375e565b92508282026151988161375e565b915082820484148315176151af576151ae614a95565b5b5092915050565b60006151c18261375e565b9150600082036151d4576151d3614a95565b5b600182039050919050565b7f537472696e67733a20686578206c656e67746820696e73756666696369656e74600082015250565b60006152156020836136b7565b9150615220826151df565b602082019050919050565b6000602082019050818103600083015261524481615208565b9050919050565b7f4552433732315061757361626c653a20746f6b656e207472616e73666572207760008201527f68696c6520706175736564000000000000000000000000000000000000000000602082015250565b60006152a7602b836136b7565b91506152b28261524b565b604082019050919050565b600060208201905081810360008301526152d68161529a565b9050919050565b7f4552433732313a206d696e7420746f20746865207a65726f2061646472657373600082015250565b60006153136020836136b7565b915061531e826152dd565b602082019050919050565b6000602082019050818103600083015261534281615306565b9050919050565b7f4552433732313a20746f6b656e20616c7265616479206d696e74656400000000600082015250565b600061537f601c836136b7565b915061538a82615349565b602082019050919050565b600060208201905081810360008301526153ae81615372565b905091905056fea264697066735822122048e8ebc6d7560c3778fbe4cf8dc2ecd0152cfc11c3f6c94b233afb0be135eb5e64736f6c63430008130033",
  "linkReferences": {},
  "deployedLinkReferences": {}
}