{
    "_format": "hh-sol-artifact-1",
    "contractName": "TokenGovernance",
    "sourceName": "contracts/TokenGovernance.sol",
    "abi": [
        {
            "inputs": [
                {
                    "internalType": "contract IVotes",
                    "name": "_token",
                    "type": "address"
                },
                {
                    "internalType": "contract TimelockController",
                    "name": "_timelock",
                    "type": "address"
                }
            ],
            "stateMutability": "nonpayable",
            "type": "constructor"
        },
        {
            "inputs": [],
            "name": "Empty",
            "type": "error"
        },
        {
            "inputs": [],
            "name": "InvalidShortString",
            "type": "error"
        },
        {
            "inputs": [
                {
                    "internalType": "string",
                    "name": "str",
                    "type": "string"
                }
            ],
            "name": "StringTooLong",
            "type": "error"
        },
        {
            "anonymous": false,
            "inputs": [],
            "name": "EIP712DomainChanged",
            "type": "event"
        },
        {
            "anonymous": false,
            "inputs": [
                {
                    "indexed": true,
                    "internalType": "address",
                    "name": "voter",
                    "type": "address"
                },
                {
                    "indexed": false,
                    "internalType": "uint256",
                    "name": "proposalId",
                    "type": "uint256"
                },
                {
                    "indexed": false,
                    "internalType": "uint8",
                    "name": "support",
                    "type": "uint8"
                },
                {
                    "indexed": false,
                    "internalType": "uint256",
                    "name": "weight",
                    "type": "uint256"
                }
            ],
            "name": "GovernorVoteCast",
            "type": "event"
        },
        {
            "anonymous": false,
            "inputs": [
                {
                    "indexed": false,
                    "internalType": "uint256",
                    "name": "proposalId",
                    "type": "uint256"
                }
            ],
            "name": "ProposalCanceled",
            "type": "event"
        },
        {
            "anonymous": false,
            "inputs": [
                {
                    "indexed": false,
                    "internalType": "uint256",
                    "name": "proposalId",
                    "type": "uint256"
                }
            ],
            "name": "ProposalCanceledWithId",
            "type": "event"
        },
        {
            "anonymous": false,
            "inputs": [
                {
                    "indexed": false,
                    "internalType": "uint256",
                    "name": "proposalId",
                    "type": "uint256"
                },
                {
                    "indexed": false,
                    "internalType": "address",
                    "name": "proposer",
                    "type": "address"
                },
                {
                    "indexed": false,
                    "internalType": "address[]",
                    "name": "targets",
                    "type": "address[]"
                },
                {
                    "indexed": false,
                    "internalType": "uint256[]",
                    "name": "values",
                    "type": "uint256[]"
                },
                {
                    "indexed": false,
                    "internalType": "string[]",
                    "name": "signatures",
                    "type": "string[]"
                },
                {
                    "indexed": false,
                    "internalType": "bytes[]",
                    "name": "calldatas",
                    "type": "bytes[]"
                },
                {
                    "indexed": false,
                    "internalType": "uint256",
                    "name": "voteStart",
                    "type": "uint256"
                },
                {
                    "indexed": false,
                    "internalType": "uint256",
                    "name": "voteEnd",
                    "type": "uint256"
                },
                {
                    "indexed": false,
                    "internalType": "string",
                    "name": "description",
                    "type": "string"
                }
            ],
            "name": "ProposalCreated",
            "type": "event"
        },
        {
            "anonymous": false,
            "inputs": [
                {
                    "indexed": false,
                    "internalType": "uint256",
                    "name": "proposalId",
                    "type": "uint256"
                },
                {
                    "indexed": false,
                    "internalType": "string",
                    "name": "description",
                    "type": "string"
                }
            ],
            "name": "ProposalCreatedWithDescription",
            "type": "event"
        },
        {
            "anonymous": false,
            "inputs": [
                {
                    "indexed": false,
                    "internalType": "uint256",
                    "name": "proposalId",
                    "type": "uint256"
                }
            ],
            "name": "ProposalExecuted",
            "type": "event"
        },
        {
            "anonymous": false,
            "inputs": [
                {
                    "indexed": false,
                    "internalType": "uint256",
                    "name": "proposalId",
                    "type": "uint256"
                }
            ],
            "name": "ProposalExecutedWithId",
            "type": "event"
        },
        {
            "anonymous": false,
            "inputs": [
                {
                    "indexed": false,
                    "internalType": "uint256",
                    "name": "proposalId",
                    "type": "uint256"
                },
                {
                    "indexed": false,
                    "internalType": "uint256",
                    "name": "eta",
                    "type": "uint256"
                }
            ],
            "name": "ProposalQueued",
            "type": "event"
        },
        {
            "anonymous": false,
            "inputs": [
                {
                    "indexed": false,
                    "internalType": "uint256",
                    "name": "oldProposalThreshold",
                    "type": "uint256"
                },
                {
                    "indexed": false,
                    "internalType": "uint256",
                    "name": "newProposalThreshold",
                    "type": "uint256"
                }
            ],
            "name": "ProposalThresholdSet",
            "type": "event"
        },
        {
            "anonymous": false,
            "inputs": [
                {
                    "indexed": false,
                    "internalType": "uint256",
                    "name": "oldQuorumNumerator",
                    "type": "uint256"
                },
                {
                    "indexed": false,
                    "internalType": "uint256",
                    "name": "newQuorumNumerator",
                    "type": "uint256"
                }
            ],
            "name": "QuorumNumeratorUpdated",
            "type": "event"
        },
        {
            "anonymous": false,
            "inputs": [
                {
                    "indexed": false,
                    "internalType": "address",
                    "name": "oldTimelock",
                    "type": "address"
                },
                {
                    "indexed": false,
                    "internalType": "address",
                    "name": "newTimelock",
                    "type": "address"
                }
            ],
            "name": "TimelockChange",
            "type": "event"
        },
        {
            "anonymous": false,
            "inputs": [
                {
                    "indexed": true,
                    "internalType": "address",
                    "name": "voter",
                    "type": "address"
                },
                {
                    "indexed": false,
                    "internalType": "uint256",
                    "name": "proposalId",
                    "type": "uint256"
                },
                {
                    "indexed": false,
                    "internalType": "uint8",
                    "name": "support",
                    "type": "uint8"
                },
                {
                    "indexed": false,
                    "internalType": "uint256",
                    "name": "weight",
                    "type": "uint256"
                },
                {
                    "indexed": false,
                    "internalType": "string",
                    "name": "reason",
                    "type": "string"
                }
            ],
            "name": "VoteCast",
            "type": "event"
        },
        {
            "anonymous": false,
            "inputs": [
                {
                    "indexed": true,
                    "internalType": "address",
                    "name": "voter",
                    "type": "address"
                },
                {
                    "indexed": false,
                    "internalType": "uint256",
                    "name": "proposalId",
                    "type": "uint256"
                },
                {
                    "indexed": false,
                    "internalType": "uint8",
                    "name": "support",
                    "type": "uint8"
                },
                {
                    "indexed": false,
                    "internalType": "uint256",
                    "name": "weight",
                    "type": "uint256"
                },
                {
                    "indexed": false,
                    "internalType": "string",
                    "name": "reason",
                    "type": "string"
                },
                {
                    "indexed": false,
                    "internalType": "bytes",
                    "name": "params",
                    "type": "bytes"
                }
            ],
            "name": "VoteCastWithParams",
            "type": "event"
        },
        {
            "anonymous": false,
            "inputs": [
                {
                    "indexed": false,
                    "internalType": "uint256",
                    "name": "oldVotingDelay",
                    "type": "uint256"
                },
                {
                    "indexed": false,
                    "internalType": "uint256",
                    "name": "newVotingDelay",
                    "type": "uint256"
                }
            ],
            "name": "VotingDelaySet",
            "type": "event"
        },
        {
            "anonymous": false,
            "inputs": [
                {
                    "indexed": false,
                    "internalType": "uint256",
                    "name": "oldVotingPeriod",
                    "type": "uint256"
                },
                {
                    "indexed": false,
                    "internalType": "uint256",
                    "name": "newVotingPeriod",
                    "type": "uint256"
                }
            ],
            "name": "VotingPeriodSet",
            "type": "event"
        },
        {
            "inputs": [],
            "name": "BALLOT_TYPEHASH",
            "outputs": [
                {
                    "internalType": "bytes32",
                    "name": "",
                    "type": "bytes32"
                }
            ],
            "stateMutability": "view",
            "type": "function"
        },
        {
            "inputs": [],
            "name": "CLOCK_MODE",
            "outputs": [
                {
                    "internalType": "string",
                    "name": "",
                    "type": "string"
                }
            ],
            "stateMutability": "view",
            "type": "function"
        },
        {
            "inputs": [],
            "name": "COUNTING_MODE",
            "outputs": [
                {
                    "internalType": "string",
                    "name": "",
                    "type": "string"
                }
            ],
            "stateMutability": "pure",
            "type": "function"
        },
        {
            "inputs": [],
            "name": "EXTENDED_BALLOT_TYPEHASH",
            "outputs": [
                {
                    "internalType": "bytes32",
                    "name": "",
                    "type": "bytes32"
                }
            ],
            "stateMutability": "view",
            "type": "function"
        },
        {
            "inputs": [
                {
                    "internalType": "address[]",
                    "name": "targets",
                    "type": "address[]"
                },
                {
                    "internalType": "uint256[]",
                    "name": "values",
                    "type": "uint256[]"
                },
                {
                    "internalType": "bytes[]",
                    "name": "calldatas",
                    "type": "bytes[]"
                },
                {
                    "internalType": "bytes32",
                    "name": "descriptionHash",
                    "type": "bytes32"
                }
            ],
            "name": "cancel",
            "outputs": [
                {
                    "internalType": "uint256",
                    "name": "",
                    "type": "uint256"
                }
            ],
            "stateMutability": "nonpayable",
            "type": "function"
        },
        {
            "inputs": [
                {
                    "internalType": "uint256",
                    "name": "proposalId",
                    "type": "uint256"
                },
                {
                    "internalType": "uint8",
                    "name": "support",
                    "type": "uint8"
                }
            ],
            "name": "castVote",
            "outputs": [
                {
                    "internalType": "uint256",
                    "name": "",
                    "type": "uint256"
                }
            ],
            "stateMutability": "nonpayable",
            "type": "function"
        },
        {
            "inputs": [
                {
                    "internalType": "uint256",
                    "name": "proposalId",
                    "type": "uint256"
                },
                {
                    "internalType": "uint8",
                    "name": "support",
                    "type": "uint8"
                },
                {
                    "internalType": "uint8",
                    "name": "v",
                    "type": "uint8"
                },
                {
                    "internalType": "bytes32",
                    "name": "r",
                    "type": "bytes32"
                },
                {
                    "internalType": "bytes32",
                    "name": "s",
                    "type": "bytes32"
                }
            ],
            "name": "castVoteBySig",
            "outputs": [
                {
                    "internalType": "uint256",
                    "name": "",
                    "type": "uint256"
                }
            ],
            "stateMutability": "nonpayable",
            "type": "function"
        },
        {
            "inputs": [
                {
                    "internalType": "uint256",
                    "name": "proposalId",
                    "type": "uint256"
                },
                {
                    "internalType": "uint8",
                    "name": "support",
                    "type": "uint8"
                },
                {
                    "internalType": "string",
                    "name": "reason",
                    "type": "string"
                }
            ],
            "name": "castVoteWithReason",
            "outputs": [
                {
                    "internalType": "uint256",
                    "name": "",
                    "type": "uint256"
                }
            ],
            "stateMutability": "nonpayable",
            "type": "function"
        },
        {
            "inputs": [
                {
                    "internalType": "uint256",
                    "name": "proposalId",
                    "type": "uint256"
                },
                {
                    "internalType": "uint8",
                    "name": "support",
                    "type": "uint8"
                },
                {
                    "internalType": "string",
                    "name": "reason",
                    "type": "string"
                },
                {
                    "internalType": "bytes",
                    "name": "params",
                    "type": "bytes"
                }
            ],
            "name": "castVoteWithReasonAndParams",
            "outputs": [
                {
                    "internalType": "uint256",
                    "name": "",
                    "type": "uint256"
                }
            ],
            "stateMutability": "nonpayable",
            "type": "function"
        },
        {
            "inputs": [
                {
                    "internalType": "uint256",
                    "name": "proposalId",
                    "type": "uint256"
                },
                {
                    "internalType": "uint8",
                    "name": "support",
                    "type": "uint8"
                },
                {
                    "internalType": "string",
                    "name": "reason",
                    "type": "string"
                },
                {
                    "internalType": "bytes",
                    "name": "params",
                    "type": "bytes"
                },
                {
                    "internalType": "uint8",
                    "name": "v",
                    "type": "uint8"
                },
                {
                    "internalType": "bytes32",
                    "name": "r",
                    "type": "bytes32"
                },
                {
                    "internalType": "bytes32",
                    "name": "s",
                    "type": "bytes32"
                }
            ],
            "name": "castVoteWithReasonAndParamsBySig",
            "outputs": [
                {
                    "internalType": "uint256",
                    "name": "",
                    "type": "uint256"
                }
            ],
            "stateMutability": "nonpayable",
            "type": "function"
        },
        {
            "inputs": [],
            "name": "clock",
            "outputs": [
                {
                    "internalType": "uint48",
                    "name": "",
                    "type": "uint48"
                }
            ],
            "stateMutability": "view",
            "type": "function"
        },
        {
            "inputs": [],
            "name": "eip712Domain",
            "outputs": [
                {
                    "internalType": "bytes1",
                    "name": "fields",
                    "type": "bytes1"
                },
                {
                    "internalType": "string",
                    "name": "name",
                    "type": "string"
                },
                {
                    "internalType": "string",
                    "name": "version",
                    "type": "string"
                },
                {
                    "internalType": "uint256",
                    "name": "chainId",
                    "type": "uint256"
                },
                {
                    "internalType": "address",
                    "name": "verifyingContract",
                    "type": "address"
                },
                {
                    "internalType": "bytes32",
                    "name": "salt",
                    "type": "bytes32"
                },
                {
                    "internalType": "uint256[]",
                    "name": "extensions",
                    "type": "uint256[]"
                }
            ],
            "stateMutability": "view",
            "type": "function"
        },
        {
            "inputs": [
                {
                    "internalType": "address[]",
                    "name": "targets",
                    "type": "address[]"
                },
                {
                    "internalType": "uint256[]",
                    "name": "values",
                    "type": "uint256[]"
                },
                {
                    "internalType": "bytes[]",
                    "name": "calldatas",
                    "type": "bytes[]"
                },
                {
                    "internalType": "bytes32",
                    "name": "descriptionHash",
                    "type": "bytes32"
                }
            ],
            "name": "execute",
            "outputs": [
                {
                    "internalType": "uint256",
                    "name": "",
                    "type": "uint256"
                }
            ],
            "stateMutability": "payable",
            "type": "function"
        },
        {
            "inputs": [
                {
                    "internalType": "address",
                    "name": "account",
                    "type": "address"
                },
                {
                    "internalType": "uint256",
                    "name": "timepoint",
                    "type": "uint256"
                }
            ],
            "name": "getVotes",
            "outputs": [
                {
                    "internalType": "uint256",
                    "name": "",
                    "type": "uint256"
                }
            ],
            "stateMutability": "view",
            "type": "function"
        },
        {
            "inputs": [
                {
                    "internalType": "address",
                    "name": "account",
                    "type": "address"
                },
                {
                    "internalType": "uint256",
                    "name": "timepoint",
                    "type": "uint256"
                },
                {
                    "internalType": "bytes",
                    "name": "params",
                    "type": "bytes"
                }
            ],
            "name": "getVotesWithParams",
            "outputs": [
                {
                    "internalType": "uint256",
                    "name": "",
                    "type": "uint256"
                }
            ],
            "stateMutability": "view",
            "type": "function"
        },
        {
            "inputs": [
                {
                    "internalType": "uint256",
                    "name": "proposalId",
                    "type": "uint256"
                },
                {
                    "internalType": "address",
                    "name": "account",
                    "type": "address"
                }
            ],
            "name": "hasVoted",
            "outputs": [
                {
                    "internalType": "bool",
                    "name": "",
                    "type": "bool"
                }
            ],
            "stateMutability": "view",
            "type": "function"
        },
        {
            "inputs": [
                {
                    "internalType": "address[]",
                    "name": "targets",
                    "type": "address[]"
                },
                {
                    "internalType": "uint256[]",
                    "name": "values",
                    "type": "uint256[]"
                },
                {
                    "internalType": "bytes[]",
                    "name": "calldatas",
                    "type": "bytes[]"
                },
                {
                    "internalType": "bytes32",
                    "name": "descriptionHash",
                    "type": "bytes32"
                }
            ],
            "name": "hashProposal",
            "outputs": [
                {
                    "internalType": "uint256",
                    "name": "",
                    "type": "uint256"
                }
            ],
            "stateMutability": "pure",
            "type": "function"
        },
        {
            "inputs": [],
            "name": "name",
            "outputs": [
                {
                    "internalType": "string",
                    "name": "",
                    "type": "string"
                }
            ],
            "stateMutability": "view",
            "type": "function"
        },
        {
            "inputs": [
                {
                    "internalType": "address",
                    "name": "",
                    "type": "address"
                },
                {
                    "internalType": "address",
                    "name": "",
                    "type": "address"
                },
                {
                    "internalType": "uint256[]",
                    "name": "",
                    "type": "uint256[]"
                },
                {
                    "internalType": "uint256[]",
                    "name": "",
                    "type": "uint256[]"
                },
                {
                    "internalType": "bytes",
                    "name": "",
                    "type": "bytes"
                }
            ],
            "name": "onERC1155BatchReceived",
            "outputs": [
                {
                    "internalType": "bytes4",
                    "name": "",
                    "type": "bytes4"
                }
            ],
            "stateMutability": "nonpayable",
            "type": "function"
        },
        {
            "inputs": [
                {
                    "internalType": "address",
                    "name": "",
                    "type": "address"
                },
                {
                    "internalType": "address",
                    "name": "",
                    "type": "address"
                },
                {
                    "internalType": "uint256",
                    "name": "",
                    "type": "uint256"
                },
                {
                    "internalType": "uint256",
                    "name": "",
                    "type": "uint256"
                },
                {
                    "internalType": "bytes",
                    "name": "",
                    "type": "bytes"
                }
            ],
            "name": "onERC1155Received",
            "outputs": [
                {
                    "internalType": "bytes4",
                    "name": "",
                    "type": "bytes4"
                }
            ],
            "stateMutability": "nonpayable",
            "type": "function"
        },
        {
            "inputs": [
                {
                    "internalType": "address",
                    "name": "",
                    "type": "address"
                },
                {
                    "internalType": "address",
                    "name": "",
                    "type": "address"
                },
                {
                    "internalType": "uint256",
                    "name": "",
                    "type": "uint256"
                },
                {
                    "internalType": "bytes",
                    "name": "",
                    "type": "bytes"
                }
            ],
            "name": "onERC721Received",
            "outputs": [
                {
                    "internalType": "bytes4",
                    "name": "",
                    "type": "bytes4"
                }
            ],
            "stateMutability": "nonpayable",
            "type": "function"
        },
        {
            "inputs": [
                {
                    "internalType": "uint256",
                    "name": "proposalId",
                    "type": "uint256"
                }
            ],
            "name": "proposalDeadline",
            "outputs": [
                {
                    "internalType": "uint256",
                    "name": "",
                    "type": "uint256"
                }
            ],
            "stateMutability": "view",
            "type": "function"
        },
        {
            "inputs": [
                {
                    "internalType": "uint256",
                    "name": "proposalId",
                    "type": "uint256"
                }
            ],
            "name": "proposalEta",
            "outputs": [
                {
                    "internalType": "uint256",
                    "name": "",
                    "type": "uint256"
                }
            ],
            "stateMutability": "view",
            "type": "function"
        },
        {
            "inputs": [
                {
                    "internalType": "uint256",
                    "name": "proposalId",
                    "type": "uint256"
                }
            ],
            "name": "proposalProposer",
            "outputs": [
                {
                    "internalType": "address",
                    "name": "",
                    "type": "address"
                }
            ],
            "stateMutability": "view",
            "type": "function"
        },
        {
            "inputs": [
                {
                    "internalType": "uint256",
                    "name": "proposalId",
                    "type": "uint256"
                }
            ],
            "name": "proposalSnapshot",
            "outputs": [
                {
                    "internalType": "uint256",
                    "name": "",
                    "type": "uint256"
                }
            ],
            "stateMutability": "view",
            "type": "function"
        },
        {
            "inputs": [],
            "name": "proposalThreshold",
            "outputs": [
                {
                    "internalType": "uint256",
                    "name": "",
                    "type": "uint256"
                }
            ],
            "stateMutability": "view",
            "type": "function"
        },
        {
            "inputs": [
                {
                    "internalType": "uint256",
                    "name": "proposalId",
                    "type": "uint256"
                }
            ],
            "name": "proposalVotes",
            "outputs": [
                {
                    "internalType": "uint256",
                    "name": "againstVotes",
                    "type": "uint256"
                },
                {
                    "internalType": "uint256",
                    "name": "forVotes",
                    "type": "uint256"
                },
                {
                    "internalType": "uint256",
                    "name": "abstainVotes",
                    "type": "uint256"
                }
            ],
            "stateMutability": "view",
            "type": "function"
        },
        {
            "inputs": [
                {
                    "internalType": "address[]",
                    "name": "targets",
                    "type": "address[]"
                },
                {
                    "internalType": "uint256[]",
                    "name": "values",
                    "type": "uint256[]"
                },
                {
                    "internalType": "bytes[]",
                    "name": "calldatas",
                    "type": "bytes[]"
                },
                {
                    "internalType": "string",
                    "name": "description",
                    "type": "string"
                }
            ],
            "name": "propose",
            "outputs": [
                {
                    "internalType": "uint256",
                    "name": "",
                    "type": "uint256"
                }
            ],
            "stateMutability": "nonpayable",
            "type": "function"
        },
        {
            "inputs": [
                {
                    "internalType": "address[]",
                    "name": "targets",
                    "type": "address[]"
                },
                {
                    "internalType": "uint256[]",
                    "name": "values",
                    "type": "uint256[]"
                },
                {
                    "internalType": "bytes[]",
                    "name": "calldatas",
                    "type": "bytes[]"
                },
                {
                    "internalType": "bytes32",
                    "name": "descriptionHash",
                    "type": "bytes32"
                }
            ],
            "name": "queue",
            "outputs": [
                {
                    "internalType": "uint256",
                    "name": "",
                    "type": "uint256"
                }
            ],
            "stateMutability": "nonpayable",
            "type": "function"
        },
        {
            "inputs": [
                {
                    "internalType": "uint256",
                    "name": "blockNumber",
                    "type": "uint256"
                }
            ],
            "name": "quorum",
            "outputs": [
                {
                    "internalType": "uint256",
                    "name": "",
                    "type": "uint256"
                }
            ],
            "stateMutability": "view",
            "type": "function"
        },
        {
            "inputs": [],
            "name": "quorumDenominator",
            "outputs": [
                {
                    "internalType": "uint256",
                    "name": "",
                    "type": "uint256"
                }
            ],
            "stateMutability": "view",
            "type": "function"
        },
        {
            "inputs": [
                {
                    "internalType": "uint256",
                    "name": "timepoint",
                    "type": "uint256"
                }
            ],
            "name": "quorumNumerator",
            "outputs": [
                {
                    "internalType": "uint256",
                    "name": "",
                    "type": "uint256"
                }
            ],
            "stateMutability": "view",
            "type": "function"
        },
        {
            "inputs": [],
            "name": "quorumNumerator",
            "outputs": [
                {
                    "internalType": "uint256",
                    "name": "",
                    "type": "uint256"
                }
            ],
            "stateMutability": "view",
            "type": "function"
        },
        {
            "inputs": [
                {
                    "internalType": "address",
                    "name": "target",
                    "type": "address"
                },
                {
                    "internalType": "uint256",
                    "name": "value",
                    "type": "uint256"
                },
                {
                    "internalType": "bytes",
                    "name": "data",
                    "type": "bytes"
                }
            ],
            "name": "relay",
            "outputs": [],
            "stateMutability": "payable",
            "type": "function"
        },
        {
            "inputs": [
                {
                    "internalType": "uint256",
                    "name": "newProposalThreshold",
                    "type": "uint256"
                }
            ],
            "name": "setProposalThreshold",
            "outputs": [],
            "stateMutability": "nonpayable",
            "type": "function"
        },
        {
            "inputs": [
                {
                    "internalType": "uint256",
                    "name": "newVotingDelay",
                    "type": "uint256"
                }
            ],
            "name": "setVotingDelay",
            "outputs": [],
            "stateMutability": "nonpayable",
            "type": "function"
        },
        {
            "inputs": [
                {
                    "internalType": "uint256",
                    "name": "newVotingPeriod",
                    "type": "uint256"
                }
            ],
            "name": "setVotingPeriod",
            "outputs": [],
            "stateMutability": "nonpayable",
            "type": "function"
        },
        {
            "inputs": [
                {
                    "internalType": "uint256",
                    "name": "proposalId",
                    "type": "uint256"
                }
            ],
            "name": "state",
            "outputs": [
                {
                    "internalType": "enum IGovernor.ProposalState",
                    "name": "",
                    "type": "uint8"
                }
            ],
            "stateMutability": "view",
            "type": "function"
        },
        {
            "inputs": [
                {
                    "internalType": "bytes4",
                    "name": "interfaceId",
                    "type": "bytes4"
                }
            ],
            "name": "supportsInterface",
            "outputs": [
                {
                    "internalType": "bool",
                    "name": "",
                    "type": "bool"
                }
            ],
            "stateMutability": "view",
            "type": "function"
        },
        {
            "inputs": [],
            "name": "timelock",
            "outputs": [
                {
                    "internalType": "address",
                    "name": "",
                    "type": "address"
                }
            ],
            "stateMutability": "view",
            "type": "function"
        },
        {
            "inputs": [],
            "name": "token",
            "outputs": [
                {
                    "internalType": "contract IERC5805",
                    "name": "",
                    "type": "address"
                }
            ],
            "stateMutability": "view",
            "type": "function"
        },
        {
            "inputs": [
                {
                    "internalType": "uint256",
                    "name": "newQuorumNumerator",
                    "type": "uint256"
                }
            ],
            "name": "updateQuorumNumerator",
            "outputs": [],
            "stateMutability": "nonpayable",
            "type": "function"
        },
        {
            "inputs": [
                {
                    "internalType": "contract TimelockController",
                    "name": "newTimelock",
                    "type": "address"
                }
            ],
            "name": "updateTimelock",
            "outputs": [],
            "stateMutability": "nonpayable",
            "type": "function"
        },
        {
            "inputs": [],
            "name": "version",
            "outputs": [
                {
                    "internalType": "string",
                    "name": "",
                    "type": "string"
                }
            ],
            "stateMutability": "view",
            "type": "function"
        },
        {
            "inputs": [],
            "name": "votingDelay",
            "outputs": [
                {
                    "internalType": "uint256",
                    "name": "",
                    "type": "uint256"
                }
            ],
            "stateMutability": "view",
            "type": "function"
        },
        {
            "inputs": [],
            "name": "votingPeriod",
            "outputs": [
                {
                    "internalType": "uint256",
                    "name": "",
                    "type": "uint256"
                }
            ],
            "stateMutability": "view",
            "type": "function"
        },
        {
            "stateMutability": "payable",
            "type": "receive"
        }
    ],
    "bytecode": "0x6101806040523480156200001257600080fd5b506040516200552d3803806200552d83398101604081905262000035916200095a565b80600483611c2061c4e0683635c9adc5dea000006040518060400160405280600f81526020016e546f6b656e476f7665726e616e636560881b81525080620000826200019960201b60201c565b6200008f826000620001b4565b61012052620000a0816001620001b4565b61014052815160208084019190912060e052815190820120610100524660a0526200012e60e05161010051604080517f8b73c3c69bb8fe3d512ecc4cf759cc79239f7b179b0ffacaa9a75d522b39400f60208201529081019290925260608201524660808201523060a082015260009060c00160405160208183030381529060405280519060200120905090565b60805250503060c052600262000145828262000a3e565b5062000153905083620001ed565b6200015e826200022e565b6200016981620002d5565b5050506001600160a01b031661016052620001848162000316565b50620001908162000495565b50505062000bcb565b6040805180820190915260018152603160f81b602082015290565b6000602083511015620001d457620001cc83620004fe565b9050620001e7565b81620001e1848262000a3e565b5060ff90505b92915050565b60065460408051918252602082018390527fc565b045403dc03c2eea82b81a0465edad9e2e7fc4d97e11421c209da93d7a93910160405180910390a1600655565b60008111620002945760405162461bcd60e51b815260206004820152602760248201527f476f7665726e6f7253657474696e67733a20766f74696e6720706572696f6420604482015266746f6f206c6f7760c81b60648201526084015b60405180910390fd5b60075460408051918252602082018390527f7e3f7f0708a84de9203036abaa450dccc85ad5ff52f78c170f3edb55cf5e8828910160405180910390a1600755565b60085460408051918252602082018390527fccb45da8d5717e6c4544694297c4ba5cf151d455c9bb0ed4fc7a38411bc05461910160405180910390a1600855565b60648111156200039b5760405162461bcd60e51b815260206004820152604360248201527f476f7665726e6f72566f74657351756f72756d4672616374696f6e3a2071756f60448201527f72756d4e756d657261746f72206f7665722071756f72756d44656e6f6d696e616064820152623a37b960e91b608482015260a4016200028b565b6000620003a762000541565b90508015801590620003b95750600b54155b1562000421576040805180820190915260008152600b9060208101620003df8462000570565b6001600160e01b0390811690915282546001810184556000938452602093849020835194909301519091166401000000000263ffffffff909316929092179101555b620004566200044162000433620005df565b65ffffffffffff1662000656565b6200044c8462000570565b600b9190620006bd565b505060408051828152602081018490527f0553476bf02ef2726e8ce5ced78d63e26e602e4a2257b1f559418e24b4633997910160405180910390a15050565b600c54604080516001600160a01b03928316815291831660208301527f08f74ea46ef7894f65eabfb5e6e695de773a000b47c529ab559178069b226401910160405180910390a1600c80546001600160a01b0319166001600160a01b0392909216919091179055565b600080829050601f815111156200052c578260405163305a27a960e01b81526004016200028b919062000b0a565b8051620005398262000b5a565b179392505050565b600b5460009015620005675762000559600b620006da565b6001600160e01b0316905090565b600a545b905090565b60006001600160e01b03821115620005db5760405162461bcd60e51b815260206004820152602760248201527f53616665436173743a2076616c756520646f65736e27742066697420696e20326044820152663234206269747360c81b60648201526084016200028b565b5090565b6000610160516001600160a01b03166391ddadf46040518163ffffffff1660e01b8152600401602060405180830381865afa92505050801562000641575060408051601f3d908101601f191682019092526200063e9181019062000b7f565b60015b62000651576200056b4362000728565b919050565b600063ffffffff821115620005db5760405162461bcd60e51b815260206004820152602660248201527f53616665436173743a2076616c756520646f65736e27742066697420696e203360448201526532206269747360d01b60648201526084016200028b565b600080620006cd85858562000791565b915091505b935093915050565b805460009080156200071e576200070683620006f860018462000ba9565b600091825260209091200190565b5464010000000090046001600160e01b031662000721565b60005b9392505050565b600065ffffffffffff821115620005db5760405162461bcd60e51b815260206004820152602660248201527f53616665436173743a2076616c756520646f65736e27742066697420696e203460448201526538206269747360d01b60648201526084016200028b565b825460009081908015620008e6576000620007b387620006f860018562000ba9565b60408051808201909152905463ffffffff8082168084526401000000009092046001600160e01b031660208401529192509087161015620008375760405162461bcd60e51b815260206004820152601b60248201527f436865636b706f696e743a2064656372656173696e67206b657973000000000060448201526064016200028b565b805163ffffffff8088169116036200088557846200085c88620006f860018662000ba9565b80546001600160e01b03929092166401000000000263ffffffff909216919091179055620008d5565b6040805180820190915263ffffffff80881682526001600160e01b0380881660208085019182528b54600181018d5560008d81529190912094519151909216640100000000029216919091179101555b602001519250839150620006d29050565b50506040805180820190915263ffffffff80851682526001600160e01b0380851660208085019182528854600181018a5560008a815291822095519251909316640100000000029190931617920191909155905081620006d2565b6001600160a01b03811681146200095757600080fd5b50565b600080604083850312156200096e57600080fd5b82516200097b8162000941565b60208401519092506200098e8162000941565b809150509250929050565b634e487b7160e01b600052604160045260246000fd5b600181811c90821680620009c457607f821691505b602082108103620009e557634e487b7160e01b600052602260045260246000fd5b50919050565b601f82111562000a3957600081815260208120601f850160051c8101602086101562000a145750805b601f850160051c820191505b8181101562000a355782815560010162000a20565b5050505b505050565b81516001600160401b0381111562000a5a5762000a5a62000999565b62000a728162000a6b8454620009af565b84620009eb565b602080601f83116001811462000aaa576000841562000a915750858301515b600019600386901b1c1916600185901b17855562000a35565b600085815260208120601f198616915b8281101562000adb5788860151825594840194600190910190840162000aba565b508582101562000afa5787850151600019600388901b60f8161c191681555b5050505050600190811b01905550565b600060208083528351808285015260005b8181101562000b395785810183015185820160400152820162000b1b565b506000604082860101526040601f19601f8301168501019250505092915050565b80516020808301519190811015620009e55760001960209190910360031b1b16919050565b60006020828403121562000b9257600080fd5b815165ffffffffffff811681146200072157600080fd5b81810381811115620001e757634e487b7160e01b600052601160045260246000fd5b60805160a05160c05160e051610100516101205161014051610160516148e062000c4d600039600081816109b7015281816110e7015281816114c20152818161269b01526128bf0152600061146e0152600061144401526000612abc01526000612a94015260006129ef01526000612a1901526000612a4301526148e06000f3fe6080604052600436106102815760003560e01c80637b3c71d31161014f578063c01f9e37116100c1578063ea0217cf1161007a578063ea0217cf146108f9578063eb9019d414610919578063ece40cc114610939578063f23a6e6114610959578063f8ce560a14610985578063fc0c546a146109a557600080fd5b8063c01f9e37146107f5578063c28bc2fa1461082e578063c59057e414610841578063d33219b414610861578063dd4e2ba51461087f578063deaaa7cc146108c557600080fd5b80639a802a6d116101135780639a802a6d1461073f578063a7713a701461075f578063a890c91014610774578063ab58fb8e14610794578063b58131b0146107b4578063bc197c81146107c957600080fd5b80637b3c71d3146106975780637d5e81e2146106b757806384b0196e146106d757806391ddadf4146106ff57806397c3d3341461072b57600080fd5b80633932abb1116101f3578063544ffc9c116101ac578063544ffc9c1461059857806354fd4d50146105ed57806356781388146106175780635f398a141461063757806360c4247f1461065757806370b0f6601461067757600080fd5b80633932abb1146104e15780633bccf4fd146104f65780633e4f49e6146105165780634385963214610543578063452115d6146105635780634bf5d7e91461058357600080fd5b8063143489d011610245578063143489d0146103ab578063150b7a0214610400578063160cbed7146104445780632656227d146104645780632d63f693146104775780632fe3e261146104ad57600080fd5b806301ffc9a7146102f157806302a251a314610326578063034201811461034957806306f3f9e61461036957806306fdde031461038957600080fd5b366102ec573061028f6109d9565b6001600160a01b0316146102ea5760405162461bcd60e51b815260206004820152601f60248201527f476f7665726e6f723a206d7573742073656e6420746f206578656375746f720060448201526064015b60405180910390fd5b005b600080fd5b3480156102fd57600080fd5b5061031161030c366004613939565b6109f2565b60405190151581526020015b60405180910390f35b34801561033257600080fd5b5061033b610a03565b60405190815260200161031d565b34801561035557600080fd5b5061033b610364366004613a87565b610a0e565b34801561037557600080fd5b506102ea610384366004613b2d565b610b06565b34801561039557600080fd5b5061039e610b90565b60405161031d9190613b96565b3480156103b757600080fd5b506103e86103c6366004613b2d565b600090815260036020526040902054600160401b90046001600160a01b031690565b6040516001600160a01b03909116815260200161031d565b34801561040c57600080fd5b5061042b61041b366004613bbe565b630a85bd0160e11b949350505050565b6040516001600160e01b0319909116815260200161031d565b34801561045057600080fd5b5061033b61045f366004613d95565b610c22565b61033b610472366004613d95565b610e23565b34801561048357600080fd5b5061033b610492366004613b2d565b6000908152600360205260409020546001600160401b031690565b3480156104b957600080fd5b5061033b7fb3b3f3b703cd84ce352197dcff232b1b5d3cfb2025ce47cf04742d0651f1af8881565b3480156104ed57600080fd5b5061033b610f15565b34801561050257600080fd5b5061033b610511366004613e24565b610f20565b34801561052257600080fd5b50610536610531366004613b2d565b610f96565b60405161031d9190613e88565b34801561054f57600080fd5b5061031161055e366004613eb0565b610fa1565b34801561056f57600080fd5b5061033b61057e366004613d95565b610fd2565b34801561058f57600080fd5b5061039e6110e3565b3480156105a457600080fd5b506105d26105b3366004613b2d565b6000908152600960205260409020805460018201546002909201549092565b6040805193845260208401929092529082015260600161031d565b3480156105f957600080fd5b506040805180820190915260018152603160f81b602082015261039e565b34801561062357600080fd5b5061033b610632366004613ee0565b6111a5565b34801561064357600080fd5b5061033b610652366004613f0c565b611201565b34801561066357600080fd5b5061033b610672366004613b2d565b61124b565b34801561068357600080fd5b506102ea610692366004613b2d565b6112fc565b3480156106a357600080fd5b5061033b6106b2366004613f8f565b611383565b3480156106c357600080fd5b5061033b6106d2366004613fe8565b6113e3565b3480156106e357600080fd5b506106ec611436565b60405161031d97969594939291906140d7565b34801561070b57600080fd5b506107146114be565b60405165ffffffffffff909116815260200161031d565b34801561073757600080fd5b50606461033b565b34801561074b57600080fd5b5061033b61075a366004614139565b611547565b34801561076b57600080fd5b5061033b61155c565b34801561078057600080fd5b506102ea61078f366004614191565b611586565b3480156107a057600080fd5b5061033b6107af366004613b2d565b61160d565b3480156107c057600080fd5b5061033b6116a7565b3480156107d557600080fd5b5061042b6107e43660046141ae565b63bc197c8160e01b95945050505050565b34801561080157600080fd5b5061033b610810366004613b2d565b6000908152600360205260409020600101546001600160401b031690565b6102ea61083c366004614241565b6116b2565b34801561084d57600080fd5b5061033b61085c366004613d95565b6117c1565b34801561086d57600080fd5b50600c546001600160a01b03166103e8565b34801561088b57600080fd5b506040805180820190915260208082527f737570706f72743d627261766f2671756f72756d3d666f722c6162737461696e9082015261039e565b3480156108d157600080fd5b5061033b7f150214d74d59b7d1e90c73fc22ef3d991dd0a76b046543d4d80ab92d2a50328f81565b34801561090557600080fd5b506102ea610914366004613b2d565b6117fb565b34801561092557600080fd5b5061033b610934366004614284565b611882565b34801561094557600080fd5b506102ea610954366004613b2d565b6118a3565b34801561096557600080fd5b5061042b6109743660046142b0565b63f23a6e6160e01b95945050505050565b34801561099157600080fd5b5061033b6109a0366004613b2d565b61192a565b3480156109b157600080fd5b506103e87f000000000000000000000000000000000000000000000000000000000000000081565b60006109ed600c546001600160a01b031690565b905090565b60006109fd82611935565b92915050565b60006109ed60075490565b600080610ab2610aaa7fb3b3f3b703cd84ce352197dcff232b1b5d3cfb2025ce47cf04742d0651f1af888c8c8c8c604051610a4a929190614318565b60405180910390208b80519060200120604051602001610a8f959493929190948552602085019390935260ff9190911660408401526060830152608082015260a00190565b6040516020818303038152906040528051906020012061195a565b868686611987565b9050610af88a828b8b8b8080601f0160208091040260200160405190810160405280939291908181526020018383808284376000920191909152508d92506119a5915050565b9a9950505050505050505050565b610b0e6109d9565b6001600160a01b0316336001600160a01b031614610b3e5760405162461bcd60e51b81526004016102e190614328565b30610b476109d9565b6001600160a01b031614610b845760008036604051610b67929190614318565b604051809103902090505b80610b7d6004611afa565b03610b7257505b610b8d81611b79565b50565b606060028054610b9f9061435f565b80601f0160208091040260200160405190810160405280929190818152602001828054610bcb9061435f565b8015610c185780601f10610bed57610100808354040283529160200191610c18565b820191906000526020600020905b815481529060010190602001808311610bfb57829003601f168201915b5050505050905090565b600080610c31868686866117c1565b90506004610c3e82610f96565b6007811115610c4f57610c4f613e72565b14610c6c5760405162461bcd60e51b81526004016102e190614399565b600c546040805163793d064960e11b815290516000926001600160a01b03169163f27a0c929160048083019260209291908290030181865afa158015610cb6573d6000803e3d6000fd5b505050506040513d601f19601f82011682018060405250810190610cda91906143da565b600c5460405163b1c5f42760e01b81529192506001600160a01b03169063b1c5f42790610d14908a908a908a906000908b90600401614481565b602060405180830381865afa158015610d31573d6000803e3d6000fd5b505050506040513d601f19601f82011682018060405250810190610d5591906143da565b6000838152600d602052604080822092909255600c5491516308f2a0bb60e41b81526001600160a01b0390921691638f2a0bb091610da0918b918b918b91908b9089906004016144cf565b600060405180830381600087803b158015610dba57600080fd5b505af1158015610dce573d6000803e3d6000fd5b505050507f9a2e42fd6722813d69113e7d0079d3d940171428df7373df9c7f7617cfda2892828242610e00919061453d565b604080519283526020830191909152015b60405180910390a15095945050505050565b600080610e32868686866117c1565b90506000610e3f82610f96565b90506004816007811115610e5557610e55613e72565b1480610e7257506005816007811115610e7057610e70613e72565b145b610e8e5760405162461bcd60e51b81526004016102e190614399565b60008281526003602052604090819020600201805460ff19166001179055517f712ae1383f79ac853f8d882153778e0260ef8f03b504e2866e0593e04d2b291f90610edc9084815260200190565b60405180910390a1610ef18288888888611ce7565b610efe8288888888611d89565b610f0b8288888888611dd0565b5095945050505050565b60006109ed60065490565b604080517f150214d74d59b7d1e90c73fc22ef3d991dd0a76b046543d4d80ab92d2a50328f602082015290810186905260ff851660608201526000908190610f6e90610aaa90608001610a8f565b9050610f8b87828860405180602001604052806000815250611e09565b979650505050505050565b60006109fd82611e35565b60008281526009602090815260408083206001600160a01b038516845260030190915281205460ff165b9392505050565b600080610fe1868686866117c1565b90506000610fee82610f96565b6007811115610fff57610fff613e72565b1461104c5760405162461bcd60e51b815260206004820152601c60248201527f476f7665726e6f723a20746f6f206c61746520746f2063616e63656c0000000060448201526064016102e1565b600081815260036020526040902054600160401b90046001600160a01b0316336001600160a01b0316146110cd5760405162461bcd60e51b815260206004820152602260248201527f476f7665726e6f723a206f6e6c792070726f706f7365722063616e2063616e63604482015261195b60f21b60648201526084016102e1565b6110d986868686611f7f565b9695505050505050565b60607f00000000000000000000000000000000000000000000000000000000000000006001600160a01b0316634bf5d7e96040518163ffffffff1660e01b8152600401600060405180830381865afa92505050801561116457506040513d6000823e601f3d908101601f191682016040526111619190810190614550565b60015b6111a0575060408051808201909152601d81527f6d6f64653d626c6f636b6e756d6265722666726f6d3d64656661756c74000000602082015290565b919050565b6000806111b28484611fc1565b6040805186815260ff8616602082015290810182905290915033907f44586ab42689c4b306f5cd330a60e32635be4f6e83b0b5421ff4987acfe30c6f9060600160405180910390a29392505050565b600080339050610f8b87828888888080601f0160208091040260200160405190810160405280939291908181526020018383808284376000920191909152508a92506119a5915050565b600b54600090808203611262575050600a54919050565b6000600b6112716001846145bd565b81548110611281576112816145d0565b60009182526020918290206040805180820190915291015463ffffffff8116808352600160201b9091046001600160e01b031692820192909252915084106112d757602001516001600160e01b03169392505050565b6112eb6112e385611fe2565b600b9061204b565b6001600160e01b0316949350505050565b6113046109d9565b6001600160a01b0316336001600160a01b0316146113345760405162461bcd60e51b81526004016102e190614328565b3061133d6109d9565b6001600160a01b03161461137a576000803660405161135d929190614318565b604051809103902090505b806113736004611afa565b0361136857505b610b8d816120fe565b6000806113928686868661213f565b6040805188815260ff8816602082015290810182905290915033907f44586ab42689c4b306f5cd330a60e32635be4f6e83b0b5421ff4987acfe30c6f9060600160405180910390a295945050505050565b6000806113f286868686612187565b90507f0e71bb13e9e5c7e57df73952e77375efc9a9e981f4fd97500a7b84b90c66fc8e81846040516114259291906145e6565b60405180910390a195945050505050565b6000606080828080836114697f000000000000000000000000000000000000000000000000000000000000000083612560565b6114947f00000000000000000000000000000000000000000000000000000000000000006001612560565b60408051600080825260208201909252600f60f81b9b939a50919850469750309650945092509050565b60007f00000000000000000000000000000000000000000000000000000000000000006001600160a01b03166391ddadf46040518163ffffffff1660e01b8152600401602060405180830381865afa92505050801561153a575060408051601f3d908101601f19168201909252611537918101906145ff565b60015b6111a0576109ed4361260b565b6000611554848484612672565b949350505050565b600b546000901561157f57611571600b612708565b6001600160e01b0316905090565b50600a5490565b61158e6109d9565b6001600160a01b0316336001600160a01b0316146115be5760405162461bcd60e51b81526004016102e190614328565b306115c76109d9565b6001600160a01b03161461160457600080366040516115e7929190614318565b604051809103902090505b806115fd6004611afa565b036115f257505b610b8d81612738565b600c546000828152600d602052604080822054905163d45c443560e01b81526004810191909152909182916001600160a01b039091169063d45c443590602401602060405180830381865afa15801561166a573d6000803e3d6000fd5b505050506040513d601f19601f8201168201806040525081019061168e91906143da565b90508060011461169e5780610fcb565b60009392505050565b60006109ed60085490565b6116ba6109d9565b6001600160a01b0316336001600160a01b0316146116ea5760405162461bcd60e51b81526004016102e190614328565b306116f36109d9565b6001600160a01b0316146117305760008036604051611713929190614318565b604051809103902090505b806117296004611afa565b0361171e57505b600080856001600160a01b031685858560405161174e929190614318565b60006040518083038185875af1925050503d806000811461178b576040519150601f19603f3d011682016040523d82523d6000602084013e611790565b606091505b50915091506117b88282604051806060016040528060288152602001614883602891396127a1565b50505050505050565b6000848484846040516020016117da9493929190614627565b60408051601f19818403018152919052805160209091012095945050505050565b6118036109d9565b6001600160a01b0316336001600160a01b0316146118335760405162461bcd60e51b81526004016102e190614328565b3061183c6109d9565b6001600160a01b031614611879576000803660405161185c929190614318565b604051809103902090505b806118726004611afa565b0361186757505b610b8d816127ba565b6000610fcb838361189e60408051602081019091526000815290565b612672565b6118ab6109d9565b6001600160a01b0316336001600160a01b0316146118db5760405162461bcd60e51b81526004016102e190614328565b306118e46109d9565b6001600160a01b0316146119215760008036604051611904929190614318565b604051809103902090505b8061191a6004611afa565b0361190f57505b610b8d8161285b565b60006109fd8261289c565b60006001600160e01b03198216636e665ced60e01b14806109fd57506109fd82612946565b60006109fd6119676129e2565b8360405161190160f01b8152600281019290925260228201526042902090565b600080600061199887878787612b0d565b91509150610f0b81612bd1565b600085815260036020526040812060016119be88610f96565b60078111156119cf576119cf613e72565b14611a285760405162461bcd60e51b815260206004820152602360248201527f476f7665726e6f723a20766f7465206e6f742063757272656e746c792061637460448201526269766560e81b60648201526084016102e1565b8054600090611a429088906001600160401b031686612672565b9050611a518888888488612d1b565b8351600003611aa657866001600160a01b03167fb8e138887d0aa13bab447e82de9d5c1777041ecd21ca36ba824ff1e6c07ddda489888489604051611a999493929190614672565b60405180910390a2610f8b565b866001600160a01b03167fe2babfbac5889a709b63bb7f598b324e08bc5a4fb9ec647fb3cbc9ec07eb87128988848989604051611ae795949392919061469a565b60405180910390a2979650505050505050565b6000611b158254600f81810b600160801b909204900b131590565b15611b3357604051631ed9509560e11b815260040160405180910390fd5b508054600f0b6000818152600180840160205260408220805492905583546fffffffffffffffffffffffffffffffff191692016001600160801b03169190911790915590565b6064811115611bfc5760405162461bcd60e51b815260206004820152604360248201527f476f7665726e6f72566f74657351756f72756d4672616374696f6e3a2071756f60448201527f72756d4e756d657261746f72206f7665722071756f72756d44656e6f6d696e616064820152623a37b960e91b608482015260a4016102e1565b6000611c0661155c565b90508015801590611c175750600b54155b15611c7b576040805180820190915260008152600b9060208101611c3a84612e95565b6001600160e01b039081169091528254600181018455600093845260209384902083519490930151909116600160201b0263ffffffff909316929092179101555b611ca8611c96611c896114be565b65ffffffffffff16611fe2565b611c9f84612e95565b600b9190612efe565b505060408051828152602081018490527f0553476bf02ef2726e8ce5ced78d63e26e602e4a2257b1f559418e24b4633997910160405180910390a15050565b30611cf06109d9565b6001600160a01b031614611d825760005b8451811015611d8057306001600160a01b0316858281518110611d2657611d266145d0565b60200260200101516001600160a01b031603611d7057611d70838281518110611d5157611d516145d0565b6020026020010151805190602001206004612f1990919063ffffffff16565b611d79816146e0565b9050611d01565b505b5050505050565b611d968585858585612f55565b6040518581527ffc49e145095eb8b52e3b98441e0c51b4532740eaeb4db5e60a5c981253f15b809060200160405180910390a15050505050565b30611dd96109d9565b6001600160a01b031614611d8257600454600f81810b600160801b909204900b1315611d82576000600455611d82565b6000611e2c85858585611e2760408051602081019091526000815290565b6119a5565b95945050505050565b600080611e4183612fc9565b90506004816007811115611e5757611e57613e72565b14611e625792915050565b6000838152600d602052604090205480611e7d575092915050565b600c54604051632ab0f52960e01b8152600481018390526001600160a01b0390911690632ab0f52990602401602060405180830381865afa158015611ec6573d6000803e3d6000fd5b505050506040513d601f19601f82011682018060405250810190611eea91906146f9565b15611ef9575060079392505050565b600c54604051632c258a9f60e11b8152600481018390526001600160a01b039091169063584b153e90602401602060405180830381865afa158015611f42573d6000803e3d6000fd5b505050506040513d601f19601f82011682018060405250810190611f6691906146f9565b15611f75575060059392505050565b5060029392505050565b600080611f8e86868686613109565b90507fb12ad6c53cbf0f6c3e64ef8f6b52147ae0e5164ca7c73bd87ea81d8bc385f39e8160405161142591815260200190565b60008033905061155484828560405180602001604052806000815250611e09565b600063ffffffff8211156120475760405162461bcd60e51b815260206004820152602660248201527f53616665436173743a2076616c756520646f65736e27742066697420696e203360448201526532206269747360d01b60648201526084016102e1565b5090565b8154600090818160058111156120a8576000612066846131bb565b61207090856145bd565b60008881526020902090915081015463ffffffff9081169087161015612098578091506120a6565b6120a381600161453d565b92505b505b60006120b6878785856132a3565b905080156120f1576120db876120cd6001846145bd565b600091825260209091200190565b54600160201b90046001600160e01b0316610f8b565b6000979650505050505050565b60065460408051918252602082018390527fc565b045403dc03c2eea82b81a0465edad9e2e7fc4d97e11421c209da93d7a93910160405180910390a1600655565b6000803390506110d986828787878080601f016020809104026020016040519081016040528093929190818152602001838380828437600092019190915250611e0992505050565b6000336121948184613301565b6121e05760405162461bcd60e51b815260206004820152601d60248201527f476f7665726e6f723a2070726f706f736572207265737472696374656400000060448201526064016102e1565b60006121ea6114be565b65ffffffffffff1690506121fc6116a7565b61220b836109346001856145bd565b10156122735760405162461bcd60e51b815260206004820152603160248201527f476f7665726e6f723a2070726f706f73657220766f7465732062656c6f7720706044820152701c9bdc1bdcd85b081d1a1c995cda1bdb19607a1b60648201526084016102e1565b600061228888888888805190602001206117c1565b905086518851146122ab5760405162461bcd60e51b81526004016102e19061471b565b85518851146122cc5760405162461bcd60e51b81526004016102e19061471b565b600088511161231d5760405162461bcd60e51b815260206004820152601860248201527f476f7665726e6f723a20656d7074792070726f706f73616c000000000000000060448201526064016102e1565b6000818152600360205260409020546001600160401b03161561238c5760405162461bcd60e51b815260206004820152602160248201527f476f7665726e6f723a2070726f706f73616c20616c72656164792065786973746044820152607360f81b60648201526084016102e1565b6000612396610f15565b6123a0908461453d565b905060006123ac610a03565b6123b6908361453d565b90506040518060e001604052806123cc846133f2565b6001600160401b031681526001600160a01b0387166020820152600060408201526060016123f9836133f2565b6001600160401b039081168252600060208084018290526040808501839052606094850183905288835260038252918290208551815492870151878501519186166001600160e01b031990941693909317600160401b6001600160a01b039094168402176001600160e01b0316600160e01b60e09290921c91909102178155938501516080860151908416921c0217600183015560a08301516002909201805460c09094015161ffff1990941692151561ff00191692909217610100931515939093029290921790558a517f7d84a6263ae0d98d3329bd7b46bb4e8d6f98cd35a7adb45c274c8b7fd5ebd5e091859188918e918e918111156124fd576124fd6139bc565b60405190808252806020026020018201604052801561253057816020015b606081526020019060019003908161251b5790505b508d88888f60405161254a9998979695949392919061475c565b60405180910390a1509098975050505050505050565b606060ff831461257a576125738361345a565b90506109fd565b8180546125869061435f565b80601f01602080910402602001604051908101604052809291908181526020018280546125b29061435f565b80156125ff5780601f106125d4576101008083540402835291602001916125ff565b820191906000526020600020905b8154815290600101906020018083116125e257829003601f168201915b505050505090506109fd565b600065ffffffffffff8211156120475760405162461bcd60e51b815260206004820152602660248201527f53616665436173743a2076616c756520646f65736e27742066697420696e203460448201526538206269747360d01b60648201526084016102e1565b604051630748d63560e31b81526001600160a01b038481166004830152602482018490526000917f000000000000000000000000000000000000000000000000000000000000000090911690633a46b1a890604401602060405180830381865afa1580156126e4573d6000803e3d6000fd5b505050506040513d601f19601f8201168201806040525081019061155491906143da565b8054600090801561169e57612722836120cd6001846145bd565b54600160201b90046001600160e01b0316610fcb565b600c54604080516001600160a01b03928316815291831660208301527f08f74ea46ef7894f65eabfb5e6e695de773a000b47c529ab559178069b226401910160405180910390a1600c80546001600160a01b0319166001600160a01b0392909216919091179055565b606083156127b0575081610fcb565b610fcb8383613499565b6000811161281a5760405162461bcd60e51b815260206004820152602760248201527f476f7665726e6f7253657474696e67733a20766f74696e6720706572696f6420604482015266746f6f206c6f7760c81b60648201526084016102e1565b60075460408051918252602082018390527f7e3f7f0708a84de9203036abaa450dccc85ad5ff52f78c170f3edb55cf5e8828910160405180910390a1600755565b60085460408051918252602082018390527fccb45da8d5717e6c4544694297c4ba5cf151d455c9bb0ed4fc7a38411bc05461910160405180910390a1600855565b600060646128a98361124b565b604051632394e7a360e21b8152600481018590527f00000000000000000000000000000000000000000000000000000000000000006001600160a01b031690638e539e8c90602401602060405180830381865afa15801561290e573d6000803e3d6000fd5b505050506040513d601f19601f8201168201806040525081019061293291906143da565b61293c9190614833565b6109fd9190614860565b600063288ace0360e11b6318df743f60e31b63bf26d89760e01b6379dd796f60e01b6001600160e01b0319861682148061298c57506001600160e01b0319868116908216145b806129a357506001600160e01b0319868116908516145b806129be57506001600160e01b03198616630271189760e51b145b806110d957506301ffc9a760e01b6001600160e01b03198716149695505050505050565b6000306001600160a01b037f000000000000000000000000000000000000000000000000000000000000000016148015612a3b57507f000000000000000000000000000000000000000000000000000000000000000046145b15612a6557507f000000000000000000000000000000000000000000000000000000000000000090565b6109ed604080517f8b73c3c69bb8fe3d512ecc4cf759cc79239f7b179b0ffacaa9a75d522b39400f60208201527f0000000000000000000000000000000000000000000000000000000000000000918101919091527f000000000000000000000000000000000000000000000000000000000000000060608201524660808201523060a082015260009060c00160405160208183030381529060405280519060200120905090565b6000807f7fffffffffffffffffffffffffffffff5d576e7357a4501ddfe92f46681b20a0831115612b445750600090506003612bc8565b6040805160008082526020820180845289905260ff881692820192909252606081018690526080810185905260019060a0016020604051602081039080840390855afa158015612b98573d6000803e3d6000fd5b5050604051601f1901519150506001600160a01b038116612bc157600060019250925050612bc8565b9150600090505b94509492505050565b6000816004811115612be557612be5613e72565b03612bed5750565b6001816004811115612c0157612c01613e72565b03612c4e5760405162461bcd60e51b815260206004820152601860248201527f45434453413a20696e76616c6964207369676e6174757265000000000000000060448201526064016102e1565b6002816004811115612c6257612c62613e72565b03612caf5760405162461bcd60e51b815260206004820152601f60248201527f45434453413a20696e76616c6964207369676e6174757265206c656e6774680060448201526064016102e1565b6003816004811115612cc357612cc3613e72565b03610b8d5760405162461bcd60e51b815260206004820152602260248201527f45434453413a20696e76616c6964207369676e6174757265202773272076616c604482015261756560f01b60648201526084016102e1565b60008581526009602090815260408083206001600160a01b0388168452600381019092529091205460ff1615612da35760405162461bcd60e51b815260206004820152602760248201527f476f7665726e6f72566f74696e6753696d706c653a20766f746520616c726561604482015266191e4818d85cdd60ca1b60648201526084016102e1565b6001600160a01b03851660009081526003820160205260409020805460ff1916600117905560ff8416612def5782816000016000828254612de4919061453d565b90915550611d809050565b60001960ff851601612e0f5782816001016000828254612de4919061453d565b60011960ff851601612e2f5782816002016000828254612de4919061453d565b60405162461bcd60e51b815260206004820152603560248201527f476f7665726e6f72566f74696e6753696d706c653a20696e76616c69642076616044820152746c756520666f7220656e756d20566f74655479706560581b60648201526084016102e1565b60006001600160e01b038211156120475760405162461bcd60e51b815260206004820152602760248201527f53616665436173743a2076616c756520646f65736e27742066697420696e20326044820152663234206269747360c81b60648201526084016102e1565b600080612f0c8585856134c3565b915091505b935093915050565b8154600160801b90819004600f0b6000818152600180860160205260409091209390935583546001600160801b03908116939091011602179055565b600c5460405163e38335e560e01b81526001600160a01b039091169063e38335e5903490612f90908890889088906000908990600401614481565b6000604051808303818588803b158015612fa957600080fd5b505af1158015612fbd573d6000803e3d6000fd5b50505050505050505050565b6000818152600360205260408120600281015460ff1615612fed5750600792915050565b6002810154610100900460ff16156130085750600292915050565b6000838152600360205260408120546001600160401b0316908190036130705760405162461bcd60e51b815260206004820152601d60248201527f476f7665726e6f723a20756e6b6e6f776e2070726f706f73616c20696400000060448201526064016102e1565b600061307a6114be565b65ffffffffffff16905080821061309657506000949350505050565b6000858152600360205260409020600101546001600160401b03168181106130c45750600195945050505050565b6130cd86613662565b80156130ec575060008681526009602052604090208054600190910154115b156130fd5750600495945050505050565b50600395945050505050565b600080613118868686866136ae565b6000818152600d602052604090205490915015611e2c57600c546000828152600d60205260409081902054905163c4d252f560e01b81526001600160a01b039092169163c4d252f5916131719160040190815260200190565b600060405180830381600087803b15801561318b57600080fd5b505af115801561319f573d6000803e3d6000fd5b5050506000828152600d60205260408120555095945050505050565b6000816000036131cd57506000919050565b600060016131da846137ba565b901c6001901b905060018184816131f3576131f361484a565b048201901c9050600181848161320b5761320b61484a565b048201901c905060018184816132235761322361484a565b048201901c9050600181848161323b5761323b61484a565b048201901c905060018184816132535761325361484a565b048201901c9050600181848161326b5761326b61484a565b048201901c905060018184816132835761328361484a565b048201901c9050610fcb8182858161329d5761329d61484a565b0461384e565b60005b818310156132f95760006132ba8484613864565b60008781526020902090915063ffffffff86169082015463ffffffff1611156132e5578092506132f3565b6132f081600161453d565b93505b506132a6565b509392505050565b805160009060348110156133195760019150506109fd565b82810160131901516001600160a01b031981166b046e0e4dee0dee6cae47a60f60a31b1461334c576001925050506109fd565b60008061335a6028856145bd565b90505b838110156133d15760008061339188848151811061337d5761337d6145d0565b01602001516001600160f81b03191661387f565b91509150816133a957600196505050505050506109fd565b8060ff166004856001600160a01b0316901b1793505050806133ca906146e0565b905061335d565b50856001600160a01b0316816001600160a01b031614935050505092915050565b60006001600160401b038211156120475760405162461bcd60e51b815260206004820152602660248201527f53616665436173743a2076616c756520646f65736e27742066697420696e203660448201526534206269747360d01b60648201526084016102e1565b6060600061346783613911565b604080516020808252818301909252919250600091906020820181803683375050509182525060208101929092525090565b8151156134a95781518083602001fd5b8060405162461bcd60e51b81526004016102e19190613b96565b8254600090819080156136095760006134e1876120cd6001856145bd565b60408051808201909152905463ffffffff808216808452600160201b9092046001600160e01b0316602084015291925090871610156135625760405162461bcd60e51b815260206004820152601b60248201527f436865636b706f696e743a2064656372656173696e67206b657973000000000060448201526064016102e1565b805163ffffffff8088169116036135aa5784613583886120cd6001866145bd565b80546001600160e01b0392909216600160201b0263ffffffff9092169190911790556135f9565b6040805180820190915263ffffffff80881682526001600160e01b0380881660208085019182528b54600181018d5560008d81529190912094519151909216600160201b029216919091179101555b602001519250839150612f119050565b50506040805180820190915263ffffffff80851682526001600160e01b0380851660208085019182528854600181018a5560008a815291822095519251909316600160201b029190931617920191909155905081612f11565b600081815260096020526040812060028101546001820154613684919061453d565b6000848152600360205260409020546136a5906001600160401b031661192a565b11159392505050565b6000806136bd868686866117c1565b905060006136ca82610f96565b905060028160078111156136e0576136e0613e72565b14158015613700575060068160078111156136fd576136fd613e72565b14155b801561371e5750600781600781111561371b5761371b613e72565b14155b61376a5760405162461bcd60e51b815260206004820152601d60248201527f476f7665726e6f723a2070726f706f73616c206e6f742061637469766500000060448201526064016102e1565b60008281526003602052604090819020600201805461ff001916610100179055517f789cf55be980739dad1d0699b93b58e806b51c9d96619bfa8fe0a28abaa7b30c90610e119084815260200190565b600080608083901c156137cf57608092831c92015b604083901c156137e157604092831c92015b602083901c156137f357602092831c92015b601083901c1561380557601092831c92015b600883901c1561381757600892831c92015b600483901c1561382957600492831c92015b600283901c1561383b57600292831c92015b600183901c156109fd5760010192915050565b600081831061385d5781610fcb565b5090919050565b60006138736002848418614860565b610fcb9084841661453d565b60008060f883901c602f8111801561389a5750603a8160ff16105b156138af57600194602f199091019350915050565b8060ff1660401080156138c5575060478160ff16105b156138da576001946036199091019350915050565b8060ff1660601080156138f0575060678160ff16105b15613905576001946056199091019350915050565b50600093849350915050565b600060ff8216601f8111156109fd57604051632cd44ac360e21b815260040160405180910390fd5b60006020828403121561394b57600080fd5b81356001600160e01b031981168114610fcb57600080fd5b803560ff811681146111a057600080fd5b60008083601f84011261398657600080fd5b5081356001600160401b0381111561399d57600080fd5b6020830191508360208285010111156139b557600080fd5b9250929050565b634e487b7160e01b600052604160045260246000fd5b604051601f8201601f191681016001600160401b03811182821017156139fa576139fa6139bc565b604052919050565b60006001600160401b03821115613a1b57613a1b6139bc565b50601f01601f191660200190565b6000613a3c613a3784613a02565b6139d2565b9050828152838383011115613a5057600080fd5b828260208301376000602084830101529392505050565b600082601f830112613a7857600080fd5b610fcb83833560208501613a29565b60008060008060008060008060e0898b031215613aa357600080fd5b88359750613ab360208a01613963565b965060408901356001600160401b0380821115613acf57600080fd5b613adb8c838d01613974565b909850965060608b0135915080821115613af457600080fd5b50613b018b828c01613a67565b945050613b1060808a01613963565b925060a0890135915060c089013590509295985092959890939650565b600060208284031215613b3f57600080fd5b5035919050565b60005b83811015613b61578181015183820152602001613b49565b50506000910152565b60008151808452613b82816020860160208601613b46565b601f01601f19169290920160200192915050565b602081526000610fcb6020830184613b6a565b6001600160a01b0381168114610b8d57600080fd5b60008060008060808587031215613bd457600080fd5b8435613bdf81613ba9565b93506020850135613bef81613ba9565b92506040850135915060608501356001600160401b03811115613c1157600080fd5b613c1d87828801613a67565b91505092959194509250565b60006001600160401b03821115613c4257613c426139bc565b5060051b60200190565b600082601f830112613c5d57600080fd5b81356020613c6d613a3783613c29565b82815260059290921b84018101918181019086841115613c8c57600080fd5b8286015b84811015613cb0578035613ca381613ba9565b8352918301918301613c90565b509695505050505050565b600082601f830112613ccc57600080fd5b81356020613cdc613a3783613c29565b82815260059290921b84018101918181019086841115613cfb57600080fd5b8286015b84811015613cb05780358352918301918301613cff565b600082601f830112613d2757600080fd5b81356020613d37613a3783613c29565b82815260059290921b84018101918181019086841115613d5657600080fd5b8286015b84811015613cb05780356001600160401b03811115613d795760008081fd5b613d878986838b0101613a67565b845250918301918301613d5a565b60008060008060808587031215613dab57600080fd5b84356001600160401b0380821115613dc257600080fd5b613dce88838901613c4c565b95506020870135915080821115613de457600080fd5b613df088838901613cbb565b94506040870135915080821115613e0657600080fd5b50613e1387828801613d16565b949793965093946060013593505050565b600080600080600060a08688031215613e3c57600080fd5b85359450613e4c60208701613963565b9350613e5a60408701613963565b94979396509394606081013594506080013592915050565b634e487b7160e01b600052602160045260246000fd5b6020810160088310613eaa57634e487b7160e01b600052602160045260246000fd5b91905290565b60008060408385031215613ec357600080fd5b823591506020830135613ed581613ba9565b809150509250929050565b60008060408385031215613ef357600080fd5b82359150613f0360208401613963565b90509250929050565b600080600080600060808688031215613f2457600080fd5b85359450613f3460208701613963565b935060408601356001600160401b0380821115613f5057600080fd5b613f5c89838a01613974565b90955093506060880135915080821115613f7557600080fd5b50613f8288828901613a67565b9150509295509295909350565b60008060008060608587031215613fa557600080fd5b84359350613fb560208601613963565b925060408501356001600160401b03811115613fd057600080fd5b613fdc87828801613974565b95989497509550505050565b60008060008060808587031215613ffe57600080fd5b84356001600160401b038082111561401557600080fd5b61402188838901613c4c565b9550602087013591508082111561403757600080fd5b61404388838901613cbb565b9450604087013591508082111561405957600080fd5b61406588838901613d16565b9350606087013591508082111561407b57600080fd5b508501601f8101871361408d57600080fd5b613c1d87823560208401613a29565b600081518084526020808501945080840160005b838110156140cc578151875295820195908201906001016140b0565b509495945050505050565b60ff60f81b8816815260e0602082015260006140f660e0830189613b6a565b82810360408401526141088189613b6a565b606084018890526001600160a01b038716608085015260a0840186905283810360c08501529050610af8818561409c565b60008060006060848603121561414e57600080fd5b833561415981613ba9565b92506020840135915060408401356001600160401b0381111561417b57600080fd5b61418786828701613a67565b9150509250925092565b6000602082840312156141a357600080fd5b8135610fcb81613ba9565b600080600080600060a086880312156141c657600080fd5b85356141d181613ba9565b945060208601356141e181613ba9565b935060408601356001600160401b03808211156141fd57600080fd5b61420989838a01613cbb565b9450606088013591508082111561421f57600080fd5b61422b89838a01613cbb565b93506080880135915080821115613f7557600080fd5b6000806000806060858703121561425757600080fd5b843561426281613ba9565b93506020850135925060408501356001600160401b03811115613fd057600080fd5b6000806040838503121561429757600080fd5b82356142a281613ba9565b946020939093013593505050565b600080600080600060a086880312156142c857600080fd5b85356142d381613ba9565b945060208601356142e381613ba9565b9350604086013592506060860135915060808601356001600160401b0381111561430c57600080fd5b613f8288828901613a67565b8183823760009101908152919050565b60208082526018908201527f476f7665726e6f723a206f6e6c79476f7665726e616e63650000000000000000604082015260600190565b600181811c9082168061437357607f821691505b60208210810361439357634e487b7160e01b600052602260045260246000fd5b50919050565b60208082526021908201527f476f7665726e6f723a2070726f706f73616c206e6f74207375636365737366756040820152601b60fa1b606082015260800190565b6000602082840312156143ec57600080fd5b5051919050565b600081518084526020808501945080840160005b838110156140cc5781516001600160a01b031687529582019590820190600101614407565b600081518084526020808501808196508360051b8101915082860160005b85811015614474578284038952614462848351613b6a565b9885019893509084019060010161444a565b5091979650505050505050565b60a08152600061449460a08301886143f3565b82810360208401526144a6818861409c565b905082810360408401526144ba818761442c565b60608401959095525050608001529392505050565b60c0815260006144e260c08301896143f3565b82810360208401526144f4818961409c565b90508281036040840152614508818861442c565b60608401969096525050608081019290925260a0909101529392505050565b634e487b7160e01b600052601160045260246000fd5b808201808211156109fd576109fd614527565b60006020828403121561456257600080fd5b81516001600160401b0381111561457857600080fd5b8201601f8101841361458957600080fd5b8051614597613a3782613a02565b8181528560208385010111156145ac57600080fd5b611e2c826020830160208601613b46565b818103818111156109fd576109fd614527565b634e487b7160e01b600052603260045260246000fd5b8281526040602082015260006115546040830184613b6a565b60006020828403121561461157600080fd5b815165ffffffffffff81168114610fcb57600080fd5b60808152600061463a60808301876143f3565b828103602084015261464c818761409c565b90508281036040840152614660818661442c565b91505082606083015295945050505050565b84815260ff841660208201528260408201526080606082015260006110d96080830184613b6a565b85815260ff8516602082015283604082015260a0606082015260006146c260a0830185613b6a565b82810360808401526146d48185613b6a565b98975050505050505050565b6000600182016146f2576146f2614527565b5060010190565b60006020828403121561470b57600080fd5b81518015158114610fcb57600080fd5b60208082526021908201527f476f7665726e6f723a20696e76616c69642070726f706f73616c206c656e67746040820152600d60fb1b606082015260800190565b60006101208b8352602060018060a01b038c16818501528160408501526147858285018c6143f3565b91508382036060850152614799828b61409c565b915083820360808501528189518084528284019150828160051b850101838c0160005b838110156147ea57601f198784030185526147d8838351613b6a565b948601949250908501906001016147bc565b505086810360a08801526147fe818c61442c565b9450505050508560c08401528460e08401528281036101008401526148238185613b6a565b9c9b505050505050505050505050565b80820281158282048414176109fd576109fd614527565b634e487b7160e01b600052601260045260246000fd5b60008261487d57634e487b7160e01b600052601260045260246000fd5b50049056fe476f7665726e6f723a2072656c617920726576657274656420776974686f7574206d657373616765a264697066735822122051bc97229fb8ff5acbb3e6a49ae49a229cb6bfcd2b8040270764c85dd0fb302064736f6c63430008130033",
    "linkReferences": {},
    "deployedLinkReferences": {}
}