{
  "_format": "hh-sol-artifact-1",
  "contractName": "TokenStaking",
  "sourceName": "contracts/TokenStaking.sol",
  "abi": [
    {
      "inputs": [
        {
          "internalType": "address",
          "name": "_stakingToken",
          "type": "address"
        },
        {
          "internalType": "address",
          "name": "_rewardToken",
          "type": "address"
        },
        {
          "internalType": "address",
          "name": "_admin",
          "type": "address"
        }
      ],
      "stateMutability": "nonpayable",
      "type": "constructor"
    },
    {
      "anonymous": false,
      "inputs": [
        {
          "indexed": false,
          "internalType": "address",
          "name": "account",
          "type": "address"
        }
      ],
      "name": "Paused",
      "type": "event"
    },
    {
      "anonymous": false,
      "inputs": [
        {
          "indexed": true,
          "internalType": "address",
          "name": "user",
          "type": "address"
        },
        {
          "indexed": false,
          "internalType": "uint256",
          "name": "reward",
          "type": "uint256"
        }
      ],
      "name": "RewardClaimed",
      "type": "event"
    },
    {
      "anonymous": false,
      "inputs": [
        {
          "indexed": false,
          "internalType": "uint256",
          "name": "newPeriod",
          "type": "uint256"
        }
      ],
      "name": "RewardPeriodSet",
      "type": "event"
    },
    {
      "anonymous": false,
      "inputs": [
        {
          "indexed": false,
          "internalType": "uint256",
          "name": "reward",
          "type": "uint256"
        }
      ],
      "name": "RewardPeriodStarted",
      "type": "event"
    },
    {
      "anonymous": false,
      "inputs": [
        {
          "indexed": true,
          "internalType": "bytes32",
          "name": "role",
          "type": "bytes32"
        },
        {
          "indexed": true,
          "internalType": "bytes32",
          "name": "previousAdminRole",
          "type": "bytes32"
        },
        {
          "indexed": true,
          "internalType": "bytes32",
          "name": "newAdminRole",
          "type": "bytes32"
        }
      ],
      "name": "RoleAdminChanged",
      "type": "event"
    },
    {
      "anonymous": false,
      "inputs": [
        {
          "indexed": true,
          "internalType": "bytes32",
          "name": "role",
          "type": "bytes32"
        },
        {
          "indexed": true,
          "internalType": "address",
          "name": "account",
          "type": "address"
        },
        {
          "indexed": true,
          "internalType": "address",
          "name": "sender",
          "type": "address"
        }
      ],
      "name": "RoleGranted",
      "type": "event"
    },
    {
      "anonymous": false,
      "inputs": [
        {
          "indexed": true,
          "internalType": "bytes32",
          "name": "role",
          "type": "bytes32"
        },
        {
          "indexed": true,
          "internalType": "address",
          "name": "account",
          "type": "address"
        },
        {
          "indexed": true,
          "internalType": "address",
          "name": "sender",
          "type": "address"
        }
      ],
      "name": "RoleRevoked",
      "type": "event"
    },
    {
      "anonymous": false,
      "inputs": [
        {
          "indexed": true,
          "internalType": "address",
          "name": "user",
          "type": "address"
        },
        {
          "indexed": false,
          "internalType": "uint256",
          "name": "amount",
          "type": "uint256"
        }
      ],
      "name": "Staked",
      "type": "event"
    },
    {
      "anonymous": false,
      "inputs": [
        {
          "indexed": true,
          "internalType": "address",
          "name": "token",
          "type": "address"
        },
        {
          "indexed": false,
          "internalType": "uint256",
          "name": "amount",
          "type": "uint256"
        }
      ],
      "name": "TokensRecovered",
      "type": "event"
    },
    {
      "anonymous": false,
      "inputs": [
        {
          "indexed": false,
          "internalType": "address",
          "name": "account",
          "type": "address"
        }
      ],
      "name": "Unpaused",
      "type": "event"
    },
    {
      "anonymous": false,
      "inputs": [
        {
          "indexed": true,
          "internalType": "address",
          "name": "user",
          "type": "address"
        },
        {
          "indexed": false,
          "internalType": "uint256",
          "name": "amount",
          "type": "uint256"
        }
      ],
      "name": "Unstaked",
      "type": "event"
    },
    {
      "inputs": [],
      "name": "ADMIN_ROLE",
      "outputs": [
        {
          "internalType": "bytes32",
          "name": "",
          "type": "bytes32"
        }
      ],
      "stateMutability": "view",
      "type": "function"
    },
    {
      "inputs": [],
      "name": "DEFAULT_ADMIN_ROLE",
      "outputs": [
        {
          "internalType": "bytes32",
          "name": "",
          "type": "bytes32"
        }
      ],
      "stateMutability": "view",
      "type": "function"
    },
    {
      "inputs": [
        {
          "internalType": "address",
          "name": "",
          "type": "address"
        }
      ],
      "name": "balanceOf",
      "outputs": [
        {
          "internalType": "uint256",
          "name": "",
          "type": "uint256"
        }
      ],
      "stateMutability": "view",
      "type": "function"
    },
    {
      "inputs": [],
      "name": "claimReward",
      "outputs": [],
      "stateMutability": "nonpayable",
      "type": "function"
    },
    {
      "inputs": [
        {
          "internalType": "address",
          "name": "account",
          "type": "address"
        }
      ],
      "name": "earned",
      "outputs": [
        {
          "internalType": "uint256",
          "name": "",
          "type": "uint256"
        }
      ],
      "stateMutability": "view",
      "type": "function"
    },
    {
      "inputs": [],
      "name": "getContractBalance",
      "outputs": [
        {
          "internalType": "uint256",
          "name": "",
          "type": "uint256"
        }
      ],
      "stateMutability": "view",
      "type": "function"
    },
    {
      "inputs": [
        {
          "internalType": "bytes32",
          "name": "role",
          "type": "bytes32"
        }
      ],
      "name": "getRoleAdmin",
      "outputs": [
        {
          "internalType": "bytes32",
          "name": "",
          "type": "bytes32"
        }
      ],
      "stateMutability": "view",
      "type": "function"
    },
    {
      "inputs": [
        {
          "internalType": "bytes32",
          "name": "role",
          "type": "bytes32"
        },
        {
          "internalType": "address",
          "name": "account",
          "type": "address"
        }
      ],
      "name": "grantRole",
      "outputs": [],
      "stateMutability": "nonpayable",
      "type": "function"
    },
    {
      "inputs": [
        {
          "internalType": "bytes32",
          "name": "role",
          "type": "bytes32"
        },
        {
          "internalType": "address",
          "name": "account",
          "type": "address"
        }
      ],
      "name": "hasRole",
      "outputs": [
        {
          "internalType": "bool",
          "name": "",
          "type": "bool"
        }
      ],
      "stateMutability": "view",
      "type": "function"
    },
    {
      "inputs": [],
      "name": "lastTimeRewardApplicable",
      "outputs": [
        {
          "internalType": "uint256",
          "name": "",
          "type": "uint256"
        }
      ],
      "stateMutability": "view",
      "type": "function"
    },
    {
      "inputs": [],
      "name": "lastUpdateTime",
      "outputs": [
        {
          "internalType": "uint256",
          "name": "",
          "type": "uint256"
        }
      ],
      "stateMutability": "view",
      "type": "function"
    },
    {
      "inputs": [],
      "name": "pause",
      "outputs": [],
      "stateMutability": "nonpayable",
      "type": "function"
    },
    {
      "inputs": [],
      "name": "paused",
      "outputs": [
        {
          "internalType": "bool",
          "name": "",
          "type": "bool"
        }
      ],
      "stateMutability": "view",
      "type": "function"
    },
    {
      "inputs": [
        {
          "internalType": "address",
          "name": "",
          "type": "address"
        }
      ],
      "name": "pendingRewards",
      "outputs": [
        {
          "internalType": "uint256",
          "name": "",
          "type": "uint256"
        }
      ],
      "stateMutability": "view",
      "type": "function"
    },
    {
      "inputs": [],
      "name": "periodFinish",
      "outputs": [
        {
          "internalType": "uint256",
          "name": "",
          "type": "uint256"
        }
      ],
      "stateMutability": "view",
      "type": "function"
    },
    {
      "inputs": [],
      "name": "recoverLeftoverRewards",
      "outputs": [],
      "stateMutability": "nonpayable",
      "type": "function"
    },
    {
      "inputs": [
        {
          "internalType": "address",
          "name": "tokenAddress",
          "type": "address"
        },
        {
          "internalType": "uint256",
          "name": "amount",
          "type": "uint256"
        }
      ],
      "name": "recoverTokens",
      "outputs": [],
      "stateMutability": "nonpayable",
      "type": "function"
    },
    {
      "inputs": [
        {
          "internalType": "bytes32",
          "name": "role",
          "type": "bytes32"
        },
        {
          "internalType": "address",
          "name": "account",
          "type": "address"
        }
      ],
      "name": "renounceRole",
      "outputs": [],
      "stateMutability": "nonpayable",
      "type": "function"
    },
    {
      "inputs": [
        {
          "internalType": "bytes32",
          "name": "role",
          "type": "bytes32"
        },
        {
          "internalType": "address",
          "name": "account",
          "type": "address"
        }
      ],
      "name": "revokeRole",
      "outputs": [],
      "stateMutability": "nonpayable",
      "type": "function"
    },
    {
      "inputs": [],
      "name": "rewardPerToken",
      "outputs": [
        {
          "internalType": "uint256",
          "name": "",
          "type": "uint256"
        }
      ],
      "stateMutability": "view",
      "type": "function"
    },
    {
      "inputs": [],
      "name": "rewardPerTokenStored",
      "outputs": [
        {
          "internalType": "uint256",
          "name": "",
          "type": "uint256"
        }
      ],
      "stateMutability": "view",
      "type": "function"
    },
    {
      "inputs": [],
      "name": "rewardPeriod",
      "outputs": [
        {
          "internalType": "uint256",
          "name": "",
          "type": "uint256"
        }
      ],
      "stateMutability": "view",
      "type": "function"
    },
    {
      "inputs": [],
      "name": "rewardRate",
      "outputs": [
        {
          "internalType": "uint256",
          "name": "",
          "type": "uint256"
        }
      ],
      "stateMutability": "view",
      "type": "function"
    },
    {
      "inputs": [],
      "name": "rewardToken",
      "outputs": [
        {
          "internalType": "contract IERC20",
          "name": "",
          "type": "address"
        }
      ],
      "stateMutability": "view",
      "type": "function"
    },
    {
      "inputs": [
        {
          "internalType": "uint256",
          "name": "period",
          "type": "uint256"
        }
      ],
      "name": "setRewardPeriod",
      "outputs": [],
      "stateMutability": "nonpayable",
      "type": "function"
    },
    {
      "inputs": [
        {
          "internalType": "uint256",
          "name": "amount",
          "type": "uint256"
        }
      ],
      "name": "stake",
      "outputs": [],
      "stateMutability": "nonpayable",
      "type": "function"
    },
    {
      "inputs": [],
      "name": "stakingToken",
      "outputs": [
        {
          "internalType": "contract IERC20",
          "name": "",
          "type": "address"
        }
      ],
      "stateMutability": "view",
      "type": "function"
    },
    {
      "inputs": [
        {
          "internalType": "uint256",
          "name": "reward",
          "type": "uint256"
        }
      ],
      "name": "startRewardPeriod",
      "outputs": [],
      "stateMutability": "nonpayable",
      "type": "function"
    },
    {
      "inputs": [
        {
          "internalType": "bytes4",
          "name": "interfaceId",
          "type": "bytes4"
        }
      ],
      "name": "supportsInterface",
      "outputs": [
        {
          "internalType": "bool",
          "name": "",
          "type": "bool"
        }
      ],
      "stateMutability": "view",
      "type": "function"
    },
    {
      "inputs": [],
      "name": "totalClaimed",
      "outputs": [
        {
          "internalType": "uint256",
          "name": "",
          "type": "uint256"
        }
      ],
      "stateMutability": "view",
      "type": "function"
    },
    {
      "inputs": [],
      "name": "totalRewardForPeriod",
      "outputs": [
        {
          "internalType": "uint256",
          "name": "",
          "type": "uint256"
        }
      ],
      "stateMutability": "view",
      "type": "function"
    },
    {
      "inputs": [],
      "name": "totalSupply",
      "outputs": [
        {
          "internalType": "uint256",
          "name": "",
          "type": "uint256"
        }
      ],
      "stateMutability": "view",
      "type": "function"
    },
    {
      "inputs": [],
      "name": "unpause",
      "outputs": [],
      "stateMutability": "nonpayable",
      "type": "function"
    },
    {
      "inputs": [
        {
          "internalType": "uint256",
          "name": "amount",
          "type": "uint256"
        }
      ],
      "name": "unstake",
      "outputs": [],
      "stateMutability": "nonpayable",
      "type": "function"
    },
    {
      "inputs": [],
      "name": "unstakeAndClaim",
      "outputs": [],
      "stateMutability": "nonpayable",
      "type": "function"
    },
    {
      "inputs": [
        {
          "internalType": "address",
          "name": "",
          "type": "address"
        }
      ],
      "name": "userRewardPerTokenPaid",
      "outputs": [
        {
          "internalType": "uint256",
          "name": "",
          "type": "uint256"
        }
      ],
      "stateMutability": "view",
      "type": "function"
    }
  ],
  "bytecode": "0x60806040523480156200001157600080fd5b5060405162003fb838038062003fb88339818101604052810190620000379190620003de565b60016000819055506000600260006101000a81548160ff021916908315150217905550600073ffffffffffffffffffffffffffffffffffffffff168373ffffffffffffffffffffffffffffffffffffffff1603620000cc576040517f08c379a0000000000000000000000000000000000000000000000000000000008152600401620000c3906200049b565b60405180910390fd5b600073ffffffffffffffffffffffffffffffffffffffff168273ffffffffffffffffffffffffffffffffffffffff16036200013e576040517f08c379a000000000000000000000000000000000000000000000000000000000815260040162000135906200050d565b60405180910390fd5b82600260016101000a81548173ffffffffffffffffffffffffffffffffffffffff021916908373ffffffffffffffffffffffffffffffffffffffff16021790555081600360006101000a81548173ffffffffffffffffffffffffffffffffffffffff021916908373ffffffffffffffffffffffffffffffffffffffff160217905550620001d56000801b826200021060201b60201c565b620002077fa49807205ce4d355092ef5a8a18f56e8913cf4a201fbe287825b095693c21775826200021060201b60201c565b5050506200052f565b6200022282826200030160201b60201c565b620002fd57600180600084815260200190815260200160002060000160008373ffffffffffffffffffffffffffffffffffffffff1673ffffffffffffffffffffffffffffffffffffffff16815260200190815260200160002060006101000a81548160ff021916908315150217905550620002a26200036c60201b60201c565b73ffffffffffffffffffffffffffffffffffffffff168173ffffffffffffffffffffffffffffffffffffffff16837f2f8788117e7eff1d82e926ec794901d17c78024a50270940304540a733656f0d60405160405180910390a45b5050565b60006001600084815260200190815260200160002060000160008373ffffffffffffffffffffffffffffffffffffffff1673ffffffffffffffffffffffffffffffffffffffff16815260200190815260200160002060009054906101000a900460ff16905092915050565b600033905090565b600080fd5b600073ffffffffffffffffffffffffffffffffffffffff82169050919050565b6000620003a68262000379565b9050919050565b620003b88162000399565b8114620003c457600080fd5b50565b600081519050620003d881620003ad565b92915050565b600080600060608486031215620003fa57620003f962000374565b5b60006200040a86828701620003c7565b93505060206200041d86828701620003c7565b92505060406200043086828701620003c7565b9150509250925092565b600082825260208201905092915050565b7f496e76616c6964207374616b696e6720746f6b656e0000000000000000000000600082015250565b6000620004836015836200043a565b915062000490826200044b565b602082019050919050565b60006020820190508181036000830152620004b68162000474565b9050919050565b7f496e76616c69642072657761726420746f6b656e000000000000000000000000600082015250565b6000620004f56014836200043a565b91506200050282620004bd565b602082019050919050565b600060208201905081810360008301526200052881620004e6565b9050919050565b613a79806200053f6000396000f3fe608060405234801561001057600080fd5b506004361061021b5760003560e01c806375b238fc11610125578063c8f33c91116100ad578063df136d651161007c578063df136d65146105e0578063e88dc5b7146105fe578063ebe2b12b1461061c578063f7c618c11461063a578063f985021a146106585761021b565b8063c8f33c911461056a578063cd3daf9d14610588578063d547741f146105a6578063d54ad2a1146105c25761021b565b80638b876347116100f45780638b876347146104c657806391d14854146104f6578063a217fddf14610526578063a694fc3a14610544578063b88a802f146105605761021b565b806375b238fc146104625780637b0a47ee1461048057806380faa57d1461049e5780638456cb59146104bc5761021b565b806336568abe116101a85780635c975abb116101775780635c975abb146103ce578063670dbba9146103ec5780636f9fb98a146103f657806370a082311461041457806372f702f3146104445761021b565b806336568abe1461036e5780633f4ba83a1461038a57806345cac6b314610394578063592cce56146103b25761021b565b8063248a9ca3116101ef578063248a9ca3146102ba5780632819a630146102ea5780632e17de78146103065780632f2ff15d1461032257806331d7a2621461033e5761021b565b80628cc2621461022057806301ffc9a714610250578063069c9fae1461028057806318160ddd1461029c575b600080fd5b61023a60048036038101906102359190612962565b610662565b60405161024791906129a8565b60405180910390f35b61026a60048036038101906102659190612a1b565b610764565b6040516102779190612a63565b60405180910390f35b61029a60048036038101906102959190612aaa565b6107de565b005b6102a46109a6565b6040516102b191906129a8565b60405180910390f35b6102d460048036038101906102cf9190612b20565b6109ac565b6040516102e19190612b5c565b60405180910390f35b61030460048036038101906102ff9190612b77565b6109cc565b005b610320600480360381019061031b9190612b77565b610ac0565b005b61033c60048036038101906103379190612ba4565b610d87565b005b61035860048036038101906103539190612962565b610da8565b60405161036591906129a8565b60405180910390f35b61038860048036038101906103839190612ba4565b610dc0565b005b610392610e43565b005b61039c610e78565b6040516103a991906129a8565b60405180910390f35b6103cc60048036038101906103c79190612b77565b610e8f565b005b6103d6611125565b6040516103e39190612a63565b60405180910390f35b6103f461113c565b005b6103fe611367565b60405161040b91906129a8565b60405180910390f35b61042e60048036038101906104299190612962565b61140a565b60405161043b91906129a8565b60405180910390f35b61044c611422565b6040516104599190612c43565b60405180910390f35b61046a611448565b6040516104779190612b5c565b60405180910390f35b61048861146c565b60405161049591906129a8565b60405180910390f35b6104a6611472565b6040516104b391906129a8565b60405180910390f35b6104c461148c565b005b6104e060048036038101906104db9190612962565b6114c1565b6040516104ed91906129a8565b60405180910390f35b610510600480360381019061050b9190612ba4565b6114d9565b60405161051d9190612a63565b60405180910390f35b61052e611544565b60405161053b9190612b5c565b60405180910390f35b61055e60048036038101906105599190612b77565b61154b565b005b6105686117de565b005b610572611a1d565b60405161057f91906129a8565b60405180910390f35b610590611a23565b60405161059d91906129a8565b60405180910390f35b6105c060048036038101906105bb9190612ba4565b611a8d565b005b6105ca611aae565b6040516105d791906129a8565b60405180910390f35b6105e8611ab4565b6040516105f591906129a8565b60405180910390f35b610606611aba565b60405161061391906129a8565b60405180910390f35b610624611ac0565b60405161063191906129a8565b60405180910390f35b610642611ac6565b60405161064f9190612c43565b60405180910390f35b610660611aec565b005b6000600d60008373ffffffffffffffffffffffffffffffffffffffff1673ffffffffffffffffffffffffffffffffffffffff16815260200190815260200160002054670de0b6b3a7640000600c60008573ffffffffffffffffffffffffffffffffffffffff1673ffffffffffffffffffffffffffffffffffffffff168152602001908152602001600020546106f5611a23565b6106ff9190612c8d565b600b60008673ffffffffffffffffffffffffffffffffffffffff1673ffffffffffffffffffffffffffffffffffffffff168152602001908152602001600020546107499190612cc1565b6107539190612d32565b61075d9190612d63565b9050919050565b60007f7965db0b000000000000000000000000000000000000000000000000000000007bffffffffffffffffffffffffffffffffffffffffffffffffffffffff1916827bffffffffffffffffffffffffffffffffffffffffffffffffffffffff191614806107d757506107d682611e73565b5b9050919050565b7fa49807205ce4d355092ef5a8a18f56e8913cf4a201fbe287825b095693c2177561080881611edd565b600260019054906101000a900473ffffffffffffffffffffffffffffffffffffffff1673ffffffffffffffffffffffffffffffffffffffff168373ffffffffffffffffffffffffffffffffffffffff1603610898576040517f08c379a000000000000000000000000000000000000000000000000000000000815260040161088f90612df4565b60405180910390fd5b600360009054906101000a900473ffffffffffffffffffffffffffffffffffffffff1673ffffffffffffffffffffffffffffffffffffffff168373ffffffffffffffffffffffffffffffffffffffff1603610928576040517f08c379a000000000000000000000000000000000000000000000000000000000815260040161091f90612e60565b60405180910390fd5b61095333838573ffffffffffffffffffffffffffffffffffffffff16611ef19092919063ffffffff16565b8273ffffffffffffffffffffffffffffffffffffffff167f46d2e6e71fc567877b817ff3d940571f989d4ee4d40f2b70806d36e738feef6f8360405161099991906129a8565b60405180910390a2505050565b60095481565b600060016000838152602001908152602001600020600101549050919050565b7fa49807205ce4d355092ef5a8a18f56e8913cf4a201fbe287825b095693c217756109f681611edd565b600654421015610a3b576040517f08c379a0000000000000000000000000000000000000000000000000000000008152600401610a3290612ecc565b60405180910390fd5b60008211610a7e576040517f08c379a0000000000000000000000000000000000000000000000000000000008152600401610a7590612f38565b60405180910390fd5b816005819055507fae2d3978d18d478ac18076b9b2d699349786b12f5ada304764ecc54720912a0682604051610ab491906129a8565b60405180910390a15050565b610ac8611f77565b33610ad1611a23565b600881905550610adf611472565b600781905550600073ffffffffffffffffffffffffffffffffffffffff168173ffffffffffffffffffffffffffffffffffffffff1614610bac57610b2281610662565b600d60008373ffffffffffffffffffffffffffffffffffffffff1673ffffffffffffffffffffffffffffffffffffffff16815260200190815260200160002081905550600854600c60008373ffffffffffffffffffffffffffffffffffffffff1673ffffffffffffffffffffffffffffffffffffffff168152602001908152602001600020819055505b60008211610bef576040517f08c379a0000000000000000000000000000000000000000000000000000000008152600401610be690612fa4565b60405180910390fd5b81600b60003373ffffffffffffffffffffffffffffffffffffffff1673ffffffffffffffffffffffffffffffffffffffff168152602001908152602001600020541015610c71576040517f08c379a0000000000000000000000000000000000000000000000000000000008152600401610c6890613010565b60405180910390fd5b8160096000828254610c839190612c8d565b9250508190555081600b60003373ffffffffffffffffffffffffffffffffffffffff1673ffffffffffffffffffffffffffffffffffffffff1681526020019081526020016000206000828254610cd99190612c8d565b92505081905550610d2d3383600260019054906101000a900473ffffffffffffffffffffffffffffffffffffffff1673ffffffffffffffffffffffffffffffffffffffff16611ef19092919063ffffffff16565b3373ffffffffffffffffffffffffffffffffffffffff167f0f5bb82176feb1b5e747e28471aa92156a04d9f3ab9f45f28e2d704232b93f7583604051610d7391906129a8565b60405180910390a250610d84611fc6565b50565b610d90826109ac565b610d9981611edd565b610da38383611fd0565b505050565b600d6020528060005260406000206000915090505481565b610dc86120b0565b73ffffffffffffffffffffffffffffffffffffffff168173ffffffffffffffffffffffffffffffffffffffff1614610e35576040517f08c379a0000000000000000000000000000000000000000000000000000000008152600401610e2c906130a2565b60405180910390fd5b610e3f82826120b8565b5050565b7fa49807205ce4d355092ef5a8a18f56e8913cf4a201fbe287825b095693c21775610e6d81611edd565b610e7561219a565b50565b6000600554600454610e8a9190612cc1565b905090565b7fa49807205ce4d355092ef5a8a18f56e8913cf4a201fbe287825b095693c21775610eb981611edd565b6000610ec3611a23565b600881905550610ed1611472565b600781905550600073ffffffffffffffffffffffffffffffffffffffff168173ffffffffffffffffffffffffffffffffffffffff1614610f9e57610f1481610662565b600d60008373ffffffffffffffffffffffffffffffffffffffff1673ffffffffffffffffffffffffffffffffffffffff16815260200190815260200160002081905550600854600c60008373ffffffffffffffffffffffffffffffffffffffff1673ffffffffffffffffffffffffffffffffffffffff168152602001908152602001600020819055505b600654421015610fe3576040517f08c379a0000000000000000000000000000000000000000000000000000000008152600401610fda9061310e565b60405180910390fd5b600060055411611028576040517f08c379a000000000000000000000000000000000000000000000000000000000815260040161101f9061317a565b60405180910390fd5b6000831161106b576040517f08c379a0000000000000000000000000000000000000000000000000000000008152600401611062906131e6565b60405180910390fd5b600554836110799190612d32565b60048190555042600781905550600554426110949190612d63565b6006819055506110e9333085600360009054906101000a900473ffffffffffffffffffffffffffffffffffffffff1673ffffffffffffffffffffffffffffffffffffffff166121fd909392919063ffffffff16565b7f986dbf655b507fd78f1fec768961f56d96a66ad3069c4fb8667db83a45cb63508360405161111891906129a8565b60405180910390a1505050565b6000600260009054906101000a900460ff16905090565b7fa49807205ce4d355092ef5a8a18f56e8913cf4a201fbe287825b095693c2177561116681611edd565b60065442116111aa576040517f08c379a00000000000000000000000000000000000000000000000000000000081526004016111a190613252565b60405180910390fd5b6000600654116111ef576040517f08c379a00000000000000000000000000000000000000000000000000000000081526004016111e6906132be565b60405180910390fd5b6000600954600360009054906101000a900473ffffffffffffffffffffffffffffffffffffffff1673ffffffffffffffffffffffffffffffffffffffff166370a08231306040518263ffffffff1660e01b815260040161124f91906132ed565b602060405180830381865afa15801561126c573d6000803e3d6000fd5b505050506040513d601f19601f82011682018060405250810190611290919061331d565b61129a9190612c8d565b90506000811115611363576112f23382600360009054906101000a900473ffffffffffffffffffffffffffffffffffffffff1673ffffffffffffffffffffffffffffffffffffffff16611ef19092919063ffffffff16565b600360009054906101000a900473ffffffffffffffffffffffffffffffffffffffff1673ffffffffffffffffffffffffffffffffffffffff167f46d2e6e71fc567877b817ff3d940571f989d4ee4d40f2b70806d36e738feef6f8260405161135a91906129a8565b60405180910390a25b5050565b6000600360009054906101000a900473ffffffffffffffffffffffffffffffffffffffff1673ffffffffffffffffffffffffffffffffffffffff166370a08231306040518263ffffffff1660e01b81526004016113c491906132ed565b602060405180830381865afa1580156113e1573d6000803e3d6000fd5b505050506040513d601f19601f82011682018060405250810190611405919061331d565b905090565b600b6020528060005260406000206000915090505481565b600260019054906101000a900473ffffffffffffffffffffffffffffffffffffffff1681565b7fa49807205ce4d355092ef5a8a18f56e8913cf4a201fbe287825b095693c2177581565b60045481565b6000600654421061148557600654611487565b425b905090565b7fa49807205ce4d355092ef5a8a18f56e8913cf4a201fbe287825b095693c217756114b681611edd565b6114be612286565b50565b600c6020528060005260406000206000915090505481565b60006001600084815260200190815260200160002060000160008373ffffffffffffffffffffffffffffffffffffffff1673ffffffffffffffffffffffffffffffffffffffff16815260200190815260200160002060009054906101000a900460ff16905092915050565b6000801b81565b611553611f77565b61155b6122e9565b33611564611a23565b600881905550611572611472565b600781905550600073ffffffffffffffffffffffffffffffffffffffff168173ffffffffffffffffffffffffffffffffffffffff161461163f576115b581610662565b600d60008373ffffffffffffffffffffffffffffffffffffffff1673ffffffffffffffffffffffffffffffffffffffff16815260200190815260200160002081905550600854600c60008373ffffffffffffffffffffffffffffffffffffffff1673ffffffffffffffffffffffffffffffffffffffff168152602001908152602001600020819055505b60008211611682576040517f08c379a000000000000000000000000000000000000000000000000000000000815260040161167990612fa4565b60405180910390fd5b60065442106116c6576040517f08c379a00000000000000000000000000000000000000000000000000000000081526004016116bd90613396565b60405180910390fd5b81600960008282546116d89190612d63565b9250508190555081600b60003373ffffffffffffffffffffffffffffffffffffffff1673ffffffffffffffffffffffffffffffffffffffff168152602001908152602001600020600082825461172e9190612d63565b92505081905550611784333084600260019054906101000a900473ffffffffffffffffffffffffffffffffffffffff1673ffffffffffffffffffffffffffffffffffffffff166121fd909392919063ffffffff16565b3373ffffffffffffffffffffffffffffffffffffffff167f9e71bc8eea02a63969f509818f2dafb9254532904319f9dbda79b67bd34a5f3d836040516117ca91906129a8565b60405180910390a2506117db611fc6565b50565b6117e6611f77565b336117ef611a23565b6008819055506117fd611472565b600781905550600073ffffffffffffffffffffffffffffffffffffffff168173ffffffffffffffffffffffffffffffffffffffff16146118ca5761184081610662565b600d60008373ffffffffffffffffffffffffffffffffffffffff1673ffffffffffffffffffffffffffffffffffffffff16815260200190815260200160002081905550600854600c60008373ffffffffffffffffffffffffffffffffffffffff1673ffffffffffffffffffffffffffffffffffffffff168152602001908152602001600020819055505b6000600d60003373ffffffffffffffffffffffffffffffffffffffff1673ffffffffffffffffffffffffffffffffffffffff1681526020019081526020016000205490506000811115611a11576000600d60003373ffffffffffffffffffffffffffffffffffffffff1673ffffffffffffffffffffffffffffffffffffffff168152602001908152602001600020819055506119a93382600360009054906101000a900473ffffffffffffffffffffffffffffffffffffffff1673ffffffffffffffffffffffffffffffffffffffff16611ef19092919063ffffffff16565b80600a60008282546119bb9190612d63565b925050819055503373ffffffffffffffffffffffffffffffffffffffff167f106f923f993c2149d49b4255ff723acafa1f2d94393f561d3eda32ae348f724182604051611a0891906129a8565b60405180910390a25b5050611a1b611fc6565b565b60075481565b60008060095403611a38576008549050611a8a565b600954670de0b6b3a7640000600454600754611a52611472565b611a5c9190612c8d565b611a669190612cc1565b611a709190612cc1565b611a7a9190612d32565b600854611a879190612d63565b90505b90565b611a96826109ac565b611a9f81611edd565b611aa983836120b8565b505050565b600a5481565b60085481565b60055481565b60065481565b600360009054906101000a900473ffffffffffffffffffffffffffffffffffffffff1681565b611af4611f77565b33611afd611a23565b600881905550611b0b611472565b600781905550600073ffffffffffffffffffffffffffffffffffffffff168173ffffffffffffffffffffffffffffffffffffffff1614611bd857611b4e81610662565b600d60008373ffffffffffffffffffffffffffffffffffffffff1673ffffffffffffffffffffffffffffffffffffffff16815260200190815260200160002081905550600854600c60008373ffffffffffffffffffffffffffffffffffffffff1673ffffffffffffffffffffffffffffffffffffffff168152602001908152602001600020819055505b6000600b60003373ffffffffffffffffffffffffffffffffffffffff1673ffffffffffffffffffffffffffffffffffffffff1681526020019081526020016000205490506000600d60003373ffffffffffffffffffffffffffffffffffffffff1673ffffffffffffffffffffffffffffffffffffffff1681526020019081526020016000205490506000821115611d63578160096000828254611c7b9190612c8d565b925050819055506000600b60003373ffffffffffffffffffffffffffffffffffffffff1673ffffffffffffffffffffffffffffffffffffffff16815260200190815260200160002081905550611d143383600260019054906101000a900473ffffffffffffffffffffffffffffffffffffffff1673ffffffffffffffffffffffffffffffffffffffff16611ef19092919063ffffffff16565b3373ffffffffffffffffffffffffffffffffffffffff167f0f5bb82176feb1b5e747e28471aa92156a04d9f3ab9f45f28e2d704232b93f7583604051611d5a91906129a8565b60405180910390a25b6000811115611e66576000600d60003373ffffffffffffffffffffffffffffffffffffffff1673ffffffffffffffffffffffffffffffffffffffff16815260200190815260200160002081905550611dfe3382600360009054906101000a900473ffffffffffffffffffffffffffffffffffffffff1673ffffffffffffffffffffffffffffffffffffffff16611ef19092919063ffffffff16565b80600a6000828254611e109190612d63565b925050819055503373ffffffffffffffffffffffffffffffffffffffff167f106f923f993c2149d49b4255ff723acafa1f2d94393f561d3eda32ae348f724182604051611e5d91906129a8565b60405180910390a25b505050611e71611fc6565b565b60007f01ffc9a7000000000000000000000000000000000000000000000000000000007bffffffffffffffffffffffffffffffffffffffffffffffffffffffff1916827bffffffffffffffffffffffffffffffffffffffffffffffffffffffff1916149050919050565b611eee81611ee96120b0565b612333565b50565b611f728363a9059cbb60e01b8484604051602401611f109291906133b6565b604051602081830303815290604052907bffffffffffffffffffffffffffffffffffffffffffffffffffffffff19166020820180517bffffffffffffffffffffffffffffffffffffffffffffffffffffffff83818316178352505050506123b8565b505050565b600260005403611fbc576040517f08c379a0000000000000000000000000000000000000000000000000000000008152600401611fb39061342b565b60405180910390fd5b6002600081905550565b6001600081905550565b611fda82826114d9565b6120ac57600180600084815260200190815260200160002060000160008373ffffffffffffffffffffffffffffffffffffffff1673ffffffffffffffffffffffffffffffffffffffff16815260200190815260200160002060006101000a81548160ff0219169083151502179055506120516120b0565b73ffffffffffffffffffffffffffffffffffffffff168173ffffffffffffffffffffffffffffffffffffffff16837f2f8788117e7eff1d82e926ec794901d17c78024a50270940304540a733656f0d60405160405180910390a45b5050565b600033905090565b6120c282826114d9565b156121965760006001600084815260200190815260200160002060000160008373ffffffffffffffffffffffffffffffffffffffff1673ffffffffffffffffffffffffffffffffffffffff16815260200190815260200160002060006101000a81548160ff02191690831515021790555061213b6120b0565b73ffffffffffffffffffffffffffffffffffffffff168173ffffffffffffffffffffffffffffffffffffffff16837ff6391f5c32d9c69d2a47ea670b442974b53935d1edc7fd64eb21e047a839171b60405160405180910390a45b5050565b6121a2612480565b6000600260006101000a81548160ff0219169083151502179055507f5db9ee0a495bf2e6ff9c91a7834c1ba4fdd244a5e8aa4e537bd38aeae4b073aa6121e66120b0565b6040516121f391906132ed565b60405180910390a1565b612280846323b872dd60e01b85858560405160240161221e9392919061344b565b604051602081830303815290604052907bffffffffffffffffffffffffffffffffffffffffffffffffffffffff19166020820180517bffffffffffffffffffffffffffffffffffffffffffffffffffffffff83818316178352505050506123b8565b50505050565b61228e6122e9565b6001600260006101000a81548160ff0219169083151502179055507f62e78cea01bee320cd4e420270b5ea74000d11b0c9f74754ebdbfc544b05a2586122d26120b0565b6040516122df91906132ed565b60405180910390a1565b6122f1611125565b15612331576040517f08c379a0000000000000000000000000000000000000000000000000000000008152600401612328906134ce565b60405180910390fd5b565b61233d82826114d9565b6123b45761234a816124c9565b6123588360001c60206124f6565b6040516020016123699291906135f7565b6040516020818303038152906040526040517f08c379a00000000000000000000000000000000000000000000000000000000081526004016123ab919061367b565b60405180910390fd5b5050565b600061241a826040518060400160405280602081526020017f5361666545524332303a206c6f772d6c6576656c2063616c6c206661696c65648152508573ffffffffffffffffffffffffffffffffffffffff166127329092919063ffffffff16565b905060008151148061243c57508080602001905181019061243b91906136c9565b5b61247b576040517f08c379a000000000000000000000000000000000000000000000000000000000815260040161247290613768565b60405180910390fd5b505050565b612488611125565b6124c7576040517f08c379a00000000000000000000000000000000000000000000000000000000081526004016124be906137d4565b60405180910390fd5b565b60606124ef8273ffffffffffffffffffffffffffffffffffffffff16601460ff166124f6565b9050919050565b6060600060028360026125099190612cc1565b6125139190612d63565b67ffffffffffffffff81111561252c5761252b6137f4565b5b6040519080825280601f01601f19166020018201604052801561255e5781602001600182028036833780820191505090505b5090507f30000000000000000000000000000000000000000000000000000000000000008160008151811061259657612595613823565b5b60200101907effffffffffffffffffffffffffffffffffffffffffffffffffffffffffffff1916908160001a9053507f7800000000000000000000000000000000000000000000000000000000000000816001815181106125fa576125f9613823565b5b60200101907effffffffffffffffffffffffffffffffffffffffffffffffffffffffffffff1916908160001a9053506000600184600261263a9190612cc1565b6126449190612d63565b90505b60018111156126e4577f3031323334353637383961626364656600000000000000000000000000000000600f86166010811061268657612685613823565b5b1a60f81b82828151811061269d5761269c613823565b5b60200101907effffffffffffffffffffffffffffffffffffffffffffffffffffffffffffff1916908160001a905350600485901c9450806126dd90613852565b9050612647565b5060008414612728576040517f08c379a000000000000000000000000000000000000000000000000000000000815260040161271f906138c7565b60405180910390fd5b8091505092915050565b6060612741848460008561274a565b90509392505050565b60608247101561278f576040517f08c379a000000000000000000000000000000000000000000000000000000000815260040161278690613959565b60405180910390fd5b6000808673ffffffffffffffffffffffffffffffffffffffff1685876040516127b891906139c0565b60006040518083038185875af1925050503d80600081146127f5576040519150601f19603f3d011682016040523d82523d6000602084013e6127fa565b606091505b509150915061280b87838387612817565b92505050949350505050565b60608315612879576000835103612871576128318561288c565b612870576040517f08c379a000000000000000000000000000000000000000000000000000000000815260040161286790613a23565b60405180910390fd5b5b829050612884565b61288383836128af565b5b949350505050565b6000808273ffffffffffffffffffffffffffffffffffffffff163b119050919050565b6000825111156128c25781518083602001fd5b806040517f08c379a00000000000000000000000000000000000000000000000000000000081526004016128f6919061367b565b60405180910390fd5b600080fd5b600073ffffffffffffffffffffffffffffffffffffffff82169050919050565b600061292f82612904565b9050919050565b61293f81612924565b811461294a57600080fd5b50565b60008135905061295c81612936565b92915050565b600060208284031215612978576129776128ff565b5b60006129868482850161294d565b91505092915050565b6000819050919050565b6129a28161298f565b82525050565b60006020820190506129bd6000830184612999565b92915050565b60007fffffffff0000000000000000000000000000000000000000000000000000000082169050919050565b6129f8816129c3565b8114612a0357600080fd5b50565b600081359050612a15816129ef565b92915050565b600060208284031215612a3157612a306128ff565b5b6000612a3f84828501612a06565b91505092915050565b60008115159050919050565b612a5d81612a48565b82525050565b6000602082019050612a786000830184612a54565b92915050565b612a878161298f565b8114612a9257600080fd5b50565b600081359050612aa481612a7e565b92915050565b60008060408385031215612ac157612ac06128ff565b5b6000612acf8582860161294d565b9250506020612ae085828601612a95565b9150509250929050565b6000819050919050565b612afd81612aea565b8114612b0857600080fd5b50565b600081359050612b1a81612af4565b92915050565b600060208284031215612b3657612b356128ff565b5b6000612b4484828501612b0b565b91505092915050565b612b5681612aea565b82525050565b6000602082019050612b716000830184612b4d565b92915050565b600060208284031215612b8d57612b8c6128ff565b5b6000612b9b84828501612a95565b91505092915050565b60008060408385031215612bbb57612bba6128ff565b5b6000612bc985828601612b0b565b9250506020612bda8582860161294d565b9150509250929050565b6000819050919050565b6000612c09612c04612bff84612904565b612be4565b612904565b9050919050565b6000612c1b82612bee565b9050919050565b6000612c2d82612c10565b9050919050565b612c3d81612c22565b82525050565b6000602082019050612c586000830184612c34565b92915050565b7f4e487b7100000000000000000000000000000000000000000000000000000000600052601160045260246000fd5b6000612c988261298f565b9150612ca38361298f565b9250828203905081811115612cbb57612cba612c5e565b5b92915050565b6000612ccc8261298f565b9150612cd78361298f565b9250828202612ce58161298f565b91508282048414831517612cfc57612cfb612c5e565b5b5092915050565b7f4e487b7100000000000000000000000000000000000000000000000000000000600052601260045260246000fd5b6000612d3d8261298f565b9150612d488361298f565b925082612d5857612d57612d03565b5b828204905092915050565b6000612d6e8261298f565b9150612d798361298f565b9250828201905080821115612d9157612d90612c5e565b5b92915050565b600082825260208201905092915050565b7f43616e6e6f74207265636f766572207374616b696e6720746f6b656e00000000600082015250565b6000612dde601c83612d97565b9150612de982612da8565b602082019050919050565b60006020820190508181036000830152612e0d81612dd1565b9050919050565b7f43616e6e6f74207265636f7665722072657761726420746f6b656e0000000000600082015250565b6000612e4a601b83612d97565b9150612e5582612e14565b602082019050919050565b60006020820190508181036000830152612e7981612e3d565b9050919050565b7f43757272656e7420706572696f64207374696c6c206163746976650000000000600082015250565b6000612eb6601b83612d97565b9150612ec182612e80565b602082019050919050565b60006020820190508181036000830152612ee581612ea9565b9050919050565b7f506572696f64206d7573742062652067726561746572207468616e2030000000600082015250565b6000612f22601d83612d97565b9150612f2d82612eec565b602082019050919050565b60006020820190508181036000830152612f5181612f15565b9050919050565b7f416d6f756e74206d7573742062652067726561746572207468616e2030000000600082015250565b6000612f8e601d83612d97565b9150612f9982612f58565b602082019050919050565b60006020820190508181036000830152612fbd81612f81565b9050919050565b7f496e73756666696369656e74207374616b65642062616c616e63650000000000600082015250565b6000612ffa601b83612d97565b915061300582612fc4565b602082019050919050565b6000602082019050818103600083015261302981612fed565b9050919050565b7f416363657373436f6e74726f6c3a2063616e206f6e6c792072656e6f756e636560008201527f20726f6c657320666f722073656c660000000000000000000000000000000000602082015250565b600061308c602f83612d97565b915061309782613030565b604082019050919050565b600060208201905081810360008301526130bb8161307f565b9050919050565b7f50726576696f757320706572696f64206e6f742066696e697368656400000000600082015250565b60006130f8601c83612d97565b9150613103826130c2565b602082019050919050565b60006020820190508181036000830152613127816130eb565b9050919050565b7f52657761726420706572696f64206e6f74207365740000000000000000000000600082015250565b6000613164601583612d97565b915061316f8261312e565b602082019050919050565b6000602082019050818103600083015261319381613157565b9050919050565b7f526577617264206d7573742062652067726561746572207468616e2030000000600082015250565b60006131d0601d83612d97565b91506131db8261319a565b602082019050919050565b600060208201905081810360008301526131ff816131c3565b9050919050565b7f506572696f64207374696c6c2061637469766500000000000000000000000000600082015250565b600061323c601383612d97565b915061324782613206565b602082019050919050565b6000602082019050818103600083015261326b8161322f565b9050919050565b7f4e6f20706572696f6420686173206265656e2073746172746564000000000000600082015250565b60006132a8601a83612d97565b91506132b382613272565b602082019050919050565b600060208201905081810360008301526132d78161329b565b9050919050565b6132e781612924565b82525050565b600060208201905061330260008301846132de565b92915050565b60008151905061331781612a7e565b92915050565b600060208284031215613333576133326128ff565b5b600061334184828501613308565b91505092915050565b7f4e6f206163746976652072657761726420706572696f64000000000000000000600082015250565b6000613380601783612d97565b915061338b8261334a565b602082019050919050565b600060208201905081810360008301526133af81613373565b9050919050565b60006040820190506133cb60008301856132de565b6133d86020830184612999565b9392505050565b7f5265656e7472616e637947756172643a207265656e7472616e742063616c6c00600082015250565b6000613415601f83612d97565b9150613420826133df565b602082019050919050565b6000602082019050818103600083015261344481613408565b9050919050565b600060608201905061346060008301866132de565b61346d60208301856132de565b61347a6040830184612999565b949350505050565b7f5061757361626c653a2070617573656400000000000000000000000000000000600082015250565b60006134b8601083612d97565b91506134c382613482565b602082019050919050565b600060208201905081810360008301526134e7816134ab565b9050919050565b600081905092915050565b7f416363657373436f6e74726f6c3a206163636f756e7420000000000000000000600082015250565b600061352f6017836134ee565b915061353a826134f9565b601782019050919050565b600081519050919050565b60005b8381101561356e578082015181840152602081019050613553565b60008484015250505050565b600061358582613545565b61358f81856134ee565b935061359f818560208601613550565b80840191505092915050565b7f206973206d697373696e6720726f6c6520000000000000000000000000000000600082015250565b60006135e16011836134ee565b91506135ec826135ab565b601182019050919050565b600061360282613522565b915061360e828561357a565b9150613619826135d4565b9150613625828461357a565b91508190509392505050565b6000601f19601f8301169050919050565b600061364d82613545565b6136578185612d97565b9350613667818560208601613550565b61367081613631565b840191505092915050565b600060208201905081810360008301526136958184613642565b905092915050565b6136a681612a48565b81146136b157600080fd5b50565b6000815190506136c38161369d565b92915050565b6000602082840312156136df576136de6128ff565b5b60006136ed848285016136b4565b91505092915050565b7f5361666545524332303a204552433230206f7065726174696f6e20646964206e60008201527f6f74207375636365656400000000000000000000000000000000000000000000602082015250565b6000613752602a83612d97565b915061375d826136f6565b604082019050919050565b6000602082019050818103600083015261378181613745565b9050919050565b7f5061757361626c653a206e6f7420706175736564000000000000000000000000600082015250565b60006137be601483612d97565b91506137c982613788565b602082019050919050565b600060208201905081810360008301526137ed816137b1565b9050919050565b7f4e487b7100000000000000000000000000000000000000000000000000000000600052604160045260246000fd5b7f4e487b7100000000000000000000000000000000000000000000000000000000600052603260045260246000fd5b600061385d8261298f565b9150600082036138705761386f612c5e565b5b600182039050919050565b7f537472696e67733a20686578206c656e67746820696e73756666696369656e74600082015250565b60006138b1602083612d97565b91506138bc8261387b565b602082019050919050565b600060208201905081810360008301526138e0816138a4565b9050919050565b7f416464726573733a20696e73756666696369656e742062616c616e636520666f60008201527f722063616c6c0000000000000000000000000000000000000000000000000000602082015250565b6000613943602683612d97565b915061394e826138e7565b604082019050919050565b6000602082019050818103600083015261397281613936565b9050919050565b600081519050919050565b600081905092915050565b600061399a82613979565b6139a48185613984565b93506139b4818560208601613550565b80840191505092915050565b60006139cc828461398f565b915081905092915050565b7f416464726573733a2063616c6c20746f206e6f6e2d636f6e7472616374000000600082015250565b6000613a0d601d83612d97565b9150613a18826139d7565b602082019050919050565b60006020820190508181036000830152613a3c81613a00565b905091905056fea2646970667358221220c6da7ba1ef95f53dec550f1fb91d6065073a9f662063b8455ad0471337885bd864736f6c63430008130033",
  "linkReferences": {},
  "deployedLinkReferences": {}
}