{
  "_format": "hh-sol-artifact-1",
  "contractName": "TokenStaking",
  "sourceName": "contracts/TokenStaking.sol",
  "abi": [
    {
      "inputs": [
        {
          "internalType": "address",
          "name": "_stakingToken",
          "type": "address"
        },
        {
          "internalType": "address",
          "name": "_rewardToken",
          "type": "address"
        },
        {
          "internalType": "address",
          "name": "_admin",
          "type": "address"
        }
      ],
      "stateMutability": "nonpayable",
      "type": "constructor"
    },
    {
      "anonymous": false,
      "inputs": [
        {
          "indexed": false,
          "internalType": "address",
          "name": "account",
          "type": "address"
        }
      ],
      "name": "Paused",
      "type": "event"
    },
    {
      "anonymous": false,
      "inputs": [
        {
          "indexed": true,
          "internalType": "address",
          "name": "user",
          "type": "address"
        },
        {
          "indexed": false,
          "internalType": "uint256",
          "name": "reward",
          "type": "uint256"
        }
      ],
      "name": "RewardClaimed",
      "type": "event"
    },
    {
      "anonymous": false,
      "inputs": [
        {
          "indexed": false,
          "internalType": "uint256",
          "name": "newPeriod",
          "type": "uint256"
        }
      ],
      "name": "RewardPeriodSet",
      "type": "event"
    },
    {
      "anonymous": false,
      "inputs": [
        {
          "indexed": false,
          "internalType": "uint256",
          "name": "reward",
          "type": "uint256"
        }
      ],
      "name": "RewardPeriodStarted",
      "type": "event"
    },
    {
      "anonymous": false,
      "inputs": [
        {
          "indexed": true,
          "internalType": "bytes32",
          "name": "role",
          "type": "bytes32"
        },
        {
          "indexed": true,
          "internalType": "bytes32",
          "name": "previousAdminRole",
          "type": "bytes32"
        },
        {
          "indexed": true,
          "internalType": "bytes32",
          "name": "newAdminRole",
          "type": "bytes32"
        }
      ],
      "name": "RoleAdminChanged",
      "type": "event"
    },
    {
      "anonymous": false,
      "inputs": [
        {
          "indexed": true,
          "internalType": "bytes32",
          "name": "role",
          "type": "bytes32"
        },
        {
          "indexed": true,
          "internalType": "address",
          "name": "account",
          "type": "address"
        },
        {
          "indexed": true,
          "internalType": "address",
          "name": "sender",
          "type": "address"
        }
      ],
      "name": "RoleGranted",
      "type": "event"
    },
    {
      "anonymous": false,
      "inputs": [
        {
          "indexed": true,
          "internalType": "bytes32",
          "name": "role",
          "type": "bytes32"
        },
        {
          "indexed": true,
          "internalType": "address",
          "name": "account",
          "type": "address"
        },
        {
          "indexed": true,
          "internalType": "address",
          "name": "sender",
          "type": "address"
        }
      ],
      "name": "RoleRevoked",
      "type": "event"
    },
    {
      "anonymous": false,
      "inputs": [
        {
          "indexed": true,
          "internalType": "address",
          "name": "user",
          "type": "address"
        },
        {
          "indexed": false,
          "internalType": "uint256",
          "name": "amount",
          "type": "uint256"
        }
      ],
      "name": "Staked",
      "type": "event"
    },
    {
      "anonymous": false,
      "inputs": [
        {
          "indexed": true,
          "internalType": "address",
          "name": "token",
          "type": "address"
        },
        {
          "indexed": false,
          "internalType": "uint256",
          "name": "amount",
          "type": "uint256"
        }
      ],
      "name": "TokensRecovered",
      "type": "event"
    },
    {
      "anonymous": false,
      "inputs": [
        {
          "indexed": false,
          "internalType": "address",
          "name": "account",
          "type": "address"
        }
      ],
      "name": "Unpaused",
      "type": "event"
    },
    {
      "anonymous": false,
      "inputs": [
        {
          "indexed": true,
          "internalType": "address",
          "name": "user",
          "type": "address"
        },
        {
          "indexed": false,
          "internalType": "uint256",
          "name": "amount",
          "type": "uint256"
        }
      ],
      "name": "Unstaked",
      "type": "event"
    },
    {
      "inputs": [],
      "name": "ADMIN_ROLE",
      "outputs": [
        {
          "internalType": "bytes32",
          "name": "",
          "type": "bytes32"
        }
      ],
      "stateMutability": "view",
      "type": "function"
    },
    {
      "inputs": [],
      "name": "DEFAULT_ADMIN_ROLE",
      "outputs": [
        {
          "internalType": "bytes32",
          "name": "",
          "type": "bytes32"
        }
      ],
      "stateMutability": "view",
      "type": "function"
    },
    {
      "inputs": [
        {
          "internalType": "address",
          "name": "",
          "type": "address"
        }
      ],
      "name": "balanceOf",
      "outputs": [
        {
          "internalType": "uint256",
          "name": "",
          "type": "uint256"
        }
      ],
      "stateMutability": "view",
      "type": "function"
    },
    {
      "inputs": [],
      "name": "claimReward",
      "outputs": [],
      "stateMutability": "nonpayable",
      "type": "function"
    },
    {
      "inputs": [
        {
          "internalType": "address",
          "name": "account",
          "type": "address"
        }
      ],
      "name": "earned",
      "outputs": [
        {
          "internalType": "uint256",
          "name": "",
          "type": "uint256"
        }
      ],
      "stateMutability": "view",
      "type": "function"
    },
    {
      "inputs": [],
      "name": "getContractBalance",
      "outputs": [
        {
          "internalType": "uint256",
          "name": "",
          "type": "uint256"
        }
      ],
      "stateMutability": "view",
      "type": "function"
    },
    {
      "inputs": [
        {
          "internalType": "bytes32",
          "name": "role",
          "type": "bytes32"
        }
      ],
      "name": "getRoleAdmin",
      "outputs": [
        {
          "internalType": "bytes32",
          "name": "",
          "type": "bytes32"
        }
      ],
      "stateMutability": "view",
      "type": "function"
    },
    {
      "inputs": [
        {
          "internalType": "bytes32",
          "name": "role",
          "type": "bytes32"
        },
        {
          "internalType": "address",
          "name": "account",
          "type": "address"
        }
      ],
      "name": "grantRole",
      "outputs": [],
      "stateMutability": "nonpayable",
      "type": "function"
    },
    {
      "inputs": [
        {
          "internalType": "bytes32",
          "name": "role",
          "type": "bytes32"
        },
        {
          "internalType": "address",
          "name": "account",
          "type": "address"
        }
      ],
      "name": "hasRole",
      "outputs": [
        {
          "internalType": "bool",
          "name": "",
          "type": "bool"
        }
      ],
      "stateMutability": "view",
      "type": "function"
    },
    {
      "inputs": [],
      "name": "lastTimeRewardApplicable",
      "outputs": [
        {
          "internalType": "uint256",
          "name": "",
          "type": "uint256"
        }
      ],
      "stateMutability": "view",
      "type": "function"
    },
    {
      "inputs": [],
      "name": "lastUpdateTime",
      "outputs": [
        {
          "internalType": "uint256",
          "name": "",
          "type": "uint256"
        }
      ],
      "stateMutability": "view",
      "type": "function"
    },
    {
      "inputs": [],
      "name": "pause",
      "outputs": [],
      "stateMutability": "nonpayable",
      "type": "function"
    },
    {
      "inputs": [],
      "name": "paused",
      "outputs": [
        {
          "internalType": "bool",
          "name": "",
          "type": "bool"
        }
      ],
      "stateMutability": "view",
      "type": "function"
    },
    {
      "inputs": [
        {
          "internalType": "address",
          "name": "",
          "type": "address"
        }
      ],
      "name": "pendingRewards",
      "outputs": [
        {
          "internalType": "uint256",
          "name": "",
          "type": "uint256"
        }
      ],
      "stateMutability": "view",
      "type": "function"
    },
    {
      "inputs": [],
      "name": "periodFinish",
      "outputs": [
        {
          "internalType": "uint256",
          "name": "",
          "type": "uint256"
        }
      ],
      "stateMutability": "view",
      "type": "function"
    },
    {
      "inputs": [
        {
          "internalType": "address",
          "name": "tokenAddress",
          "type": "address"
        },
        {
          "internalType": "uint256",
          "name": "amount",
          "type": "uint256"
        }
      ],
      "name": "recoverTokens",
      "outputs": [],
      "stateMutability": "nonpayable",
      "type": "function"
    },
    {
      "inputs": [
        {
          "internalType": "bytes32",
          "name": "role",
          "type": "bytes32"
        },
        {
          "internalType": "address",
          "name": "account",
          "type": "address"
        }
      ],
      "name": "renounceRole",
      "outputs": [],
      "stateMutability": "nonpayable",
      "type": "function"
    },
    {
      "inputs": [
        {
          "internalType": "bytes32",
          "name": "role",
          "type": "bytes32"
        },
        {
          "internalType": "address",
          "name": "account",
          "type": "address"
        }
      ],
      "name": "revokeRole",
      "outputs": [],
      "stateMutability": "nonpayable",
      "type": "function"
    },
    {
      "inputs": [],
      "name": "rewardPerToken",
      "outputs": [
        {
          "internalType": "uint256",
          "name": "",
          "type": "uint256"
        }
      ],
      "stateMutability": "view",
      "type": "function"
    },
    {
      "inputs": [],
      "name": "rewardPerTokenStored",
      "outputs": [
        {
          "internalType": "uint256",
          "name": "",
          "type": "uint256"
        }
      ],
      "stateMutability": "view",
      "type": "function"
    },
    {
      "inputs": [],
      "name": "rewardPeriod",
      "outputs": [
        {
          "internalType": "uint256",
          "name": "",
          "type": "uint256"
        }
      ],
      "stateMutability": "view",
      "type": "function"
    },
    {
      "inputs": [],
      "name": "rewardRate",
      "outputs": [
        {
          "internalType": "uint256",
          "name": "",
          "type": "uint256"
        }
      ],
      "stateMutability": "view",
      "type": "function"
    },
    {
      "inputs": [],
      "name": "rewardToken",
      "outputs": [
        {
          "internalType": "contract IERC20",
          "name": "",
          "type": "address"
        }
      ],
      "stateMutability": "view",
      "type": "function"
    },
    {
      "inputs": [
        {
          "internalType": "uint256",
          "name": "period",
          "type": "uint256"
        }
      ],
      "name": "setRewardPeriod",
      "outputs": [],
      "stateMutability": "nonpayable",
      "type": "function"
    },
    {
      "inputs": [
        {
          "internalType": "uint256",
          "name": "amount",
          "type": "uint256"
        }
      ],
      "name": "stake",
      "outputs": [],
      "stateMutability": "nonpayable",
      "type": "function"
    },
    {
      "inputs": [],
      "name": "stakingToken",
      "outputs": [
        {
          "internalType": "contract IERC20",
          "name": "",
          "type": "address"
        }
      ],
      "stateMutability": "view",
      "type": "function"
    },
    {
      "inputs": [
        {
          "internalType": "uint256",
          "name": "reward",
          "type": "uint256"
        }
      ],
      "name": "startRewardPeriod",
      "outputs": [],
      "stateMutability": "nonpayable",
      "type": "function"
    },
    {
      "inputs": [
        {
          "internalType": "bytes4",
          "name": "interfaceId",
          "type": "bytes4"
        }
      ],
      "name": "supportsInterface",
      "outputs": [
        {
          "internalType": "bool",
          "name": "",
          "type": "bool"
        }
      ],
      "stateMutability": "view",
      "type": "function"
    },
    {
      "inputs": [],
      "name": "totalClaimed",
      "outputs": [
        {
          "internalType": "uint256",
          "name": "",
          "type": "uint256"
        }
      ],
      "stateMutability": "view",
      "type": "function"
    },
    {
      "inputs": [],
      "name": "totalRewardForPeriod",
      "outputs": [
        {
          "internalType": "uint256",
          "name": "",
          "type": "uint256"
        }
      ],
      "stateMutability": "view",
      "type": "function"
    },
    {
      "inputs": [],
      "name": "totalSupply",
      "outputs": [
        {
          "internalType": "uint256",
          "name": "",
          "type": "uint256"
        }
      ],
      "stateMutability": "view",
      "type": "function"
    },
    {
      "inputs": [],
      "name": "unpause",
      "outputs": [],
      "stateMutability": "nonpayable",
      "type": "function"
    },
    {
      "inputs": [
        {
          "internalType": "uint256",
          "name": "amount",
          "type": "uint256"
        }
      ],
      "name": "unstake",
      "outputs": [],
      "stateMutability": "nonpayable",
      "type": "function"
    },
    {
      "inputs": [],
      "name": "unstakeAndClaim",
      "outputs": [],
      "stateMutability": "nonpayable",
      "type": "function"
    },
    {
      "inputs": [
        {
          "internalType": "address",
          "name": "",
          "type": "address"
        }
      ],
      "name": "userRewardPerTokenPaid",
      "outputs": [
        {
          "internalType": "uint256",
          "name": "",
          "type": "uint256"
        }
      ],
      "stateMutability": "view",
      "type": "function"
    }
  ],
  "bytecode": "0x60806040523480156200001157600080fd5b5060405162003ca038038062003ca08339818101604052810190620000379190620003de565b60016000819055506000600260006101000a81548160ff021916908315150217905550600073ffffffffffffffffffffffffffffffffffffffff168373ffffffffffffffffffffffffffffffffffffffff1603620000cc576040517f08c379a0000000000000000000000000000000000000000000000000000000008152600401620000c3906200049b565b60405180910390fd5b600073ffffffffffffffffffffffffffffffffffffffff168273ffffffffffffffffffffffffffffffffffffffff16036200013e576040517f08c379a000000000000000000000000000000000000000000000000000000000815260040162000135906200050d565b60405180910390fd5b82600260016101000a81548173ffffffffffffffffffffffffffffffffffffffff021916908373ffffffffffffffffffffffffffffffffffffffff16021790555081600360006101000a81548173ffffffffffffffffffffffffffffffffffffffff021916908373ffffffffffffffffffffffffffffffffffffffff160217905550620001d56000801b826200021060201b60201c565b620002077fa49807205ce4d355092ef5a8a18f56e8913cf4a201fbe287825b095693c21775826200021060201b60201c565b5050506200052f565b6200022282826200030160201b60201c565b620002fd57600180600084815260200190815260200160002060000160008373ffffffffffffffffffffffffffffffffffffffff1673ffffffffffffffffffffffffffffffffffffffff16815260200190815260200160002060006101000a81548160ff021916908315150217905550620002a26200036c60201b60201c565b73ffffffffffffffffffffffffffffffffffffffff168173ffffffffffffffffffffffffffffffffffffffff16837f2f8788117e7eff1d82e926ec794901d17c78024a50270940304540a733656f0d60405160405180910390a45b5050565b60006001600084815260200190815260200160002060000160008373ffffffffffffffffffffffffffffffffffffffff1673ffffffffffffffffffffffffffffffffffffffff16815260200190815260200160002060009054906101000a900460ff16905092915050565b600033905090565b600080fd5b600073ffffffffffffffffffffffffffffffffffffffff82169050919050565b6000620003a68262000379565b9050919050565b620003b88162000399565b8114620003c457600080fd5b50565b600081519050620003d881620003ad565b92915050565b600080600060608486031215620003fa57620003f962000374565b5b60006200040a86828701620003c7565b93505060206200041d86828701620003c7565b92505060406200043086828701620003c7565b9150509250925092565b600082825260208201905092915050565b7f496e76616c6964207374616b696e6720746f6b656e0000000000000000000000600082015250565b6000620004836015836200043a565b915062000490826200044b565b602082019050919050565b60006020820190508181036000830152620004b68162000474565b9050919050565b7f496e76616c69642072657761726420746f6b656e000000000000000000000000600082015250565b6000620004f56014836200043a565b91506200050282620004bd565b602082019050919050565b600060208201905081810360008301526200052881620004e6565b9050919050565b613761806200053f6000396000f3fe608060405234801561001057600080fd5b50600436106102105760003560e01c806375b238fc11610125578063c8f33c91116100ad578063df136d651161007c578063df136d65146105cb578063e88dc5b7146105e9578063ebe2b12b14610607578063f7c618c114610625578063f985021a1461064357610210565b8063c8f33c9114610555578063cd3daf9d14610573578063d547741f14610591578063d54ad2a1146105ad57610210565b80638b876347116100f45780638b876347146104b157806391d14854146104e1578063a217fddf14610511578063a694fc3a1461052f578063b88a802f1461054b57610210565b806375b238fc1461044d5780637b0a47ee1461046b57806380faa57d146104895780638456cb59146104a757610210565b806331d7a262116101a8578063592cce5611610177578063592cce56146103a75780635c975abb146103c35780636f9fb98a146103e157806370a08231146103ff57806372f702f31461042f57610210565b806331d7a2621461033357806336568abe146103635780633f4ba83a1461037f57806345cac6b31461038957610210565b8063248a9ca3116101e4578063248a9ca3146102af5780632819a630146102df5780632e17de78146102fb5780632f2ff15d1461031757610210565b80628cc2621461021557806301ffc9a714610245578063069c9fae1461027557806318160ddd14610291575b600080fd5b61022f600480360381019061022a9190612722565b61064d565b60405161023c9190612768565b60405180910390f35b61025f600480360381019061025a91906127db565b61074f565b60405161026c9190612823565b60405180910390f35b61028f600480360381019061028a919061286a565b6107c9565b005b610299610991565b6040516102a69190612768565b60405180910390f35b6102c960048036038101906102c491906128e0565b610997565b6040516102d6919061291c565b60405180910390f35b6102f960048036038101906102f49190612937565b6109b7565b005b61031560048036038101906103109190612937565b610aab565b005b610331600480360381019061032c9190612964565b610d72565b005b61034d60048036038101906103489190612722565b610d93565b60405161035a9190612768565b60405180910390f35b61037d60048036038101906103789190612964565b610dab565b005b610387610e2e565b005b610391610e63565b60405161039e9190612768565b60405180910390f35b6103c160048036038101906103bc9190612937565b610e7a565b005b6103cb611110565b6040516103d89190612823565b60405180910390f35b6103e9611127565b6040516103f69190612768565b60405180910390f35b61041960048036038101906104149190612722565b6111ca565b6040516104269190612768565b60405180910390f35b6104376111e2565b6040516104449190612a03565b60405180910390f35b610455611208565b604051610462919061291c565b60405180910390f35b61047361122c565b6040516104809190612768565b60405180910390f35b610491611232565b60405161049e9190612768565b60405180910390f35b6104af61124c565b005b6104cb60048036038101906104c69190612722565b611281565b6040516104d89190612768565b60405180910390f35b6104fb60048036038101906104f69190612964565b611299565b6040516105089190612823565b60405180910390f35b610519611304565b604051610526919061291c565b60405180910390f35b61054960048036038101906105449190612937565b61130b565b005b61055361159e565b005b61055d6117dd565b60405161056a9190612768565b60405180910390f35b61057b6117e3565b6040516105889190612768565b60405180910390f35b6105ab60048036038101906105a69190612964565b61184d565b005b6105b561186e565b6040516105c29190612768565b60405180910390f35b6105d3611874565b6040516105e09190612768565b60405180910390f35b6105f161187a565b6040516105fe9190612768565b60405180910390f35b61060f611880565b60405161061c9190612768565b60405180910390f35b61062d611886565b60405161063a9190612a03565b60405180910390f35b61064b6118ac565b005b6000600d60008373ffffffffffffffffffffffffffffffffffffffff1673ffffffffffffffffffffffffffffffffffffffff16815260200190815260200160002054670de0b6b3a7640000600c60008573ffffffffffffffffffffffffffffffffffffffff1673ffffffffffffffffffffffffffffffffffffffff168152602001908152602001600020546106e06117e3565b6106ea9190612a4d565b600b60008673ffffffffffffffffffffffffffffffffffffffff1673ffffffffffffffffffffffffffffffffffffffff168152602001908152602001600020546107349190612a81565b61073e9190612af2565b6107489190612b23565b9050919050565b60007f7965db0b000000000000000000000000000000000000000000000000000000007bffffffffffffffffffffffffffffffffffffffffffffffffffffffff1916827bffffffffffffffffffffffffffffffffffffffffffffffffffffffff191614806107c257506107c182611c33565b5b9050919050565b7fa49807205ce4d355092ef5a8a18f56e8913cf4a201fbe287825b095693c217756107f381611c9d565b600260019054906101000a900473ffffffffffffffffffffffffffffffffffffffff1673ffffffffffffffffffffffffffffffffffffffff168373ffffffffffffffffffffffffffffffffffffffff1603610883576040517f08c379a000000000000000000000000000000000000000000000000000000000815260040161087a90612bb4565b60405180910390fd5b600360009054906101000a900473ffffffffffffffffffffffffffffffffffffffff1673ffffffffffffffffffffffffffffffffffffffff168373ffffffffffffffffffffffffffffffffffffffff1603610913576040517f08c379a000000000000000000000000000000000000000000000000000000000815260040161090a90612c20565b60405180910390fd5b61093e33838573ffffffffffffffffffffffffffffffffffffffff16611cb19092919063ffffffff16565b8273ffffffffffffffffffffffffffffffffffffffff167f46d2e6e71fc567877b817ff3d940571f989d4ee4d40f2b70806d36e738feef6f836040516109849190612768565b60405180910390a2505050565b60095481565b600060016000838152602001908152602001600020600101549050919050565b7fa49807205ce4d355092ef5a8a18f56e8913cf4a201fbe287825b095693c217756109e181611c9d565b600654421015610a26576040517f08c379a0000000000000000000000000000000000000000000000000000000008152600401610a1d90612c8c565b60405180910390fd5b60008211610a69576040517f08c379a0000000000000000000000000000000000000000000000000000000008152600401610a6090612cf8565b60405180910390fd5b816005819055507fae2d3978d18d478ac18076b9b2d699349786b12f5ada304764ecc54720912a0682604051610a9f9190612768565b60405180910390a15050565b610ab3611d37565b33610abc6117e3565b600881905550610aca611232565b600781905550600073ffffffffffffffffffffffffffffffffffffffff168173ffffffffffffffffffffffffffffffffffffffff1614610b9757610b0d8161064d565b600d60008373ffffffffffffffffffffffffffffffffffffffff1673ffffffffffffffffffffffffffffffffffffffff16815260200190815260200160002081905550600854600c60008373ffffffffffffffffffffffffffffffffffffffff1673ffffffffffffffffffffffffffffffffffffffff168152602001908152602001600020819055505b60008211610bda576040517f08c379a0000000000000000000000000000000000000000000000000000000008152600401610bd190612d64565b60405180910390fd5b81600b60003373ffffffffffffffffffffffffffffffffffffffff1673ffffffffffffffffffffffffffffffffffffffff168152602001908152602001600020541015610c5c576040517f08c379a0000000000000000000000000000000000000000000000000000000008152600401610c5390612dd0565b60405180910390fd5b8160096000828254610c6e9190612a4d565b9250508190555081600b60003373ffffffffffffffffffffffffffffffffffffffff1673ffffffffffffffffffffffffffffffffffffffff1681526020019081526020016000206000828254610cc49190612a4d565b92505081905550610d183383600260019054906101000a900473ffffffffffffffffffffffffffffffffffffffff1673ffffffffffffffffffffffffffffffffffffffff16611cb19092919063ffffffff16565b3373ffffffffffffffffffffffffffffffffffffffff167f0f5bb82176feb1b5e747e28471aa92156a04d9f3ab9f45f28e2d704232b93f7583604051610d5e9190612768565b60405180910390a250610d6f611d86565b50565b610d7b82610997565b610d8481611c9d565b610d8e8383611d90565b505050565b600d6020528060005260406000206000915090505481565b610db3611e70565b73ffffffffffffffffffffffffffffffffffffffff168173ffffffffffffffffffffffffffffffffffffffff1614610e20576040517f08c379a0000000000000000000000000000000000000000000000000000000008152600401610e1790612e62565b60405180910390fd5b610e2a8282611e78565b5050565b7fa49807205ce4d355092ef5a8a18f56e8913cf4a201fbe287825b095693c21775610e5881611c9d565b610e60611f5a565b50565b6000600554600454610e759190612a81565b905090565b7fa49807205ce4d355092ef5a8a18f56e8913cf4a201fbe287825b095693c21775610ea481611c9d565b6000610eae6117e3565b600881905550610ebc611232565b600781905550600073ffffffffffffffffffffffffffffffffffffffff168173ffffffffffffffffffffffffffffffffffffffff1614610f8957610eff8161064d565b600d60008373ffffffffffffffffffffffffffffffffffffffff1673ffffffffffffffffffffffffffffffffffffffff16815260200190815260200160002081905550600854600c60008373ffffffffffffffffffffffffffffffffffffffff1673ffffffffffffffffffffffffffffffffffffffff168152602001908152602001600020819055505b600654421015610fce576040517f08c379a0000000000000000000000000000000000000000000000000000000008152600401610fc590612ece565b60405180910390fd5b600060055411611013576040517f08c379a000000000000000000000000000000000000000000000000000000000815260040161100a90612f3a565b60405180910390fd5b60008311611056576040517f08c379a000000000000000000000000000000000000000000000000000000000815260040161104d90612fa6565b60405180910390fd5b600554836110649190612af2565b600481905550426007819055506005544261107f9190612b23565b6006819055506110d4333085600360009054906101000a900473ffffffffffffffffffffffffffffffffffffffff1673ffffffffffffffffffffffffffffffffffffffff16611fbd909392919063ffffffff16565b7f986dbf655b507fd78f1fec768961f56d96a66ad3069c4fb8667db83a45cb6350836040516111039190612768565b60405180910390a1505050565b6000600260009054906101000a900460ff16905090565b6000600360009054906101000a900473ffffffffffffffffffffffffffffffffffffffff1673ffffffffffffffffffffffffffffffffffffffff166370a08231306040518263ffffffff1660e01b81526004016111849190612fd5565b602060405180830381865afa1580156111a1573d6000803e3d6000fd5b505050506040513d601f19601f820116820180604052508101906111c59190613005565b905090565b600b6020528060005260406000206000915090505481565b600260019054906101000a900473ffffffffffffffffffffffffffffffffffffffff1681565b7fa49807205ce4d355092ef5a8a18f56e8913cf4a201fbe287825b095693c2177581565b60045481565b6000600654421061124557600654611247565b425b905090565b7fa49807205ce4d355092ef5a8a18f56e8913cf4a201fbe287825b095693c2177561127681611c9d565b61127e612046565b50565b600c6020528060005260406000206000915090505481565b60006001600084815260200190815260200160002060000160008373ffffffffffffffffffffffffffffffffffffffff1673ffffffffffffffffffffffffffffffffffffffff16815260200190815260200160002060009054906101000a900460ff16905092915050565b6000801b81565b611313611d37565b61131b6120a9565b336113246117e3565b600881905550611332611232565b600781905550600073ffffffffffffffffffffffffffffffffffffffff168173ffffffffffffffffffffffffffffffffffffffff16146113ff576113758161064d565b600d60008373ffffffffffffffffffffffffffffffffffffffff1673ffffffffffffffffffffffffffffffffffffffff16815260200190815260200160002081905550600854600c60008373ffffffffffffffffffffffffffffffffffffffff1673ffffffffffffffffffffffffffffffffffffffff168152602001908152602001600020819055505b60008211611442576040517f08c379a000000000000000000000000000000000000000000000000000000000815260040161143990612d64565b60405180910390fd5b6006544210611486576040517f08c379a000000000000000000000000000000000000000000000000000000000815260040161147d9061307e565b60405180910390fd5b81600960008282546114989190612b23565b9250508190555081600b60003373ffffffffffffffffffffffffffffffffffffffff1673ffffffffffffffffffffffffffffffffffffffff16815260200190815260200160002060008282546114ee9190612b23565b92505081905550611544333084600260019054906101000a900473ffffffffffffffffffffffffffffffffffffffff1673ffffffffffffffffffffffffffffffffffffffff16611fbd909392919063ffffffff16565b3373ffffffffffffffffffffffffffffffffffffffff167f9e71bc8eea02a63969f509818f2dafb9254532904319f9dbda79b67bd34a5f3d8360405161158a9190612768565b60405180910390a25061159b611d86565b50565b6115a6611d37565b336115af6117e3565b6008819055506115bd611232565b600781905550600073ffffffffffffffffffffffffffffffffffffffff168173ffffffffffffffffffffffffffffffffffffffff161461168a576116008161064d565b600d60008373ffffffffffffffffffffffffffffffffffffffff1673ffffffffffffffffffffffffffffffffffffffff16815260200190815260200160002081905550600854600c60008373ffffffffffffffffffffffffffffffffffffffff1673ffffffffffffffffffffffffffffffffffffffff168152602001908152602001600020819055505b6000600d60003373ffffffffffffffffffffffffffffffffffffffff1673ffffffffffffffffffffffffffffffffffffffff16815260200190815260200160002054905060008111156117d1576000600d60003373ffffffffffffffffffffffffffffffffffffffff1673ffffffffffffffffffffffffffffffffffffffff168152602001908152602001600020819055506117693382600360009054906101000a900473ffffffffffffffffffffffffffffffffffffffff1673ffffffffffffffffffffffffffffffffffffffff16611cb19092919063ffffffff16565b80600a600082825461177b9190612b23565b925050819055503373ffffffffffffffffffffffffffffffffffffffff167f106f923f993c2149d49b4255ff723acafa1f2d94393f561d3eda32ae348f7241826040516117c89190612768565b60405180910390a25b50506117db611d86565b565b60075481565b600080600954036117f857600854905061184a565b600954670de0b6b3a7640000600454600754611812611232565b61181c9190612a4d565b6118269190612a81565b6118309190612a81565b61183a9190612af2565b6008546118479190612b23565b90505b90565b61185682610997565b61185f81611c9d565b6118698383611e78565b505050565b600a5481565b60085481565b60055481565b60065481565b600360009054906101000a900473ffffffffffffffffffffffffffffffffffffffff1681565b6118b4611d37565b336118bd6117e3565b6008819055506118cb611232565b600781905550600073ffffffffffffffffffffffffffffffffffffffff168173ffffffffffffffffffffffffffffffffffffffff16146119985761190e8161064d565b600d60008373ffffffffffffffffffffffffffffffffffffffff1673ffffffffffffffffffffffffffffffffffffffff16815260200190815260200160002081905550600854600c60008373ffffffffffffffffffffffffffffffffffffffff1673ffffffffffffffffffffffffffffffffffffffff168152602001908152602001600020819055505b6000600b60003373ffffffffffffffffffffffffffffffffffffffff1673ffffffffffffffffffffffffffffffffffffffff1681526020019081526020016000205490506000600d60003373ffffffffffffffffffffffffffffffffffffffff1673ffffffffffffffffffffffffffffffffffffffff1681526020019081526020016000205490506000821115611b23578160096000828254611a3b9190612a4d565b925050819055506000600b60003373ffffffffffffffffffffffffffffffffffffffff1673ffffffffffffffffffffffffffffffffffffffff16815260200190815260200160002081905550611ad43383600260019054906101000a900473ffffffffffffffffffffffffffffffffffffffff1673ffffffffffffffffffffffffffffffffffffffff16611cb19092919063ffffffff16565b3373ffffffffffffffffffffffffffffffffffffffff167f0f5bb82176feb1b5e747e28471aa92156a04d9f3ab9f45f28e2d704232b93f7583604051611b1a9190612768565b60405180910390a25b6000811115611c26576000600d60003373ffffffffffffffffffffffffffffffffffffffff1673ffffffffffffffffffffffffffffffffffffffff16815260200190815260200160002081905550611bbe3382600360009054906101000a900473ffffffffffffffffffffffffffffffffffffffff1673ffffffffffffffffffffffffffffffffffffffff16611cb19092919063ffffffff16565b80600a6000828254611bd09190612b23565b925050819055503373ffffffffffffffffffffffffffffffffffffffff167f106f923f993c2149d49b4255ff723acafa1f2d94393f561d3eda32ae348f724182604051611c1d9190612768565b60405180910390a25b505050611c31611d86565b565b60007f01ffc9a7000000000000000000000000000000000000000000000000000000007bffffffffffffffffffffffffffffffffffffffffffffffffffffffff1916827bffffffffffffffffffffffffffffffffffffffffffffffffffffffff1916149050919050565b611cae81611ca9611e70565b6120f3565b50565b611d328363a9059cbb60e01b8484604051602401611cd092919061309e565b604051602081830303815290604052907bffffffffffffffffffffffffffffffffffffffffffffffffffffffff19166020820180517bffffffffffffffffffffffffffffffffffffffffffffffffffffffff8381831617835250505050612178565b505050565b600260005403611d7c576040517f08c379a0000000000000000000000000000000000000000000000000000000008152600401611d7390613113565b60405180910390fd5b6002600081905550565b6001600081905550565b611d9a8282611299565b611e6c57600180600084815260200190815260200160002060000160008373ffffffffffffffffffffffffffffffffffffffff1673ffffffffffffffffffffffffffffffffffffffff16815260200190815260200160002060006101000a81548160ff021916908315150217905550611e11611e70565b73ffffffffffffffffffffffffffffffffffffffff168173ffffffffffffffffffffffffffffffffffffffff16837f2f8788117e7eff1d82e926ec794901d17c78024a50270940304540a733656f0d60405160405180910390a45b5050565b600033905090565b611e828282611299565b15611f565760006001600084815260200190815260200160002060000160008373ffffffffffffffffffffffffffffffffffffffff1673ffffffffffffffffffffffffffffffffffffffff16815260200190815260200160002060006101000a81548160ff021916908315150217905550611efb611e70565b73ffffffffffffffffffffffffffffffffffffffff168173ffffffffffffffffffffffffffffffffffffffff16837ff6391f5c32d9c69d2a47ea670b442974b53935d1edc7fd64eb21e047a839171b60405160405180910390a45b5050565b611f62612240565b6000600260006101000a81548160ff0219169083151502179055507f5db9ee0a495bf2e6ff9c91a7834c1ba4fdd244a5e8aa4e537bd38aeae4b073aa611fa6611e70565b604051611fb39190612fd5565b60405180910390a1565b612040846323b872dd60e01b858585604051602401611fde93929190613133565b604051602081830303815290604052907bffffffffffffffffffffffffffffffffffffffffffffffffffffffff19166020820180517bffffffffffffffffffffffffffffffffffffffffffffffffffffffff8381831617835250505050612178565b50505050565b61204e6120a9565b6001600260006101000a81548160ff0219169083151502179055507f62e78cea01bee320cd4e420270b5ea74000d11b0c9f74754ebdbfc544b05a258612092611e70565b60405161209f9190612fd5565b60405180910390a1565b6120b1611110565b156120f1576040517f08c379a00000000000000000000000000000000000000000000000000000000081526004016120e8906131b6565b60405180910390fd5b565b6120fd8282611299565b6121745761210a81612289565b6121188360001c60206122b6565b6040516020016121299291906132df565b6040516020818303038152906040526040517f08c379a000000000000000000000000000000000000000000000000000000000815260040161216b9190613363565b60405180910390fd5b5050565b60006121da826040518060400160405280602081526020017f5361666545524332303a206c6f772d6c6576656c2063616c6c206661696c65648152508573ffffffffffffffffffffffffffffffffffffffff166124f29092919063ffffffff16565b90506000815114806121fc5750808060200190518101906121fb91906133b1565b5b61223b576040517f08c379a000000000000000000000000000000000000000000000000000000000815260040161223290613450565b60405180910390fd5b505050565b612248611110565b612287576040517f08c379a000000000000000000000000000000000000000000000000000000000815260040161227e906134bc565b60405180910390fd5b565b60606122af8273ffffffffffffffffffffffffffffffffffffffff16601460ff166122b6565b9050919050565b6060600060028360026122c99190612a81565b6122d39190612b23565b67ffffffffffffffff8111156122ec576122eb6134dc565b5b6040519080825280601f01601f19166020018201604052801561231e5781602001600182028036833780820191505090505b5090507f3000000000000000000000000000000000000000000000000000000000000000816000815181106123565761235561350b565b5b60200101907effffffffffffffffffffffffffffffffffffffffffffffffffffffffffffff1916908160001a9053507f7800000000000000000000000000000000000000000000000000000000000000816001815181106123ba576123b961350b565b5b60200101907effffffffffffffffffffffffffffffffffffffffffffffffffffffffffffff1916908160001a905350600060018460026123fa9190612a81565b6124049190612b23565b90505b60018111156124a4577f3031323334353637383961626364656600000000000000000000000000000000600f8616601081106124465761244561350b565b5b1a60f81b82828151811061245d5761245c61350b565b5b60200101907effffffffffffffffffffffffffffffffffffffffffffffffffffffffffffff1916908160001a905350600485901c94508061249d9061353a565b9050612407565b50600084146124e8576040517f08c379a00000000000000000000000000000000000000000000000000000000081526004016124df906135af565b60405180910390fd5b8091505092915050565b6060612501848460008561250a565b90509392505050565b60608247101561254f576040517f08c379a000000000000000000000000000000000000000000000000000000000815260040161254690613641565b60405180910390fd5b6000808673ffffffffffffffffffffffffffffffffffffffff16858760405161257891906136a8565b60006040518083038185875af1925050503d80600081146125b5576040519150601f19603f3d011682016040523d82523d6000602084013e6125ba565b606091505b50915091506125cb878383876125d7565b92505050949350505050565b60608315612639576000835103612631576125f18561264c565b612630576040517f08c379a00000000000000000000000000000000000000000000000000000000081526004016126279061370b565b60405180910390fd5b5b829050612644565b612643838361266f565b5b949350505050565b6000808273ffffffffffffffffffffffffffffffffffffffff163b119050919050565b6000825111156126825781518083602001fd5b806040517f08c379a00000000000000000000000000000000000000000000000000000000081526004016126b69190613363565b60405180910390fd5b600080fd5b600073ffffffffffffffffffffffffffffffffffffffff82169050919050565b60006126ef826126c4565b9050919050565b6126ff816126e4565b811461270a57600080fd5b50565b60008135905061271c816126f6565b92915050565b600060208284031215612738576127376126bf565b5b60006127468482850161270d565b91505092915050565b6000819050919050565b6127628161274f565b82525050565b600060208201905061277d6000830184612759565b92915050565b60007fffffffff0000000000000000000000000000000000000000000000000000000082169050919050565b6127b881612783565b81146127c357600080fd5b50565b6000813590506127d5816127af565b92915050565b6000602082840312156127f1576127f06126bf565b5b60006127ff848285016127c6565b91505092915050565b60008115159050919050565b61281d81612808565b82525050565b60006020820190506128386000830184612814565b92915050565b6128478161274f565b811461285257600080fd5b50565b6000813590506128648161283e565b92915050565b60008060408385031215612881576128806126bf565b5b600061288f8582860161270d565b92505060206128a085828601612855565b9150509250929050565b6000819050919050565b6128bd816128aa565b81146128c857600080fd5b50565b6000813590506128da816128b4565b92915050565b6000602082840312156128f6576128f56126bf565b5b6000612904848285016128cb565b91505092915050565b612916816128aa565b82525050565b6000602082019050612931600083018461290d565b92915050565b60006020828403121561294d5761294c6126bf565b5b600061295b84828501612855565b91505092915050565b6000806040838503121561297b5761297a6126bf565b5b6000612989858286016128cb565b925050602061299a8582860161270d565b9150509250929050565b6000819050919050565b60006129c96129c46129bf846126c4565b6129a4565b6126c4565b9050919050565b60006129db826129ae565b9050919050565b60006129ed826129d0565b9050919050565b6129fd816129e2565b82525050565b6000602082019050612a1860008301846129f4565b92915050565b7f4e487b7100000000000000000000000000000000000000000000000000000000600052601160045260246000fd5b6000612a588261274f565b9150612a638361274f565b9250828203905081811115612a7b57612a7a612a1e565b5b92915050565b6000612a8c8261274f565b9150612a978361274f565b9250828202612aa58161274f565b91508282048414831517612abc57612abb612a1e565b5b5092915050565b7f4e487b7100000000000000000000000000000000000000000000000000000000600052601260045260246000fd5b6000612afd8261274f565b9150612b088361274f565b925082612b1857612b17612ac3565b5b828204905092915050565b6000612b2e8261274f565b9150612b398361274f565b9250828201905080821115612b5157612b50612a1e565b5b92915050565b600082825260208201905092915050565b7f43616e6e6f74207265636f766572207374616b696e6720746f6b656e00000000600082015250565b6000612b9e601c83612b57565b9150612ba982612b68565b602082019050919050565b60006020820190508181036000830152612bcd81612b91565b9050919050565b7f43616e6e6f74207265636f7665722072657761726420746f6b656e0000000000600082015250565b6000612c0a601b83612b57565b9150612c1582612bd4565b602082019050919050565b60006020820190508181036000830152612c3981612bfd565b9050919050565b7f43757272656e7420706572696f64207374696c6c206163746976650000000000600082015250565b6000612c76601b83612b57565b9150612c8182612c40565b602082019050919050565b60006020820190508181036000830152612ca581612c69565b9050919050565b7f506572696f64206d7573742062652067726561746572207468616e2030000000600082015250565b6000612ce2601d83612b57565b9150612ced82612cac565b602082019050919050565b60006020820190508181036000830152612d1181612cd5565b9050919050565b7f416d6f756e74206d7573742062652067726561746572207468616e2030000000600082015250565b6000612d4e601d83612b57565b9150612d5982612d18565b602082019050919050565b60006020820190508181036000830152612d7d81612d41565b9050919050565b7f496e73756666696369656e74207374616b65642062616c616e63650000000000600082015250565b6000612dba601b83612b57565b9150612dc582612d84565b602082019050919050565b60006020820190508181036000830152612de981612dad565b9050919050565b7f416363657373436f6e74726f6c3a2063616e206f6e6c792072656e6f756e636560008201527f20726f6c657320666f722073656c660000000000000000000000000000000000602082015250565b6000612e4c602f83612b57565b9150612e5782612df0565b604082019050919050565b60006020820190508181036000830152612e7b81612e3f565b9050919050565b7f50726576696f757320706572696f64206e6f742066696e697368656400000000600082015250565b6000612eb8601c83612b57565b9150612ec382612e82565b602082019050919050565b60006020820190508181036000830152612ee781612eab565b9050919050565b7f52657761726420706572696f64206e6f74207365740000000000000000000000600082015250565b6000612f24601583612b57565b9150612f2f82612eee565b602082019050919050565b60006020820190508181036000830152612f5381612f17565b9050919050565b7f526577617264206d7573742062652067726561746572207468616e2030000000600082015250565b6000612f90601d83612b57565b9150612f9b82612f5a565b602082019050919050565b60006020820190508181036000830152612fbf81612f83565b9050919050565b612fcf816126e4565b82525050565b6000602082019050612fea6000830184612fc6565b92915050565b600081519050612fff8161283e565b92915050565b60006020828403121561301b5761301a6126bf565b5b600061302984828501612ff0565b91505092915050565b7f4e6f206163746976652072657761726420706572696f64000000000000000000600082015250565b6000613068601783612b57565b915061307382613032565b602082019050919050565b600060208201905081810360008301526130978161305b565b9050919050565b60006040820190506130b36000830185612fc6565b6130c06020830184612759565b9392505050565b7f5265656e7472616e637947756172643a207265656e7472616e742063616c6c00600082015250565b60006130fd601f83612b57565b9150613108826130c7565b602082019050919050565b6000602082019050818103600083015261312c816130f0565b9050919050565b60006060820190506131486000830186612fc6565b6131556020830185612fc6565b6131626040830184612759565b949350505050565b7f5061757361626c653a2070617573656400000000000000000000000000000000600082015250565b60006131a0601083612b57565b91506131ab8261316a565b602082019050919050565b600060208201905081810360008301526131cf81613193565b9050919050565b600081905092915050565b7f416363657373436f6e74726f6c3a206163636f756e7420000000000000000000600082015250565b60006132176017836131d6565b9150613222826131e1565b601782019050919050565b600081519050919050565b60005b8381101561325657808201518184015260208101905061323b565b60008484015250505050565b600061326d8261322d565b61327781856131d6565b9350613287818560208601613238565b80840191505092915050565b7f206973206d697373696e6720726f6c6520000000000000000000000000000000600082015250565b60006132c96011836131d6565b91506132d482613293565b601182019050919050565b60006132ea8261320a565b91506132f68285613262565b9150613301826132bc565b915061330d8284613262565b91508190509392505050565b6000601f19601f8301169050919050565b60006133358261322d565b61333f8185612b57565b935061334f818560208601613238565b61335881613319565b840191505092915050565b6000602082019050818103600083015261337d818461332a565b905092915050565b61338e81612808565b811461339957600080fd5b50565b6000815190506133ab81613385565b92915050565b6000602082840312156133c7576133c66126bf565b5b60006133d58482850161339c565b91505092915050565b7f5361666545524332303a204552433230206f7065726174696f6e20646964206e60008201527f6f74207375636365656400000000000000000000000000000000000000000000602082015250565b600061343a602a83612b57565b9150613445826133de565b604082019050919050565b600060208201905081810360008301526134698161342d565b9050919050565b7f5061757361626c653a206e6f7420706175736564000000000000000000000000600082015250565b60006134a6601483612b57565b91506134b182613470565b602082019050919050565b600060208201905081810360008301526134d581613499565b9050919050565b7f4e487b7100000000000000000000000000000000000000000000000000000000600052604160045260246000fd5b7f4e487b7100000000000000000000000000000000000000000000000000000000600052603260045260246000fd5b60006135458261274f565b91506000820361355857613557612a1e565b5b600182039050919050565b7f537472696e67733a20686578206c656e67746820696e73756666696369656e74600082015250565b6000613599602083612b57565b91506135a482613563565b602082019050919050565b600060208201905081810360008301526135c88161358c565b9050919050565b7f416464726573733a20696e73756666696369656e742062616c616e636520666f60008201527f722063616c6c0000000000000000000000000000000000000000000000000000602082015250565b600061362b602683612b57565b9150613636826135cf565b604082019050919050565b6000602082019050818103600083015261365a8161361e565b9050919050565b600081519050919050565b600081905092915050565b600061368282613661565b61368c818561366c565b935061369c818560208601613238565b80840191505092915050565b60006136b48284613677565b915081905092915050565b7f416464726573733a2063616c6c20746f206e6f6e2d636f6e7472616374000000600082015250565b60006136f5601d83612b57565b9150613700826136bf565b602082019050919050565b60006020820190508181036000830152613724816136e8565b905091905056fea26469706673582212201047ad5b8e559bf249319622d32ebfc764e8d7f30969b44b49e3e27218abdb7b64736f6c63430008130033",
  "linkReferences": {},
  "deployedLinkReferences": {}
}